{"project/contracts/ExpertFactory.sol":{"ExpertFactory":{"abi":[{"inputs":[{"internalType":"address","name":"_platformAddress","type":"address"}],"stateMutability":"nonpayable","type":"constructor"},{"inputs":[{"internalType":"address","name":"owner","type":"address"}],"name":"OwnableInvalidOwner","type":"error"},{"inputs":[{"internalType":"address","name":"account","type":"address"}],"name":"OwnableUnauthorizedAccount","type":"error"},{"anonymous":false,"inputs":[{"indexed":true,"internalType":"string","name":"symbol","type":"string"}],"name":"ExpertActivated","type":"event"},{"anonymous":false,"inputs":[{"indexed":true,"internalType":"string","name":"symbol","type":"string"},{"indexed":true,"internalType":"address","name":"tokenAddress","type":"address"},{"indexed":true,"internalType":"address","name":"expertAddress","type":"address"},{"indexed":false,"internalType":"string","name":"name","type":"string"},{"indexed":false,"internalType":"uint256","name":"tokensPerQuery","type":"uint256"}],"name":"ExpertCreated","type":"event"},{"anonymous":false,"inputs":[{"indexed":true,"internalType":"string","name":"symbol","type":"string"}],"name":"ExpertDeactivated","type":"event"},{"anonymous":false,"inputs":[{"indexed":true,"internalType":"string","name":"symbol","type":"string"},{"indexed":false,"internalType":"uint256","name":"newTokensPerQuery","type":"uint256"}],"name":"ExpertUpdated","type":"event"},{"anonymous":false,"inputs":[{"indexed":true,"internalType":"address","name":"previousOwner","type":"address"},{"indexed":true,"internalType":"address","name":"newOwner","type":"address"}],"name":"OwnershipTransferred","type":"event"},{"inputs":[{"internalType":"string[]","name":"_names","type":"string[]"},{"internalType":"string[]","name":"_symbols","type":"string[]"},{"internalType":"string[]","name":"_categories","type":"string[]"},{"internalType":"uint256[]","name":"_tokensPerQuery","type":"uint256[]"},{"internalType":"address[]","name":"_expertAddresses","type":"address[]"}],"name":"batchCreateExperts","outputs":[],"stateMutability":"nonpayable","type":"function"},{"inputs":[{"internalType":"string","name":"_name","type":"string"},{"internalType":"string","name":"_symbol","type":"string"},{"internalType":"string","name":"_category","type":"string"},{"internalType":"uint256","name":"_tokensPerQuery","type":"uint256"},{"internalType":"address","name":"_expertAddress","type":"address"}],"name":"createExpert","outputs":[{"internalType":"address","name":"","type":"address"}],"stateMutability":"nonpayable","type":"function"},{"inputs":[{"internalType":"uint256","name":"","type":"uint256"}],"name":"expertSymbols","outputs":[{"internalType":"string","name":"","type":"string"}],"stateMutability":"view","type":"function"},{"inputs":[{"internalType":"string","name":"","type":"string"}],"name":"experts","outputs":[{"internalType":"address","name":"tokenAddress","type":"address"},{"internalType":"string","name":"name","type":"string"},{"internalType":"string","name":"symbol","type":"string"},{"internalType":"string","name":"category","type":"string"},{"internalType":"uint256","name":"tokensPerQuery","type":"uint256"},{"internalType":"address","name":"expertAddress","type":"address"},{"internalType":"bool","name":"isActive","type":"bool"},{"internalType":"uint256","name":"totalConsultations","type":"uint256"},{"internalType":"uint256","name":"totalRevenue","type":"uint256"}],"stateMutability":"view","type":"function"},{"inputs":[],"name":"getAllExperts","outputs":[{"internalType":"string[]","name":"symbols_","type":"string[]"},{"internalType":"address[]","name":"tokenAddresses_","type":"address[]"},{"internalType":"string[]","name":"names_","type":"string[]"},{"internalType":"string[]","name":"categories_","type":"string[]"},{"internalType":"uint256[]","name":"tokensPerQuery_","type":"uint256[]"},{"internalType":"bool[]","name":"isActive_","type":"bool[]"}],"stateMutability":"view","type":"function"},{"inputs":[{"internalType":"string","name":"_symbol","type":"string"}],"name":"getExpert","outputs":[{"components":[{"internalType":"address","name":"tokenAddress","type":"address"},{"internalType":"string","name":"name","type":"string"},{"internalType":"string","name":"symbol","type":"string"},{"internalType":"string","name":"category","type":"string"},{"internalType":"uint256","name":"tokensPerQuery","type":"uint256"},{"internalType":"address","name":"expertAddress","type":"address"},{"internalType":"bool","name":"isActive","type":"bool"},{"internalType":"uint256","name":"totalConsultations","type":"uint256"},{"internalType":"uint256","name":"totalRevenue","type":"uint256"}],"internalType":"struct ExpertFactory.ExpertInfo","name":"","type":"tuple"}],"stateMutability":"view","type":"function"},{"inputs":[{"internalType":"address","name":"_tokenAddress","type":"address"}],"name":"getExpertByToken","outputs":[{"components":[{"internalType":"address","name":"tokenAddress","type":"address"},{"internalType":"string","name":"name","type":"string"},{"internalType":"string","name":"symbol","type":"string"},{"internalType":"string","name":"category","type":"string"},{"internalType":"uint256","name":"tokensPerQuery","type":"uint256"},{"internalType":"address","name":"expertAddress","type":"address"},{"internalType":"bool","name":"isActive","type":"bool"},{"internalType":"uint256","name":"totalConsultations","type":"uint256"},{"internalType":"uint256","name":"totalRevenue","type":"uint256"}],"internalType":"struct ExpertFactory.ExpertInfo","name":"","type":"tuple"}],"stateMutability":"view","type":"function"},{"inputs":[],"name":"getExpertCount","outputs":[{"internalType":"uint256","name":"","type":"uint256"}],"stateMutability":"view","type":"function"},{"inputs":[],"name":"owner","outputs":[{"internalType":"address","name":"","type":"address"}],"stateMutability":"view","type":"function"},{"inputs":[],"name":"platformAddress","outputs":[{"internalType":"address","name":"","type":"address"}],"stateMutability":"view","type":"function"},{"inputs":[],"name":"renounceOwnership","outputs":[],"stateMutability":"nonpayable","type":"function"},{"inputs":[{"internalType":"string","name":"_symbol","type":"string"},{"internalType":"bool","name":"_isActive","type":"bool"}],"name":"setExpertActive","outputs":[],"stateMutability":"nonpayable","type":"function"},{"inputs":[{"internalType":"address","name":"","type":"address"}],"name":"tokenToSymbol","outputs":[{"internalType":"string","name":"","type":"string"}],"stateMutability":"view","type":"function"},{"inputs":[{"internalType":"address","name":"newOwner","type":"address"}],"name":"transferOwnership","outputs":[],"stateMutability":"nonpayable","type":"function"},{"inputs":[{"internalType":"string","name":"_symbol","type":"string"},{"internalType":"uint256","name":"_newTokensPerQuery","type":"uint256"}],"name":"updateExpertCost","outputs":[],"stateMutability":"nonpayable","type":"function"},{"inputs":[{"internalType":"address","name":"_newPlatformAddress","type":"address"}],"name":"updatePlatformAddress","outputs":[],"stateMutability":"nonpayable","type":"function"}],"evm":{"bytecode":{"linkReferences":{},"object":"608060405234801562000010575f80fd5b50604051620041ce380380620041ce833981016040819052620000339162000133565b33806200005a57604051631e4fbdf760e01b81525f60048201526024015b60405180910390fd5b6200006581620000e4565b506001600160a01b038116620000be5760405162461bcd60e51b815260206004820152601f60248201527f506c6174666f726d20616464726573732063616e6e6f74206265207a65726f00604482015260640162000051565b600480546001600160a01b0319166001600160a01b039290921691909117905562000162565b5f80546001600160a01b038381166001600160a01b0319831681178455604051919092169283917f8be0079c531659141344cd1fd0a4f28419497f9722a3daafe3b4186f6b6457e09190a35050565b5f6020828403121562000144575f80fd5b81516001600160a01b03811681146200015b575f80fd5b9392505050565b61405e80620001705f395ff3fe608060405234801562000010575f80fd5b506004361062000110575f3560e01c80638f9f193f116200009f578063ca0b2c89116200006b578063ca0b2c891462000270578063d4a7737f1462000287578063dbe55e56146200029e578063f2fde38b14620002b2575f80fd5b80638f9f193f14620001fe578063b6211dbf1462000215578063b733b94d146200023b578063b7366ee91462000259575f80fd5b8063715018a611620000df578063715018a6146200019c57806379050a0114620001a6578063831480fb14620001bd5780638da5cb5b14620001ed575f80fd5b80630ba3612114620001145780630f405af414620001435780631dd5f76014620001555780632e7e21561462000183575b5f80fd5b6200012b6200012536600462001cb0565b620002c9565b6040516200013a919062001d24565b60405180910390f35b6003546040519081526020016200013a565b6200016c6200016636600462001df1565b62000368565b6040516200013a9998979695949392919062001e2e565b6200019a620001943660046200203c565b62000583565b005b6200019a62000737565b6200019a620001b736600462002114565b6200074e565b620001d4620001ce3660046200216b565b62000879565b6040516001600160a01b0390911681526020016200013a565b5f546001600160a01b0316620001d4565b6200019a6200020f36600462001cb0565b62000cc7565b6200022c6200022636600462001df1565b62000d4b565b6040516200013a919062002212565b6200024562000ff8565b6040516200013a96959493929190620023ae565b6200012b6200026a3660046200246a565b620015ee565b6200019a6200028136600462002482565b62001618565b6200022c6200029836600462001cb0565b62001812565b600454620001d4906001600160a01b031681565b6200019a620002c336600462001cb0565b62001b57565b60026020525f908152604090208054620002e390620024c7565b80601f01602080910402602001604051908101604052809291908181526020018280546200031190620024c7565b8015620003605780601f10620003365761010080835404028352916020019162000360565b820191905f5260205f20905b8154815290600101906020018083116200034257829003601f168201915b505050505081565b805160208183018101805160018083529383019290940191909120929052815490820180546001600160a01b039092169291620003a590620024c7565b80601f0160208091040260200160405190810160405280929190818152602001828054620003d390620024c7565b8015620004225780601f10620003f85761010080835404028352916020019162000422565b820191905f5260205f20905b8154815290600101906020018083116200040457829003601f168201915b5050505050908060020180546200043990620024c7565b80601f01602080910402602001604051908101604052809291908181526020018280546200046790620024c7565b8015620004b65780601f106200048c57610100808354040283529160200191620004b6565b820191905f5260205f20905b8154815290600101906020018083116200049857829003601f168201915b505050505090806003018054620004cd90620024c7565b80601f0160208091040260200160405190810160405280929190818152602001828054620004fb90620024c7565b80156200054a5780601f1062000520576101008083540402835291602001916200054a565b820191905f5260205f20905b8154815290600101906020018083116200052c57829003601f168201915b50505050600483015460058401546006850154600790950154939491936001600160a01b0382169350600160a01b90910460ff16919089565b6200058d62001b9a565b8351855114620005ba5760405162461bcd60e51b8152600401620005b19062002501565b60405180910390fd5b8251855114620005de5760405162461bcd60e51b8152600401620005b19062002501565b8151855114620006025760405162461bcd60e51b8152600401620005b19062002501565b8051855114620006265760405162461bcd60e51b8152600401620005b19062002501565b5f5b85518110156200072f575f6001600160a01b0316600186838151811062000653576200065362002530565b60200260200101516040516200066a919062002544565b908152604051908190036020019020546001600160a01b031603620007265762000724868281518110620006a257620006a262002530565b6020026020010151868381518110620006bf57620006bf62002530565b6020026020010151868481518110620006dc57620006dc62002530565b6020026020010151868581518110620006f957620006f962002530565b602002602001015186868151811062000716576200071662002530565b602002602001015162001bc8565b505b60010162000628565b505050505050565b6200074162001b9a565b6200074c5f62001bdd565b565b6200075862001b9a565b5f6001600160a01b031660018360405162000774919062002544565b908152604051908190036020019020546001600160a01b031603620007ad5760405162461bcd60e51b8152600401620005b19062002561565b80600183604051620007c0919062002544565b9081526040519081900360200190206005018054911515600160a01b0260ff60a01b19909216919091179055801562000836578160405162000803919062002544565b604051908190038120907f3cdb38dd99698f430f7c26a3dea2e7c55d6795f25ed95e4831b242de88d0d8c7905f90a25050565b8160405162000846919062002544565b604051908190038120907f77a4b755b97a67075d9524772f60a4f23171395b2227f0ed454b76428fe8ca90905f90a25050565b5f6200088462001b9a565b5f865111620008cd5760405162461bcd60e51b81526020600482015260146024820152734e616d652063616e6e6f7420626520656d70747960601b6044820152606401620005b1565b5f855111620009185760405162461bcd60e51b815260206004820152601660248201527553796d626f6c2063616e6e6f7420626520656d70747960501b6044820152606401620005b1565b5f8311620009795760405162461bcd60e51b815260206004820152602760248201527f546f6b656e7320706572207175657279206d75737420626520677265617465726044820152660207468616e20360cc1b6064820152608401620005b1565b6001600160a01b038216620009d15760405162461bcd60e51b815260206004820152601d60248201527f45787065727420616464726573732063616e6e6f74206265207a65726f0000006044820152606401620005b1565b5f6001600160a01b0316600186604051620009ed919062002544565b908152604051908190036020019020546001600160a01b03161462000a4d5760405162461bcd60e51b815260206004820152601560248201527445787065727420616c72656164792065786973747360581b6044820152606401620005b1565b5f8660405160200162000a61919062002590565b60405160208183030381529060405290505f81878988888860045f9054906101000a90046001600160a01b031660405162000a9c9062001c2c565b62000aae9796959493929190620025d4565b604051809103905ff08015801562000ac8573d5f803e3d5ffd5b5090505f819050604051806101200160405280826001600160a01b031681526020018a8152602001898152602001888152602001878152602001866001600160a01b031681526020016001151581526020015f81526020015f81525060018960405162000b36919062002544565b90815260405160209181900382019020825181546001600160a01b0319166001600160a01b0390911617815590820151600182019062000b779082620026a2565b506040820151600282019062000b8e9082620026a2565b506060820151600382019062000ba59082620026a2565b506080820151600482015560a082015160058201805460c08501511515600160a01b026001600160a81b03199091166001600160a01b039384161717905560e083015160068301556101009092015160079091015581165f90815260026020526040902062000c158982620026a2565b50600380546001810182555f919091527fc2575a0e9e593c00f959f8c92f12db2869c3395a3b0502d05e2516446f71f85b0162000c538982620026a2565b50846001600160a01b0316816001600160a01b03168960405162000c78919062002544565b60405180910390207f30ed4d9e7c7fbe967fb0f82b79cceb9085f9bb05672899b777f3decc0b5ba9fb8c8a60405162000cb39291906200276a565b60405180910390a498975050505050505050565b62000cd162001b9a565b6001600160a01b03811662000d295760405162461bcd60e51b815260206004820152601f60248201527f506c6174666f726d20616464726573732063616e6e6f74206265207a65726f006044820152606401620005b1565b600480546001600160a01b0319166001600160a01b0392909216919091179055565b62000d5562001c3a565b5f6001600160a01b031660018360405162000d71919062002544565b908152604051908190036020019020546001600160a01b03160362000daa5760405162461bcd60e51b8152600401620005b19062002561565b60018260405162000dbc919062002544565b908152604080519182900360209081018320610120840190925281546001600160a01b031683526001820180549184019162000df890620024c7565b80601f016020809104026020016040519081016040528092919081815260200182805462000e2690620024c7565b801562000e755780601f1062000e4b5761010080835404028352916020019162000e75565b820191905f5260205f20905b81548152906001019060200180831162000e5757829003601f168201915b5050505050815260200160028201805462000e9090620024c7565b80601f016020809104026020016040519081016040528092919081815260200182805462000ebe90620024c7565b801562000f0d5780601f1062000ee35761010080835404028352916020019162000f0d565b820191905f5260205f20905b81548152906001019060200180831162000eef57829003601f168201915b5050505050815260200160038201805462000f2890620024c7565b80601f016020809104026020016040519081016040528092919081815260200182805462000f5690620024c7565b801562000fa55780601f1062000f7b5761010080835404028352916020019162000fa5565b820191905f5260205f20905b81548152906001019060200180831162000f8757829003601f168201915b50505091835250506004820154602082015260058201546001600160a01b0381166040830152600160a01b900460ff16151560608201526006820154608082015260079091015460a09091015292915050565b6060806060806060805f6003805490509050806001600160401b0381111562001025576200102562001d38565b6040519080825280602002602001820160405280156200105a57816020015b6060815260200190600190039081620010445790505b509650806001600160401b0381111562001078576200107862001d38565b604051908082528060200260200182016040528015620010a2578160200160208202803683370190505b509550806001600160401b03811115620010c057620010c062001d38565b604051908082528060200260200182016040528015620010f557816020015b6060815260200190600190039081620010df5790505b509450806001600160401b0381111562001113576200111362001d38565b6040519080825280602002602001820160405280156200114857816020015b6060815260200190600190039081620011325790505b509350806001600160401b0381111562001166576200116662001d38565b60405190808252806020026020018201604052801562001190578160200160208202803683370190505b509250806001600160401b03811115620011ae57620011ae62001d38565b604051908082528060200260200182016040528015620011d8578160200160208202803683370190505b5091505f5b81811015620015e4575f60038281548110620011fd57620011fd62002530565b905f5260205f200180546200121290620024c7565b80601f01602080910402602001604051908101604052809291908181526020018280546200124090620024c7565b80156200128f5780601f1062001265576101008083540402835291602001916200128f565b820191905f5260205f20905b8154815290600101906020018083116200127157829003601f168201915b505050505090505f600182604051620012a9919062002544565b908152604080519182900360209081018320610120840190925281546001600160a01b0316835260018201805491840191620012e590620024c7565b80601f01602080910402602001604051908101604052809291908181526020018280546200131390620024c7565b8015620013625780601f10620013385761010080835404028352916020019162001362565b820191905f5260205f20905b8154815290600101906020018083116200134457829003601f168201915b505050505081526020016002820180546200137d90620024c7565b80601f0160208091040260200160405190810160405280929190818152602001828054620013ab90620024c7565b8015620013fa5780601f10620013d057610100808354040283529160200191620013fa565b820191905f5260205f20905b815481529060010190602001808311620013dc57829003601f168201915b505050505081526020016003820180546200141590620024c7565b80601f01602080910402602001604051908101604052809291908181526020018280546200144390620024c7565b8015620014925780601f10620014685761010080835404028352916020019162001492565b820191905f5260205f20905b8154815290600101906020018083116200147457829003601f168201915b50505091835250506004820154602082015260058201546001600160a01b0381166040830152600160a01b900460ff16151560608201526006820154608082015260079091015460a0909101528a5190915082908b9085908110620014fb57620014fb62002530565b6020026020010181905250805f01518984815181106200151f576200151f62002530565b60200260200101906001600160a01b031690816001600160a01b031681525050806020015188848151811062001559576200155962002530565b602002602001018190525080606001518784815181106200157e576200157e62002530565b60200260200101819052508060800151868481518110620015a357620015a362002530565b6020026020010181815250508060c00151858481518110620015c957620015c962002530565b911515602092830291909101909101525050600101620011dd565b5050909192939495565b60038181548110620015fe575f80fd5b905f5260205f20015f915090508054620002e390620024c7565b5f6001600160a01b031660018360405162001634919062002544565b908152604051908190036020019020546001600160a01b0316036200166d5760405162461bcd60e51b8152600401620005b19062002561565b5f8111620016be5760405162461bcd60e51b815260206004820152601b60248201527f436f7374206d7573742062652067726561746572207468616e203000000000006044820152606401620005b1565b5f600183604051620016d1919062002544565b9081526040519081900360200190206005810154909150336001600160a01b0390911614806200170a57505f546001600160a01b031633145b620017645760405162461bcd60e51b8152602060048201526024808201527f4f6e6c7920657870657274206f72206f776e65722063616e207570646174652060448201526318dbdcdd60e21b6064820152608401620005b1565b60048181018390558154604051633227cf1360e21b81529182018490526001600160a01b03169063c89f3c4c906024015f604051808303815f87803b158015620017ac575f80fd5b505af1158015620017bf573d5f803e3d5ffd5b5050505082604051620017d3919062002544565b604051908190038120838252907f6f119563bbc031cab83fcaecd1aaeb5b8fdd107b1885f37e7ac49a63d32364019060200160405180910390a2505050565b6200181c62001c3a565b6001600160a01b0382165f90815260026020526040812080546200184090620024c7565b80601f01602080910402602001604051908101604052809291908181526020018280546200186e90620024c7565b8015620018bd5780601f106200189357610100808354040283529160200191620018bd565b820191905f5260205f20905b8154815290600101906020018083116200189f57829003601f168201915b505050505090505f815111620019085760405162461bcd60e51b815260206004820152600f60248201526e151bdad95b881b9bdd08199bdd5b99608a1b6044820152606401620005b1565b6001816040516200191a919062002544565b908152604080519182900360209081018320610120840190925281546001600160a01b03168352600182018054918401916200195690620024c7565b80601f01602080910402602001604051908101604052809291908181526020018280546200198490620024c7565b8015620019d35780601f10620019a957610100808354040283529160200191620019d3565b820191905f5260205f20905b815481529060010190602001808311620019b557829003601f168201915b50505050508152602001600282018054620019ee90620024c7565b80601f016020809104026020016040519081016040528092919081815260200182805462001a1c90620024c7565b801562001a6b5780601f1062001a415761010080835404028352916020019162001a6b565b820191905f5260205f20905b81548152906001019060200180831162001a4d57829003601f168201915b5050505050815260200160038201805462001a8690620024c7565b80601f016020809104026020016040519081016040528092919081815260200182805462001ab490620024c7565b801562001b035780601f1062001ad95761010080835404028352916020019162001b03565b820191905f5260205f20905b81548152906001019060200180831162001ae557829003601f168201915b50505091835250506004820154602082015260058201546001600160a01b0381166040830152600160a01b900460ff16151560608201526006820154608082015260079091015460a0909101529392505050565b62001b6162001b9a565b6001600160a01b03811662001b8c57604051631e4fbdf760e01b81525f6004820152602401620005b1565b62001b978162001bdd565b50565b5f546001600160a01b031633146200074c5760405163118cdaa760e01b8152336004820152602401620005b1565b5f808660405160200162000a61919062002590565b5f80546001600160a01b038381166001600160a01b0319831681178455604051919092169283917f8be0079c531659141344cd1fd0a4f28419497f9722a3daafe3b4186f6b6457e09190a35050565b61189b806200278e83390190565b6040518061012001604052805f6001600160a01b031681526020016060815260200160608152602001606081526020015f81526020015f6001600160a01b031681526020015f151581526020015f81526020015f81525090565b80356001600160a01b038116811462001cab575f80fd5b919050565b5f6020828403121562001cc1575f80fd5b62001ccc8262001c94565b9392505050565b5f5b8381101562001cef57818101518382015260200162001cd5565b50505f910152565b5f815180845262001d1081602086016020860162001cd3565b601f01601f19169290920160200192915050565b602081525f62001ccc602083018462001cf7565b634e487b7160e01b5f52604160045260245ffd5b604051601f8201601f191681016001600160401b038111828210171562001d775762001d7762001d38565b604052919050565b5f82601f83011262001d8f575f80fd5b81356001600160401b0381111562001dab5762001dab62001d38565b62001dc0601f8201601f191660200162001d4c565b81815284602083860101111562001dd5575f80fd5b816020850160208301375f918101602001919091529392505050565b5f6020828403121562001e02575f80fd5b81356001600160401b0381111562001e18575f80fd5b62001e268482850162001d7f565b949350505050565b6001600160a01b038a81168252610120602083018190525f9162001e558483018d62001cf7565b9150838203604085015262001e6b828c62001cf7565b9150838203606085015262001e81828b62001cf7565b60808501999099529690961660a08301525092151560c084015260e08301919091526101009091015250949350505050565b5f6001600160401b0382111562001ece5762001ece62001d38565b5060051b60200190565b5f82601f83011262001ee8575f80fd5b8135602062001f0162001efb8362001eb3565b62001d4c565b82815260059290921b8401810191818101908684111562001f20575f80fd5b8286015b8481101562001f625780356001600160401b0381111562001f43575f80fd5b62001f538986838b010162001d7f565b84525091830191830162001f24565b509695505050505050565b5f82601f83011262001f7d575f80fd5b8135602062001f9062001efb8362001eb3565b8083825260208201915060208460051b87010193508684111562001fb2575f80fd5b602086015b8481101562001f62578035835291830191830162001fb7565b5f82601f83011262001fe0575f80fd5b8135602062001ff362001efb8362001eb3565b8083825260208201915060208460051b87010193508684111562002015575f80fd5b602086015b8481101562001f62576200202e8162001c94565b83529183019183016200201a565b5f805f805f60a0868803121562002051575f80fd5b85356001600160401b038082111562002068575f80fd5b6200207689838a0162001ed8565b965060208801359150808211156200208c575f80fd5b6200209a89838a0162001ed8565b95506040880135915080821115620020b0575f80fd5b620020be89838a0162001ed8565b94506060880135915080821115620020d4575f80fd5b620020e289838a0162001f6d565b93506080880135915080821115620020f8575f80fd5b50620021078882890162001fd0565b9150509295509295909350565b5f806040838503121562002126575f80fd5b82356001600160401b038111156200213c575f80fd5b6200214a8582860162001d7f565b9250506020830135801515811462002160575f80fd5b809150509250929050565b5f805f805f60a0868803121562002180575f80fd5b85356001600160401b038082111562002197575f80fd5b620021a589838a0162001d7f565b96506020880135915080821115620021bb575f80fd5b620021c989838a0162001d7f565b95506040880135915080821115620021df575f80fd5b50620021ee8882890162001d7f565b93505060608601359150620022066080870162001c94565b90509295509295909350565b602081526200222d6020820183516001600160a01b03169052565b5f60208301516101208060408501526200224c61014085018362001cf7565b91506040850151601f19808685030160608701526200226c848362001cf7565b93506060870151915080868503016080870152506200228c838262001cf7565b925050608085015160a085015260a0850151620022b460c08601826001600160a01b03169052565b5060c085015180151560e08601525060e085015161010085810191909152909401519390920192909252919050565b5f8282518085526020808601955060208260051b840101602086015f5b848110156200233257601f198684030189526200231f83835162001cf7565b9884019892509083019060010162002300565b5090979650505050505050565b5f815180845260208085019450602084015f5b83811015620023705781518752958201959082019060010162002352565b509495945050505050565b5f815180845260208085019450602084015f5b83811015620023705781511515875295820195908201906001016200238e565b60c081525f620023c260c0830189620022e3565b8281036020848101919091528851808352898201928201905f5b81811015620024035784516001600160a01b031683529383019391830191600101620023dc565b5050848103604086015262002419818a620022e3565b925050508281036060840152620024318187620022e3565b905082810360808401526200244781866200233f565b905082810360a08401526200245d81856200237b565b9998505050505050505050565b5f602082840312156200247b575f80fd5b5035919050565b5f806040838503121562002494575f80fd5b82356001600160401b03811115620024aa575f80fd5b620024b88582860162001d7f565b95602094909401359450505050565b600181811c90821680620024dc57607f821691505b602082108103620024fb57634e487b7160e01b5f52602260045260245ffd5b50919050565b602080825260159082015274082e4e4c2f240d8cadccee8d040dad2e6dac2e8c6d605b1b604082015260600190565b634e487b7160e01b5f52603260045260245ffd5b5f82516200255781846020870162001cd3565b9190910192915050565b602080825260159082015274115e1c195c9d08191bd95cc81b9bdd08195e1a5cdd605a1b604082015260600190565b6a0213930b4b72a3930b232960ad1b81525f8251620025b781600b85016020870162001cd3565b65102a37b5b2b760d11b600b939091019283015250601101919050565b60e081525f620025e860e083018a62001cf7565b8281036020840152620025fc818a62001cf7565b9050828103604084015262002612818962001cf7565b9050828103606084015262002628818862001cf7565b608084019690965250506001600160a01b0392831660a0820152911660c090910152949350505050565b601f8211156200269d57805f5260205f20601f840160051c81016020851015620026795750805b601f840160051c820191505b818110156200269a575f815560010162002685565b50505b505050565b81516001600160401b03811115620026be57620026be62001d38565b620026d681620026cf8454620024c7565b8462002652565b602080601f8311600181146200270c575f8415620026f45750858301515b5f19600386901b1c1916600185901b1785556200072f565b5f85815260208120601f198616915b828110156200273c578886015182559484019460019091019084016200271b565b50858210156200275a57878501515f19600388901b60f8161c191681555b5050505050600190811b01905550565b604081525f6200277e604083018562001cf7565b9050826020830152939250505056fe6080604052600a600b5534801562000015575f80fd5b506040516200189b3803806200189b8339810160408190526200003891620003bf565b338787600362000049838262000528565b50600462000058828262000528565b5050506001600160a01b0381166200008a57604051631e4fbdf760e01b81525f60048201526024015b60405180910390fd5b620000958162000126565b506006620000a4868262000528565b506007620000b3858262000528565b506008839055600980546001600160a01b038085166001600160a01b031992831617909255600a8054928416929091169190911790556200011930620000f7601290565b6200010490600a62000703565b6200011390620f42406200071a565b62000177565b505050505050506200074a565b600580546001600160a01b038381166001600160a01b0319831681179093556040519116919082907f8be0079c531659141344cd1fd0a4f28419497f9722a3daafe3b4186f6b6457e0905f90a35050565b6001600160a01b038216620001a25760405163ec442f0560e01b81525f600482015260240162000081565b620001af5f8383620001b3565b5050565b6001600160a01b038316620001e1578060025f828254620001d5919062000734565b90915550620002539050565b6001600160a01b0383165f9081526020819052604090205481811015620002355760405163391434e360e21b81526001600160a01b0385166004820152602481018290526044810183905260640162000081565b6001600160a01b0384165f9081526020819052604090209082900390555b6001600160a01b03821662000271576002805482900390556200028f565b6001600160a01b0382165f9081526020819052604090208054820190555b816001600160a01b0316836001600160a01b03167fddf252ad1be2c89b69c2b068fc378daa952ba7f163c4a11628f55a4df523b3ef83604051620002d591815260200190565b60405180910390a3505050565b634e487b7160e01b5f52604160045260245ffd5b5f82601f83011262000306575f80fd5b81516001600160401b0380821115620003235762000323620002e2565b604051601f8301601f19908116603f011681019082821181831017156200034e576200034e620002e2565b81604052838152602092508660208588010111156200036b575f80fd5b5f91505b838210156200038e57858201830151818301840152908201906200036f565b5f602085830101528094505050505092915050565b80516001600160a01b0381168114620003ba575f80fd5b919050565b5f805f805f805f60e0888a031215620003d6575f80fd5b87516001600160401b0380821115620003ed575f80fd5b620003fb8b838c01620002f6565b985060208a015191508082111562000411575f80fd5b6200041f8b838c01620002f6565b975060408a015191508082111562000435575f80fd5b620004438b838c01620002f6565b965060608a015191508082111562000459575f80fd5b50620004688a828b01620002f6565b945050608088015192506200048060a08901620003a3565b91506200049060c08901620003a3565b905092959891949750929550565b600181811c90821680620004b357607f821691505b602082108103620004d257634e487b7160e01b5f52602260045260245ffd5b50919050565b601f8211156200052357805f5260205f20601f840160051c81016020851015620004ff5750805b601f840160051c820191505b8181101562000520575f81556001016200050b565b50505b505050565b81516001600160401b03811115620005445762000544620002e2565b6200055c816200055584546200049e565b84620004d8565b602080601f83116001811462000592575f84156200057a5750858301515b5f19600386901b1c1916600185901b178555620005ec565b5f85815260208120601f198616915b82811015620005c257888601518255948401946001909101908401620005a1565b5085821015620005e057878501515f19600388901b60f8161c191681555b505060018460011b0185555b505050505050565b634e487b7160e01b5f52601160045260245ffd5b600181815b808511156200064857815f19048211156200062c576200062c620005f4565b808516156200063a57918102915b93841c93908002906200060d565b509250929050565b5f826200066057506001620006fd565b816200066e57505f620006fd565b81600181146200068757600281146200069257620006b2565b6001915050620006fd565b60ff841115620006a657620006a6620005f4565b50506001821b620006fd565b5060208310610133831016604e8410600b8410161715620006d7575081810a620006fd565b620006e3838362000608565b805f1904821115620006f957620006f9620005f4565b0290505b92915050565b5f6200071360ff84168362000650565b9392505050565b8082028115828204841417620006fd57620006fd620005f4565b80820180821115620006fd57620006fd620005f4565b61114380620007585f395ff3fe608060405260043610610195575f3560e01c80637b97008d116100e7578063bf2d9e0b11610087578063dbe55e5611610062578063dbe55e5614610445578063dd62ed3e14610464578063e548b2f4146104a8578063f2fde38b146104c7575f80fd5b8063bf2d9e0b146103fd578063c735b83914610412578063c89f3c4c14610426575f80fd5b80638da5cb5b116100c25780638da5cb5b1461038e57806395d89b41146103ab578063a90383f2146103bf578063a9059cbb146103de575f80fd5b80637b97008d146103515780637c5e2795146103645780638c639a8514610379575f80fd5b80634d8077db116101525780635fe97e9f1161012d5780635fe97e9f146102bc57806368b441dd146102d057806370a0823114610307578063715018a61461033b575f80fd5b80634d8077db146102635780635addb188146102825780635f0a481114610297575f80fd5b806306fdde0314610199578063095ea7b3146101c35780630eebf70c146101f257806318160ddd1461021557806323b872dd14610229578063313ce56714610248575b5f80fd5b3480156101a4575f80fd5b506101ad6104e6565b6040516101ba9190610f15565b60405180910390f35b3480156101ce575f80fd5b506101e26101dd366004610f49565b610576565b60405190151581526020016101ba565b3480156101fd575f80fd5b5061020760085481565b6040519081526020016101ba565b348015610220575f80fd5b50600254610207565b348015610234575f80fd5b506101e2610243366004610f71565b61058f565b348015610253575f80fd5b50604051601281526020016101ba565b34801561026e575f80fd5b506101e261027d366004610faa565b6105b2565b34801561028d575f80fd5b50610207600c5481565b3480156102a2575f80fd5b506102ab610680565b6040516101ba959493929190610fc1565b3480156102c7575f80fd5b506101ad6107b8565b3480156102db575f80fd5b506009546102ef906001600160a01b031681565b6040516001600160a01b0390911681526020016101ba565b348015610312575f80fd5b50610207610321366004611003565b6001600160a01b03165f9081526020819052604090205490565b348015610346575f80fd5b5061034f610844565b005b61034f61035f366004610faa565b610857565b34801561036f575f80fd5b506102076103e881565b348015610384575f80fd5b50610207600b5481565b348015610399575f80fd5b506005546001600160a01b03166102ef565b3480156103b6575f80fd5b506101ad610912565b3480156103ca575f80fd5b5061034f6103d9366004610f49565b610921565b3480156103e9575f80fd5b506101e26103f8366004610f49565b610a39565b348015610408575f80fd5b50610207600d5481565b34801561041d575f80fd5b506101ad610a46565b348015610431575f80fd5b5061034f610440366004610faa565b610a53565b348015610450575f80fd5b50600a546102ef906001600160a01b031681565b34801561046f575f80fd5b5061020761047e36600461101c565b6001600160a01b039182165f90815260016020908152604080832093909416825291909152205490565b3480156104b3575f80fd5b506101e26104c2366004611003565b610b0d565b3480156104d2575f80fd5b5061034f6104e1366004611003565b610b37565b6060600380546104f59061104d565b80601f01602080910402602001604051908101604052809291908181526020018280546105219061104d565b801561056c5780601f106105435761010080835404028352916020019161056c565b820191905f5260205f20905b81548152906001019060200180831161054f57829003601f168201915b5050505050905090565b5f33610583818585610b71565b60019150505b92915050565b5f3361059c858285610b83565b6105a7858585610bff565b506001949350505050565b600854335f90815260208190526040812054909111156106195760405162461bcd60e51b815260206004820152601a60248201527f496e73756666696369656e7420746f6b656e2062616c616e636500000000000060448201526064015b60405180910390fd5b6106263330600854610bff565b600c8054905f61063583611099565b9091555050600854604080519182526020820184905233917f9632c3bf697c32e051b2e203826012fd7a04fd38cc3166f6349db96ff7eb06fc910160405180910390a2506001919050565b6060805f805f60066007600854600c54600d5484805461069f9061104d565b80601f01602080910402602001604051908101604052809291908181526020018280546106cb9061104d565b80156107165780601f106106ed57610100808354040283529160200191610716565b820191905f5260205f20905b8154815290600101906020018083116106f957829003601f168201915b505050505094508380546107299061104d565b80601f01602080910402602001604051908101604052809291908181526020018280546107559061104d565b80156107a05780601f10610777576101008083540402835291602001916107a0565b820191905f5260205f20905b81548152906001019060200180831161078357829003601f168201915b50505050509350945094509450945094509091929394565b600780546107c59061104d565b80601f01602080910402602001604051908101604052809291908181526020018280546107f19061104d565b801561083c5780601f106108135761010080835404028352916020019161083c565b820191905f5260205f20905b81548152906001019060200180831161081f57829003601f168201915b505050505081565b61084c610c5c565b6108555f610c89565b565b5f81116108a65760405162461bcd60e51b815260206004820152601d60248201527f416d6f756e74206d7573742062652067726561746572207468616e20300000006044820152606401610610565b305f908152602081905260409020548111156109045760405162461bcd60e51b815260206004820152601b60248201527f4e6f7420656e6f75676820746f6b656e7320617661696c61626c6500000000006044820152606401610610565b61090f303383610bff565b50565b6060600480546104f59061104d565b610929610c5c565b5f6064600b5460085461093c91906110b1565b61094691906110c8565b90505f8160085461095791906110e7565b90508015610977576009546109779030906001600160a01b031683610bff565b811561099557600a546109959030906001600160a01b031684610bff565b600854600d5f8282546109a891906110fa565b90915550506040518381526001600160a01b038516907fe6e1218ed77a67a1ffe384349d426686653073b477f81b238b44612fd34860de9060200160405180910390a260095460408051838152602081018590526001600160a01b03909216917f23c66d89e0135aaea90eae0a65f26e5ce7b564834613ad71f4c7ff723354f13e910160405180910390a250505050565b5f33610583818585610bff565b600680546107c59061104d565b6009546001600160a01b0316331480610a7657506005546001600160a01b031633145b610ab95760405162461bcd60e51b815260206004820152601460248201527327b7363c9032bc3832b93a1037b91037bbb732b960611b6044820152606401610610565b5f8111610b085760405162461bcd60e51b815260206004820152601b60248201527f436f7374206d7573742062652067726561746572207468616e203000000000006044820152606401610610565b600855565b5f600854610b2f836001600160a01b03165f9081526020819052604090205490565b101592915050565b610b3f610c5c565b6001600160a01b038116610b6857604051631e4fbdf760e01b81525f6004820152602401610610565b61090f81610c89565b610b7e8383836001610cda565b505050565b6001600160a01b038381165f908152600160209081526040808320938616835292905220545f19811015610bf95781811015610beb57604051637dc7a0d960e11b81526001600160a01b03841660048201526024810182905260448101839052606401610610565b610bf984848484035f610cda565b50505050565b6001600160a01b038316610c2857604051634b637e8f60e11b81525f6004820152602401610610565b6001600160a01b038216610c515760405163ec442f0560e01b81525f6004820152602401610610565b610b7e838383610dac565b6005546001600160a01b031633146108555760405163118cdaa760e01b8152336004820152602401610610565b600580546001600160a01b038381166001600160a01b0319831681179093556040519116919082907f8be0079c531659141344cd1fd0a4f28419497f9722a3daafe3b4186f6b6457e0905f90a35050565b6001600160a01b038416610d035760405163e602df0560e01b81525f6004820152602401610610565b6001600160a01b038316610d2c57604051634a1406b160e11b81525f6004820152602401610610565b6001600160a01b038085165f9081526001602090815260408083209387168352929052208290558015610bf957826001600160a01b0316846001600160a01b03167f8c5be1e5ebec7d5bd14f71427d1e84f3dd0314c0f7b2291e5b200ac8c7c3b92584604051610d9e91815260200190565b60405180910390a350505050565b6001600160a01b038316610dd6578060025f828254610dcb91906110fa565b90915550610e469050565b6001600160a01b0383165f9081526020819052604090205481811015610e285760405163391434e360e21b81526001600160a01b03851660048201526024810182905260448101839052606401610610565b6001600160a01b0384165f9081526020819052604090209082900390555b6001600160a01b038216610e6257600280548290039055610e80565b6001600160a01b0382165f9081526020819052604090208054820190555b816001600160a01b0316836001600160a01b03167fddf252ad1be2c89b69c2b068fc378daa952ba7f163c4a11628f55a4df523b3ef83604051610ec591815260200190565b60405180910390a3505050565b5f81518084525f5b81811015610ef657602081850181015186830182015201610eda565b505f602082860101526020601f19601f83011685010191505092915050565b602081525f610f276020830184610ed2565b9392505050565b80356001600160a01b0381168114610f44575f80fd5b919050565b5f8060408385031215610f5a575f80fd5b610f6383610f2e565b946020939093013593505050565b5f805f60608486031215610f83575f80fd5b610f8c84610f2e565b9250610f9a60208501610f2e565b9150604084013590509250925092565b5f60208284031215610fba575f80fd5b5035919050565b60a081525f610fd360a0830188610ed2565b8281036020840152610fe58188610ed2565b60408401969096525050606081019290925260809091015292915050565b5f60208284031215611013575f80fd5b610f2782610f2e565b5f806040838503121561102d575f80fd5b61103683610f2e565b915061104460208401610f2e565b90509250929050565b600181811c9082168061106157607f821691505b60208210810361107f57634e487b7160e01b5f52602260045260245ffd5b50919050565b634e487b7160e01b5f52601160045260245ffd5b5f600182016110aa576110aa611085565b5060010190565b808202811582820484141761058957610589611085565b5f826110e257634e487b7160e01b5f52601260045260245ffd5b500490565b8181038181111561058957610589611085565b808201808211156105895761058961108556fea2646970667358221220b2b4e09384af5b5004367694672105b5b4a21a2864e458750e7c2d12514b523064736f6c63430008180033a26469706673582212208ad44888fa398a3a93b0677cb01d35ce2bcf6dae817de28494b1ba305b97485f64736f6c63430008180033","opcodes":"PUSH1 0x80 PUSH1 0x40 MSTORE CALLVALUE DUP1 ISZERO PUSH3 0x10 JUMPI PUSH0 DUP1 REVERT JUMPDEST POP PUSH1 0x40 MLOAD PUSH3 0x41CE CODESIZE SUB DUP1 PUSH3 0x41CE DUP4 CODECOPY DUP2 ADD PUSH1 0x40 DUP2 SWAP1 MSTORE PUSH3 0x33 SWAP2 PUSH3 0x133 JUMP JUMPDEST CALLER DUP1 PUSH3 0x5A JUMPI PUSH1 0x40 MLOAD PUSH4 0x1E4FBDF7 PUSH1 0xE0 SHL DUP2 MSTORE PUSH0 PUSH1 0x4 DUP3 ADD MSTORE PUSH1 0x24 ADD JUMPDEST PUSH1 0x40 MLOAD DUP1 SWAP2 SUB SWAP1 REVERT JUMPDEST PUSH3 0x65 DUP2 PUSH3 0xE4 JUMP JUMPDEST POP PUSH1 0x1 PUSH1 0x1 PUSH1 0xA0 SHL SUB DUP2 AND PUSH3 0xBE JUMPI PUSH1 0x40 MLOAD PUSH3 0x461BCD PUSH1 0xE5 SHL DUP2 MSTORE PUSH1 0x20 PUSH1 0x4 DUP3 ADD MSTORE PUSH1 0x1F PUSH1 0x24 DUP3 ADD MSTORE PUSH32 0x506C6174666F726D20616464726573732063616E6E6F74206265207A65726F00 PUSH1 0x44 DUP3 ADD MSTORE PUSH1 0x64 ADD PUSH3 0x51 JUMP JUMPDEST PUSH1 0x4 DUP1 SLOAD PUSH1 0x1 PUSH1 0x1 PUSH1 0xA0 SHL SUB NOT AND PUSH1 0x1 PUSH1 0x1 PUSH1 0xA0 SHL SUB SWAP3 SWAP1 SWAP3 AND SWAP2 SWAP1 SWAP2 OR SWAP1 SSTORE PUSH3 0x162 JUMP JUMPDEST PUSH0 DUP1 SLOAD PUSH1 0x1 PUSH1 0x1 PUSH1 0xA0 SHL SUB DUP4 DUP2 AND PUSH1 0x1 PUSH1 0x1 PUSH1 0xA0 SHL SUB NOT DUP4 AND DUP2 OR DUP5 SSTORE PUSH1 0x40 MLOAD SWAP2 SWAP1 SWAP3 AND SWAP3 DUP4 SWAP2 PUSH32 0x8BE0079C531659141344CD1FD0A4F28419497F9722A3DAAFE3B4186F6B6457E0 SWAP2 SWAP1 LOG3 POP POP JUMP JUMPDEST PUSH0 PUSH1 0x20 DUP3 DUP5 SUB SLT ISZERO PUSH3 0x144 JUMPI PUSH0 DUP1 REVERT JUMPDEST DUP2 MLOAD PUSH1 0x1 PUSH1 0x1 PUSH1 0xA0 SHL SUB DUP2 AND DUP2 EQ PUSH3 0x15B JUMPI PUSH0 DUP1 REVERT JUMPDEST SWAP4 SWAP3 POP POP POP JUMP JUMPDEST PUSH2 0x405E DUP1 PUSH3 0x170 PUSH0 CODECOPY PUSH0 RETURN INVALID PUSH1 0x80 PUSH1 0x40 MSTORE CALLVALUE DUP1 ISZERO PUSH3 0x10 JUMPI PUSH0 DUP1 REVERT JUMPDEST POP PUSH1 0x4 CALLDATASIZE LT PUSH3 0x110 JUMPI PUSH0 CALLDATALOAD PUSH1 0xE0 SHR DUP1 PUSH4 0x8F9F193F GT PUSH3 0x9F JUMPI DUP1 PUSH4 0xCA0B2C89 GT PUSH3 0x6B JUMPI DUP1 PUSH4 0xCA0B2C89 EQ PUSH3 0x270 JUMPI DUP1 PUSH4 0xD4A7737F EQ PUSH3 0x287 JUMPI DUP1 PUSH4 0xDBE55E56 EQ PUSH3 0x29E JUMPI DUP1 PUSH4 0xF2FDE38B EQ PUSH3 0x2B2 JUMPI PUSH0 DUP1 REVERT JUMPDEST DUP1 PUSH4 0x8F9F193F EQ PUSH3 0x1FE JUMPI DUP1 PUSH4 0xB6211DBF EQ PUSH3 0x215 JUMPI DUP1 PUSH4 0xB733B94D EQ PUSH3 0x23B JUMPI DUP1 PUSH4 0xB7366EE9 EQ PUSH3 0x259 JUMPI PUSH0 DUP1 REVERT JUMPDEST DUP1 PUSH4 0x715018A6 GT PUSH3 0xDF JUMPI DUP1 PUSH4 0x715018A6 EQ PUSH3 0x19C JUMPI DUP1 PUSH4 0x79050A01 EQ PUSH3 0x1A6 JUMPI DUP1 PUSH4 0x831480FB EQ PUSH3 0x1BD JUMPI DUP1 PUSH4 0x8DA5CB5B EQ PUSH3 0x1ED JUMPI PUSH0 DUP1 REVERT JUMPDEST DUP1 PUSH4 0xBA36121 EQ PUSH3 0x114 JUMPI DUP1 PUSH4 0xF405AF4 EQ PUSH3 0x143 JUMPI DUP1 PUSH4 0x1DD5F760 EQ PUSH3 0x155 JUMPI DUP1 PUSH4 0x2E7E2156 EQ PUSH3 0x183 JUMPI JUMPDEST PUSH0 DUP1 REVERT JUMPDEST PUSH3 0x12B PUSH3 0x125 CALLDATASIZE PUSH1 0x4 PUSH3 0x1CB0 JUMP JUMPDEST PUSH3 0x2C9 JUMP JUMPDEST PUSH1 0x40 MLOAD PUSH3 0x13A SWAP2 SWAP1 PUSH3 0x1D24 JUMP JUMPDEST PUSH1 0x40 MLOAD DUP1 SWAP2 SUB SWAP1 RETURN JUMPDEST PUSH1 0x3 SLOAD PUSH1 0x40 MLOAD SWAP1 DUP2 MSTORE PUSH1 0x20 ADD PUSH3 0x13A JUMP JUMPDEST PUSH3 0x16C PUSH3 0x166 CALLDATASIZE PUSH1 0x4 PUSH3 0x1DF1 JUMP JUMPDEST PUSH3 0x368 JUMP JUMPDEST PUSH1 0x40 MLOAD PUSH3 0x13A SWAP10 SWAP9 SWAP8 SWAP7 SWAP6 SWAP5 SWAP4 SWAP3 SWAP2 SWAP1 PUSH3 0x1E2E JUMP JUMPDEST PUSH3 0x19A PUSH3 0x194 CALLDATASIZE PUSH1 0x4 PUSH3 0x203C JUMP JUMPDEST PUSH3 0x583 JUMP JUMPDEST STOP JUMPDEST PUSH3 0x19A PUSH3 0x737 JUMP JUMPDEST PUSH3 0x19A PUSH3 0x1B7 CALLDATASIZE PUSH1 0x4 PUSH3 0x2114 JUMP JUMPDEST PUSH3 0x74E JUMP JUMPDEST PUSH3 0x1D4 PUSH3 0x1CE CALLDATASIZE PUSH1 0x4 PUSH3 0x216B JUMP JUMPDEST PUSH3 0x879 JUMP JUMPDEST PUSH1 0x40 MLOAD PUSH1 0x1 PUSH1 0x1 PUSH1 0xA0 SHL SUB SWAP1 SWAP2 AND DUP2 MSTORE PUSH1 0x20 ADD PUSH3 0x13A JUMP JUMPDEST PUSH0 SLOAD PUSH1 0x1 PUSH1 0x1 PUSH1 0xA0 SHL SUB AND PUSH3 0x1D4 JUMP JUMPDEST PUSH3 0x19A PUSH3 0x20F CALLDATASIZE PUSH1 0x4 PUSH3 0x1CB0 JUMP JUMPDEST PUSH3 0xCC7 JUMP JUMPDEST PUSH3 0x22C PUSH3 0x226 CALLDATASIZE PUSH1 0x4 PUSH3 0x1DF1 JUMP JUMPDEST PUSH3 0xD4B JUMP JUMPDEST PUSH1 0x40 MLOAD PUSH3 0x13A SWAP2 SWAP1 PUSH3 0x2212 JUMP JUMPDEST PUSH3 0x245 PUSH3 0xFF8 JUMP JUMPDEST PUSH1 0x40 MLOAD PUSH3 0x13A SWAP7 SWAP6 SWAP5 SWAP4 SWAP3 SWAP2 SWAP1 PUSH3 0x23AE JUMP JUMPDEST PUSH3 0x12B PUSH3 0x26A CALLDATASIZE PUSH1 0x4 PUSH3 0x246A JUMP JUMPDEST PUSH3 0x15EE JUMP JUMPDEST PUSH3 0x19A PUSH3 0x281 CALLDATASIZE PUSH1 0x4 PUSH3 0x2482 JUMP JUMPDEST PUSH3 0x1618 JUMP JUMPDEST PUSH3 0x22C PUSH3 0x298 CALLDATASIZE PUSH1 0x4 PUSH3 0x1CB0 JUMP JUMPDEST PUSH3 0x1812 JUMP JUMPDEST PUSH1 0x4 SLOAD PUSH3 0x1D4 SWAP1 PUSH1 0x1 PUSH1 0x1 PUSH1 0xA0 SHL SUB AND DUP2 JUMP JUMPDEST PUSH3 0x19A PUSH3 0x2C3 CALLDATASIZE PUSH1 0x4 PUSH3 0x1CB0 JUMP JUMPDEST PUSH3 0x1B57 JUMP JUMPDEST PUSH1 0x2 PUSH1 0x20 MSTORE PUSH0 SWAP1 DUP2 MSTORE PUSH1 0x40 SWAP1 KECCAK256 DUP1 SLOAD PUSH3 0x2E3 SWAP1 PUSH3 0x24C7 JUMP JUMPDEST DUP1 PUSH1 0x1F ADD PUSH1 0x20 DUP1 SWAP2 DIV MUL PUSH1 0x20 ADD PUSH1 0x40 MLOAD SWAP1 DUP2 ADD PUSH1 0x40 MSTORE DUP1 SWAP3 SWAP2 SWAP1 DUP2 DUP2 MSTORE PUSH1 0x20 ADD DUP3 DUP1 SLOAD PUSH3 0x311 SWAP1 PUSH3 0x24C7 JUMP JUMPDEST DUP1 ISZERO PUSH3 0x360 JUMPI DUP1 PUSH1 0x1F LT PUSH3 0x336 JUMPI PUSH2 0x100 DUP1 DUP4 SLOAD DIV MUL DUP4 MSTORE SWAP2 PUSH1 0x20 ADD SWAP2 PUSH3 0x360 JUMP JUMPDEST DUP3 ADD SWAP2 SWAP1 PUSH0 MSTORE PUSH1 0x20 PUSH0 KECCAK256 SWAP1 JUMPDEST DUP2 SLOAD DUP2 MSTORE SWAP1 PUSH1 0x1 ADD SWAP1 PUSH1 0x20 ADD DUP1 DUP4 GT PUSH3 0x342 JUMPI DUP3 SWAP1 SUB PUSH1 0x1F AND DUP3 ADD SWAP2 JUMPDEST POP POP POP POP POP DUP2 JUMP JUMPDEST DUP1 MLOAD PUSH1 0x20 DUP2 DUP4 ADD DUP2 ADD DUP1 MLOAD PUSH1 0x1 DUP1 DUP4 MSTORE SWAP4 DUP4 ADD SWAP3 SWAP1 SWAP5 ADD SWAP2 SWAP1 SWAP2 KECCAK256 SWAP3 SWAP1 MSTORE DUP2 SLOAD SWAP1 DUP3 ADD DUP1 SLOAD PUSH1 0x1 PUSH1 0x1 PUSH1 0xA0 SHL SUB SWAP1 SWAP3 AND SWAP3 SWAP2 PUSH3 0x3A5 SWAP1 PUSH3 0x24C7 JUMP JUMPDEST DUP1 PUSH1 0x1F ADD PUSH1 0x20 DUP1 SWAP2 DIV MUL PUSH1 0x20 ADD PUSH1 0x40 MLOAD SWAP1 DUP2 ADD PUSH1 0x40 MSTORE DUP1 SWAP3 SWAP2 SWAP1 DUP2 DUP2 MSTORE PUSH1 0x20 ADD DUP3 DUP1 SLOAD PUSH3 0x3D3 SWAP1 PUSH3 0x24C7 JUMP JUMPDEST DUP1 ISZERO PUSH3 0x422 JUMPI DUP1 PUSH1 0x1F LT PUSH3 0x3F8 JUMPI PUSH2 0x100 DUP1 DUP4 SLOAD DIV MUL DUP4 MSTORE SWAP2 PUSH1 0x20 ADD SWAP2 PUSH3 0x422 JUMP JUMPDEST DUP3 ADD SWAP2 SWAP1 PUSH0 MSTORE PUSH1 0x20 PUSH0 KECCAK256 SWAP1 JUMPDEST DUP2 SLOAD DUP2 MSTORE SWAP1 PUSH1 0x1 ADD SWAP1 PUSH1 0x20 ADD DUP1 DUP4 GT PUSH3 0x404 JUMPI DUP3 SWAP1 SUB PUSH1 0x1F AND DUP3 ADD SWAP2 JUMPDEST POP POP POP POP POP SWAP1 DUP1 PUSH1 0x2 ADD DUP1 SLOAD PUSH3 0x439 SWAP1 PUSH3 0x24C7 JUMP JUMPDEST DUP1 PUSH1 0x1F ADD PUSH1 0x20 DUP1 SWAP2 DIV MUL PUSH1 0x20 ADD PUSH1 0x40 MLOAD SWAP1 DUP2 ADD PUSH1 0x40 MSTORE DUP1 SWAP3 SWAP2 SWAP1 DUP2 DUP2 MSTORE PUSH1 0x20 ADD DUP3 DUP1 SLOAD PUSH3 0x467 SWAP1 PUSH3 0x24C7 JUMP JUMPDEST DUP1 ISZERO PUSH3 0x4B6 JUMPI DUP1 PUSH1 0x1F LT PUSH3 0x48C JUMPI PUSH2 0x100 DUP1 DUP4 SLOAD DIV MUL DUP4 MSTORE SWAP2 PUSH1 0x20 ADD SWAP2 PUSH3 0x4B6 JUMP JUMPDEST DUP3 ADD SWAP2 SWAP1 PUSH0 MSTORE PUSH1 0x20 PUSH0 KECCAK256 SWAP1 JUMPDEST DUP2 SLOAD DUP2 MSTORE SWAP1 PUSH1 0x1 ADD SWAP1 PUSH1 0x20 ADD DUP1 DUP4 GT PUSH3 0x498 JUMPI DUP3 SWAP1 SUB PUSH1 0x1F AND DUP3 ADD SWAP2 JUMPDEST POP POP POP POP POP SWAP1 DUP1 PUSH1 0x3 ADD DUP1 SLOAD PUSH3 0x4CD SWAP1 PUSH3 0x24C7 JUMP JUMPDEST DUP1 PUSH1 0x1F ADD PUSH1 0x20 DUP1 SWAP2 DIV MUL PUSH1 0x20 ADD PUSH1 0x40 MLOAD SWAP1 DUP2 ADD PUSH1 0x40 MSTORE DUP1 SWAP3 SWAP2 SWAP1 DUP2 DUP2 MSTORE PUSH1 0x20 ADD DUP3 DUP1 SLOAD PUSH3 0x4FB SWAP1 PUSH3 0x24C7 JUMP JUMPDEST DUP1 ISZERO PUSH3 0x54A JUMPI DUP1 PUSH1 0x1F LT PUSH3 0x520 JUMPI PUSH2 0x100 DUP1 DUP4 SLOAD DIV MUL DUP4 MSTORE SWAP2 PUSH1 0x20 ADD SWAP2 PUSH3 0x54A JUMP JUMPDEST DUP3 ADD SWAP2 SWAP1 PUSH0 MSTORE PUSH1 0x20 PUSH0 KECCAK256 SWAP1 JUMPDEST DUP2 SLOAD DUP2 MSTORE SWAP1 PUSH1 0x1 ADD SWAP1 PUSH1 0x20 ADD DUP1 DUP4 GT PUSH3 0x52C JUMPI DUP3 SWAP1 SUB PUSH1 0x1F AND DUP3 ADD SWAP2 JUMPDEST POP POP POP POP PUSH1 0x4 DUP4 ADD SLOAD PUSH1 0x5 DUP5 ADD SLOAD PUSH1 0x6 DUP6 ADD SLOAD PUSH1 0x7 SWAP1 SWAP6 ADD SLOAD SWAP4 SWAP5 SWAP2 SWAP4 PUSH1 0x1 PUSH1 0x1 PUSH1 0xA0 SHL SUB DUP3 AND SWAP4 POP PUSH1 0x1 PUSH1 0xA0 SHL SWAP1 SWAP2 DIV PUSH1 0xFF AND SWAP2 SWAP1 DUP10 JUMP JUMPDEST PUSH3 0x58D PUSH3 0x1B9A JUMP JUMPDEST DUP4 MLOAD DUP6 MLOAD EQ PUSH3 0x5BA JUMPI PUSH1 0x40 MLOAD PUSH3 0x461BCD PUSH1 0xE5 SHL DUP2 MSTORE PUSH1 0x4 ADD PUSH3 0x5B1 SWAP1 PUSH3 0x2501 JUMP JUMPDEST PUSH1 0x40 MLOAD DUP1 SWAP2 SUB SWAP1 REVERT JUMPDEST DUP3 MLOAD DUP6 MLOAD EQ PUSH3 0x5DE JUMPI PUSH1 0x40 MLOAD PUSH3 0x461BCD PUSH1 0xE5 SHL DUP2 MSTORE PUSH1 0x4 ADD PUSH3 0x5B1 SWAP1 PUSH3 0x2501 JUMP JUMPDEST DUP2 MLOAD DUP6 MLOAD EQ PUSH3 0x602 JUMPI PUSH1 0x40 MLOAD PUSH3 0x461BCD PUSH1 0xE5 SHL DUP2 MSTORE PUSH1 0x4 ADD PUSH3 0x5B1 SWAP1 PUSH3 0x2501 JUMP JUMPDEST DUP1 MLOAD DUP6 MLOAD EQ PUSH3 0x626 JUMPI PUSH1 0x40 MLOAD PUSH3 0x461BCD PUSH1 0xE5 SHL DUP2 MSTORE PUSH1 0x4 ADD PUSH3 0x5B1 SWAP1 PUSH3 0x2501 JUMP JUMPDEST PUSH0 JUMPDEST DUP6 MLOAD DUP2 LT ISZERO PUSH3 0x72F JUMPI PUSH0 PUSH1 0x1 PUSH1 0x1 PUSH1 0xA0 SHL SUB AND PUSH1 0x1 DUP7 DUP4 DUP2 MLOAD DUP2 LT PUSH3 0x653 JUMPI PUSH3 0x653 PUSH3 0x2530 JUMP JUMPDEST PUSH1 0x20 MUL PUSH1 0x20 ADD ADD MLOAD PUSH1 0x40 MLOAD PUSH3 0x66A SWAP2 SWAP1 PUSH3 0x2544 JUMP JUMPDEST SWAP1 DUP2 MSTORE PUSH1 0x40 MLOAD SWAP1 DUP2 SWAP1 SUB PUSH1 0x20 ADD SWAP1 KECCAK256 SLOAD PUSH1 0x1 PUSH1 0x1 PUSH1 0xA0 SHL SUB AND SUB PUSH3 0x726 JUMPI PUSH3 0x724 DUP7 DUP3 DUP2 MLOAD DUP2 LT PUSH3 0x6A2 JUMPI PUSH3 0x6A2 PUSH3 0x2530 JUMP JUMPDEST PUSH1 0x20 MUL PUSH1 0x20 ADD ADD MLOAD DUP7 DUP4 DUP2 MLOAD DUP2 LT PUSH3 0x6BF JUMPI PUSH3 0x6BF PUSH3 0x2530 JUMP JUMPDEST PUSH1 0x20 MUL PUSH1 0x20 ADD ADD MLOAD DUP7 DUP5 DUP2 MLOAD DUP2 LT PUSH3 0x6DC JUMPI PUSH3 0x6DC PUSH3 0x2530 JUMP JUMPDEST PUSH1 0x20 MUL PUSH1 0x20 ADD ADD MLOAD DUP7 DUP6 DUP2 MLOAD DUP2 LT PUSH3 0x6F9 JUMPI PUSH3 0x6F9 PUSH3 0x2530 JUMP JUMPDEST PUSH1 0x20 MUL PUSH1 0x20 ADD ADD MLOAD DUP7 DUP7 DUP2 MLOAD DUP2 LT PUSH3 0x716 JUMPI PUSH3 0x716 PUSH3 0x2530 JUMP JUMPDEST PUSH1 0x20 MUL PUSH1 0x20 ADD ADD MLOAD PUSH3 0x1BC8 JUMP JUMPDEST POP JUMPDEST PUSH1 0x1 ADD PUSH3 0x628 JUMP JUMPDEST POP POP POP POP POP POP JUMP JUMPDEST PUSH3 0x741 PUSH3 0x1B9A JUMP JUMPDEST PUSH3 0x74C PUSH0 PUSH3 0x1BDD JUMP JUMPDEST JUMP JUMPDEST PUSH3 0x758 PUSH3 0x1B9A JUMP JUMPDEST PUSH0 PUSH1 0x1 PUSH1 0x1 PUSH1 0xA0 SHL SUB AND PUSH1 0x1 DUP4 PUSH1 0x40 MLOAD PUSH3 0x774 SWAP2 SWAP1 PUSH3 0x2544 JUMP JUMPDEST SWAP1 DUP2 MSTORE PUSH1 0x40 MLOAD SWAP1 DUP2 SWAP1 SUB PUSH1 0x20 ADD SWAP1 KECCAK256 SLOAD PUSH1 0x1 PUSH1 0x1 PUSH1 0xA0 SHL SUB AND SUB PUSH3 0x7AD JUMPI PUSH1 0x40 MLOAD PUSH3 0x461BCD PUSH1 0xE5 SHL DUP2 MSTORE PUSH1 0x4 ADD PUSH3 0x5B1 SWAP1 PUSH3 0x2561 JUMP JUMPDEST DUP1 PUSH1 0x1 DUP4 PUSH1 0x40 MLOAD PUSH3 0x7C0 SWAP2 SWAP1 PUSH3 0x2544 JUMP JUMPDEST SWAP1 DUP2 MSTORE PUSH1 0x40 MLOAD SWAP1 DUP2 SWAP1 SUB PUSH1 0x20 ADD SWAP1 KECCAK256 PUSH1 0x5 ADD DUP1 SLOAD SWAP2 ISZERO ISZERO PUSH1 0x1 PUSH1 0xA0 SHL MUL PUSH1 0xFF PUSH1 0xA0 SHL NOT SWAP1 SWAP3 AND SWAP2 SWAP1 SWAP2 OR SWAP1 SSTORE DUP1 ISZERO PUSH3 0x836 JUMPI DUP2 PUSH1 0x40 MLOAD PUSH3 0x803 SWAP2 SWAP1 PUSH3 0x2544 JUMP JUMPDEST PUSH1 0x40 MLOAD SWAP1 DUP2 SWAP1 SUB DUP2 KECCAK256 SWAP1 PUSH32 0x3CDB38DD99698F430F7C26A3DEA2E7C55D6795F25ED95E4831B242DE88D0D8C7 SWAP1 PUSH0 SWAP1 LOG2 POP POP JUMP JUMPDEST DUP2 PUSH1 0x40 MLOAD PUSH3 0x846 SWAP2 SWAP1 PUSH3 0x2544 JUMP JUMPDEST PUSH1 0x40 MLOAD SWAP1 DUP2 SWAP1 SUB DUP2 KECCAK256 SWAP1 PUSH32 0x77A4B755B97A67075D9524772F60A4F23171395B2227F0ED454B76428FE8CA90 SWAP1 PUSH0 SWAP1 LOG2 POP POP JUMP JUMPDEST PUSH0 PUSH3 0x884 PUSH3 0x1B9A JUMP JUMPDEST PUSH0 DUP7 MLOAD GT PUSH3 0x8CD JUMPI PUSH1 0x40 MLOAD PUSH3 0x461BCD PUSH1 0xE5 SHL DUP2 MSTORE PUSH1 0x20 PUSH1 0x4 DUP3 ADD MSTORE PUSH1 0x14 PUSH1 0x24 DUP3 ADD MSTORE PUSH20 0x4E616D652063616E6E6F7420626520656D707479 PUSH1 0x60 SHL PUSH1 0x44 DUP3 ADD MSTORE PUSH1 0x64 ADD PUSH3 0x5B1 JUMP JUMPDEST PUSH0 DUP6 MLOAD GT PUSH3 0x918 JUMPI PUSH1 0x40 MLOAD PUSH3 0x461BCD PUSH1 0xE5 SHL DUP2 MSTORE PUSH1 0x20 PUSH1 0x4 DUP3 ADD MSTORE PUSH1 0x16 PUSH1 0x24 DUP3 ADD MSTORE PUSH22 0x53796D626F6C2063616E6E6F7420626520656D707479 PUSH1 0x50 SHL PUSH1 0x44 DUP3 ADD MSTORE PUSH1 0x64 ADD PUSH3 0x5B1 JUMP JUMPDEST PUSH0 DUP4 GT PUSH3 0x979 JUMPI PUSH1 0x40 MLOAD PUSH3 0x461BCD PUSH1 0xE5 SHL DUP2 MSTORE PUSH1 0x20 PUSH1 0x4 DUP3 ADD MSTORE PUSH1 0x27 PUSH1 0x24 DUP3 ADD MSTORE PUSH32 0x546F6B656E7320706572207175657279206D7573742062652067726561746572 PUSH1 0x44 DUP3 ADD MSTORE PUSH7 0x207468616E203 PUSH1 0xCC SHL PUSH1 0x64 DUP3 ADD MSTORE PUSH1 0x84 ADD PUSH3 0x5B1 JUMP JUMPDEST PUSH1 0x1 PUSH1 0x1 PUSH1 0xA0 SHL SUB DUP3 AND PUSH3 0x9D1 JUMPI PUSH1 0x40 MLOAD PUSH3 0x461BCD PUSH1 0xE5 SHL DUP2 MSTORE PUSH1 0x20 PUSH1 0x4 DUP3 ADD MSTORE PUSH1 0x1D PUSH1 0x24 DUP3 ADD MSTORE PUSH32 0x45787065727420616464726573732063616E6E6F74206265207A65726F000000 PUSH1 0x44 DUP3 ADD MSTORE PUSH1 0x64 ADD PUSH3 0x5B1 JUMP JUMPDEST PUSH0 PUSH1 0x1 PUSH1 0x1 PUSH1 0xA0 SHL SUB AND PUSH1 0x1 DUP7 PUSH1 0x40 MLOAD PUSH3 0x9ED SWAP2 SWAP1 PUSH3 0x2544 JUMP JUMPDEST SWAP1 DUP2 MSTORE PUSH1 0x40 MLOAD SWAP1 DUP2 SWAP1 SUB PUSH1 0x20 ADD SWAP1 KECCAK256 SLOAD PUSH1 0x1 PUSH1 0x1 PUSH1 0xA0 SHL SUB AND EQ PUSH3 0xA4D JUMPI PUSH1 0x40 MLOAD PUSH3 0x461BCD PUSH1 0xE5 SHL DUP2 MSTORE PUSH1 0x20 PUSH1 0x4 DUP3 ADD MSTORE PUSH1 0x15 PUSH1 0x24 DUP3 ADD MSTORE PUSH21 0x45787065727420616C726561647920657869737473 PUSH1 0x58 SHL PUSH1 0x44 DUP3 ADD MSTORE PUSH1 0x64 ADD PUSH3 0x5B1 JUMP JUMPDEST PUSH0 DUP7 PUSH1 0x40 MLOAD PUSH1 0x20 ADD PUSH3 0xA61 SWAP2 SWAP1 PUSH3 0x2590 JUMP JUMPDEST PUSH1 0x40 MLOAD PUSH1 0x20 DUP2 DUP4 SUB SUB DUP2 MSTORE SWAP1 PUSH1 0x40 MSTORE SWAP1 POP PUSH0 DUP2 DUP8 DUP10 DUP9 DUP9 DUP9 PUSH1 0x4 PUSH0 SWAP1 SLOAD SWAP1 PUSH2 0x100 EXP SWAP1 DIV PUSH1 0x1 PUSH1 0x1 PUSH1 0xA0 SHL SUB AND PUSH1 0x40 MLOAD PUSH3 0xA9C SWAP1 PUSH3 0x1C2C JUMP JUMPDEST PUSH3 0xAAE SWAP8 SWAP7 SWAP6 SWAP5 SWAP4 SWAP3 SWAP2 SWAP1 PUSH3 0x25D4 JUMP JUMPDEST PUSH1 0x40 MLOAD DUP1 SWAP2 SUB SWAP1 PUSH0 CREATE DUP1 ISZERO DUP1 ISZERO PUSH3 0xAC8 JUMPI RETURNDATASIZE PUSH0 DUP1 RETURNDATACOPY RETURNDATASIZE PUSH0 REVERT JUMPDEST POP SWAP1 POP PUSH0 DUP2 SWAP1 POP PUSH1 0x40 MLOAD DUP1 PUSH2 0x120 ADD PUSH1 0x40 MSTORE DUP1 DUP3 PUSH1 0x1 PUSH1 0x1 PUSH1 0xA0 SHL SUB AND DUP2 MSTORE PUSH1 0x20 ADD DUP11 DUP2 MSTORE PUSH1 0x20 ADD DUP10 DUP2 MSTORE PUSH1 0x20 ADD DUP9 DUP2 MSTORE PUSH1 0x20 ADD DUP8 DUP2 MSTORE PUSH1 0x20 ADD DUP7 PUSH1 0x1 PUSH1 0x1 PUSH1 0xA0 SHL SUB AND DUP2 MSTORE PUSH1 0x20 ADD PUSH1 0x1 ISZERO ISZERO DUP2 MSTORE PUSH1 0x20 ADD PUSH0 DUP2 MSTORE PUSH1 0x20 ADD PUSH0 DUP2 MSTORE POP PUSH1 0x1 DUP10 PUSH1 0x40 MLOAD PUSH3 0xB36 SWAP2 SWAP1 PUSH3 0x2544 JUMP JUMPDEST SWAP1 DUP2 MSTORE PUSH1 0x40 MLOAD PUSH1 0x20 SWAP2 DUP2 SWAP1 SUB DUP3 ADD SWAP1 KECCAK256 DUP3 MLOAD DUP2 SLOAD PUSH1 0x1 PUSH1 0x1 PUSH1 0xA0 SHL SUB NOT AND PUSH1 0x1 PUSH1 0x1 PUSH1 0xA0 SHL SUB SWAP1 SWAP2 AND OR DUP2 SSTORE SWAP1 DUP3 ADD MLOAD PUSH1 0x1 DUP3 ADD SWAP1 PUSH3 0xB77 SWAP1 DUP3 PUSH3 0x26A2 JUMP JUMPDEST POP PUSH1 0x40 DUP3 ADD MLOAD PUSH1 0x2 DUP3 ADD SWAP1 PUSH3 0xB8E SWAP1 DUP3 PUSH3 0x26A2 JUMP JUMPDEST POP PUSH1 0x60 DUP3 ADD MLOAD PUSH1 0x3 DUP3 ADD SWAP1 PUSH3 0xBA5 SWAP1 DUP3 PUSH3 0x26A2 JUMP JUMPDEST POP PUSH1 0x80 DUP3 ADD MLOAD PUSH1 0x4 DUP3 ADD SSTORE PUSH1 0xA0 DUP3 ADD MLOAD PUSH1 0x5 DUP3 ADD DUP1 SLOAD PUSH1 0xC0 DUP6 ADD MLOAD ISZERO ISZERO PUSH1 0x1 PUSH1 0xA0 SHL MUL PUSH1 0x1 PUSH1 0x1 PUSH1 0xA8 SHL SUB NOT SWAP1 SWAP2 AND PUSH1 0x1 PUSH1 0x1 PUSH1 0xA0 SHL SUB SWAP4 DUP5 AND OR OR SWAP1 SSTORE PUSH1 0xE0 DUP4 ADD MLOAD PUSH1 0x6 DUP4 ADD SSTORE PUSH2 0x100 SWAP1 SWAP3 ADD MLOAD PUSH1 0x7 SWAP1 SWAP2 ADD SSTORE DUP2 AND PUSH0 SWAP1 DUP2 MSTORE PUSH1 0x2 PUSH1 0x20 MSTORE PUSH1 0x40 SWAP1 KECCAK256 PUSH3 0xC15 DUP10 DUP3 PUSH3 0x26A2 JUMP JUMPDEST POP PUSH1 0x3 DUP1 SLOAD PUSH1 0x1 DUP2 ADD DUP3 SSTORE PUSH0 SWAP2 SWAP1 SWAP2 MSTORE PUSH32 0xC2575A0E9E593C00F959F8C92F12DB2869C3395A3B0502D05E2516446F71F85B ADD PUSH3 0xC53 DUP10 DUP3 PUSH3 0x26A2 JUMP JUMPDEST POP DUP5 PUSH1 0x1 PUSH1 0x1 PUSH1 0xA0 SHL SUB AND DUP2 PUSH1 0x1 PUSH1 0x1 PUSH1 0xA0 SHL SUB AND DUP10 PUSH1 0x40 MLOAD PUSH3 0xC78 SWAP2 SWAP1 PUSH3 0x2544 JUMP JUMPDEST PUSH1 0x40 MLOAD DUP1 SWAP2 SUB SWAP1 KECCAK256 PUSH32 0x30ED4D9E7C7FBE967FB0F82B79CCEB9085F9BB05672899B777F3DECC0B5BA9FB DUP13 DUP11 PUSH1 0x40 MLOAD PUSH3 0xCB3 SWAP3 SWAP2 SWAP1 PUSH3 0x276A JUMP JUMPDEST PUSH1 0x40 MLOAD DUP1 SWAP2 SUB SWAP1 LOG4 SWAP9 SWAP8 POP POP POP POP POP POP POP POP JUMP JUMPDEST PUSH3 0xCD1 PUSH3 0x1B9A JUMP JUMPDEST PUSH1 0x1 PUSH1 0x1 PUSH1 0xA0 SHL SUB DUP2 AND PUSH3 0xD29 JUMPI PUSH1 0x40 MLOAD PUSH3 0x461BCD PUSH1 0xE5 SHL DUP2 MSTORE PUSH1 0x20 PUSH1 0x4 DUP3 ADD MSTORE PUSH1 0x1F PUSH1 0x24 DUP3 ADD MSTORE PUSH32 0x506C6174666F726D20616464726573732063616E6E6F74206265207A65726F00 PUSH1 0x44 DUP3 ADD MSTORE PUSH1 0x64 ADD PUSH3 0x5B1 JUMP JUMPDEST PUSH1 0x4 DUP1 SLOAD PUSH1 0x1 PUSH1 0x1 PUSH1 0xA0 SHL SUB NOT AND PUSH1 0x1 PUSH1 0x1 PUSH1 0xA0 SHL SUB SWAP3 SWAP1 SWAP3 AND SWAP2 SWAP1 SWAP2 OR SWAP1 SSTORE JUMP JUMPDEST PUSH3 0xD55 PUSH3 0x1C3A JUMP JUMPDEST PUSH0 PUSH1 0x1 PUSH1 0x1 PUSH1 0xA0 SHL SUB AND PUSH1 0x1 DUP4 PUSH1 0x40 MLOAD PUSH3 0xD71 SWAP2 SWAP1 PUSH3 0x2544 JUMP JUMPDEST SWAP1 DUP2 MSTORE PUSH1 0x40 MLOAD SWAP1 DUP2 SWAP1 SUB PUSH1 0x20 ADD SWAP1 KECCAK256 SLOAD PUSH1 0x1 PUSH1 0x1 PUSH1 0xA0 SHL SUB AND SUB PUSH3 0xDAA JUMPI PUSH1 0x40 MLOAD PUSH3 0x461BCD PUSH1 0xE5 SHL DUP2 MSTORE PUSH1 0x4 ADD PUSH3 0x5B1 SWAP1 PUSH3 0x2561 JUMP JUMPDEST PUSH1 0x1 DUP3 PUSH1 0x40 MLOAD PUSH3 0xDBC SWAP2 SWAP1 PUSH3 0x2544 JUMP JUMPDEST SWAP1 DUP2 MSTORE PUSH1 0x40 DUP1 MLOAD SWAP2 DUP3 SWAP1 SUB PUSH1 0x20 SWAP1 DUP2 ADD DUP4 KECCAK256 PUSH2 0x120 DUP5 ADD SWAP1 SWAP3 MSTORE DUP2 SLOAD PUSH1 0x1 PUSH1 0x1 PUSH1 0xA0 SHL SUB AND DUP4 MSTORE PUSH1 0x1 DUP3 ADD DUP1 SLOAD SWAP2 DUP5 ADD SWAP2 PUSH3 0xDF8 SWAP1 PUSH3 0x24C7 JUMP JUMPDEST DUP1 PUSH1 0x1F ADD PUSH1 0x20 DUP1 SWAP2 DIV MUL PUSH1 0x20 ADD PUSH1 0x40 MLOAD SWAP1 DUP2 ADD PUSH1 0x40 MSTORE DUP1 SWAP3 SWAP2 SWAP1 DUP2 DUP2 MSTORE PUSH1 0x20 ADD DUP3 DUP1 SLOAD PUSH3 0xE26 SWAP1 PUSH3 0x24C7 JUMP JUMPDEST DUP1 ISZERO PUSH3 0xE75 JUMPI DUP1 PUSH1 0x1F LT PUSH3 0xE4B JUMPI PUSH2 0x100 DUP1 DUP4 SLOAD DIV MUL DUP4 MSTORE SWAP2 PUSH1 0x20 ADD SWAP2 PUSH3 0xE75 JUMP JUMPDEST DUP3 ADD SWAP2 SWAP1 PUSH0 MSTORE PUSH1 0x20 PUSH0 KECCAK256 SWAP1 JUMPDEST DUP2 SLOAD DUP2 MSTORE SWAP1 PUSH1 0x1 ADD SWAP1 PUSH1 0x20 ADD DUP1 DUP4 GT PUSH3 0xE57 JUMPI DUP3 SWAP1 SUB PUSH1 0x1F AND DUP3 ADD SWAP2 JUMPDEST POP POP POP POP POP DUP2 MSTORE PUSH1 0x20 ADD PUSH1 0x2 DUP3 ADD DUP1 SLOAD PUSH3 0xE90 SWAP1 PUSH3 0x24C7 JUMP JUMPDEST DUP1 PUSH1 0x1F ADD PUSH1 0x20 DUP1 SWAP2 DIV MUL PUSH1 0x20 ADD PUSH1 0x40 MLOAD SWAP1 DUP2 ADD PUSH1 0x40 MSTORE DUP1 SWAP3 SWAP2 SWAP1 DUP2 DUP2 MSTORE PUSH1 0x20 ADD DUP3 DUP1 SLOAD PUSH3 0xEBE SWAP1 PUSH3 0x24C7 JUMP JUMPDEST DUP1 ISZERO PUSH3 0xF0D JUMPI DUP1 PUSH1 0x1F LT PUSH3 0xEE3 JUMPI PUSH2 0x100 DUP1 DUP4 SLOAD DIV MUL DUP4 MSTORE SWAP2 PUSH1 0x20 ADD SWAP2 PUSH3 0xF0D JUMP JUMPDEST DUP3 ADD SWAP2 SWAP1 PUSH0 MSTORE PUSH1 0x20 PUSH0 KECCAK256 SWAP1 JUMPDEST DUP2 SLOAD DUP2 MSTORE SWAP1 PUSH1 0x1 ADD SWAP1 PUSH1 0x20 ADD DUP1 DUP4 GT PUSH3 0xEEF JUMPI DUP3 SWAP1 SUB PUSH1 0x1F AND DUP3 ADD SWAP2 JUMPDEST POP POP POP POP POP DUP2 MSTORE PUSH1 0x20 ADD PUSH1 0x3 DUP3 ADD DUP1 SLOAD PUSH3 0xF28 SWAP1 PUSH3 0x24C7 JUMP JUMPDEST DUP1 PUSH1 0x1F ADD PUSH1 0x20 DUP1 SWAP2 DIV MUL PUSH1 0x20 ADD PUSH1 0x40 MLOAD SWAP1 DUP2 ADD PUSH1 0x40 MSTORE DUP1 SWAP3 SWAP2 SWAP1 DUP2 DUP2 MSTORE PUSH1 0x20 ADD DUP3 DUP1 SLOAD PUSH3 0xF56 SWAP1 PUSH3 0x24C7 JUMP JUMPDEST DUP1 ISZERO PUSH3 0xFA5 JUMPI DUP1 PUSH1 0x1F LT PUSH3 0xF7B JUMPI PUSH2 0x100 DUP1 DUP4 SLOAD DIV MUL DUP4 MSTORE SWAP2 PUSH1 0x20 ADD SWAP2 PUSH3 0xFA5 JUMP JUMPDEST DUP3 ADD SWAP2 SWAP1 PUSH0 MSTORE PUSH1 0x20 PUSH0 KECCAK256 SWAP1 JUMPDEST DUP2 SLOAD DUP2 MSTORE SWAP1 PUSH1 0x1 ADD SWAP1 PUSH1 0x20 ADD DUP1 DUP4 GT PUSH3 0xF87 JUMPI DUP3 SWAP1 SUB PUSH1 0x1F AND DUP3 ADD SWAP2 JUMPDEST POP POP POP SWAP2 DUP4 MSTORE POP POP PUSH1 0x4 DUP3 ADD SLOAD PUSH1 0x20 DUP3 ADD MSTORE PUSH1 0x5 DUP3 ADD SLOAD PUSH1 0x1 PUSH1 0x1 PUSH1 0xA0 SHL SUB DUP2 AND PUSH1 0x40 DUP4 ADD MSTORE PUSH1 0x1 PUSH1 0xA0 SHL SWAP1 DIV PUSH1 0xFF AND ISZERO ISZERO PUSH1 0x60 DUP3 ADD MSTORE PUSH1 0x6 DUP3 ADD SLOAD PUSH1 0x80 DUP3 ADD MSTORE PUSH1 0x7 SWAP1 SWAP2 ADD SLOAD PUSH1 0xA0 SWAP1 SWAP2 ADD MSTORE SWAP3 SWAP2 POP POP JUMP JUMPDEST PUSH1 0x60 DUP1 PUSH1 0x60 DUP1 PUSH1 0x60 DUP1 PUSH0 PUSH1 0x3 DUP1 SLOAD SWAP1 POP SWAP1 POP DUP1 PUSH1 0x1 PUSH1 0x1 PUSH1 0x40 SHL SUB DUP2 GT ISZERO PUSH3 0x1025 JUMPI PUSH3 0x1025 PUSH3 0x1D38 JUMP JUMPDEST PUSH1 0x40 MLOAD SWAP1 DUP1 DUP3 MSTORE DUP1 PUSH1 0x20 MUL PUSH1 0x20 ADD DUP3 ADD PUSH1 0x40 MSTORE DUP1 ISZERO PUSH3 0x105A JUMPI DUP2 PUSH1 0x20 ADD JUMPDEST PUSH1 0x60 DUP2 MSTORE PUSH1 0x20 ADD SWAP1 PUSH1 0x1 SWAP1 SUB SWAP1 DUP2 PUSH3 0x1044 JUMPI SWAP1 POP JUMPDEST POP SWAP7 POP DUP1 PUSH1 0x1 PUSH1 0x1 PUSH1 0x40 SHL SUB DUP2 GT ISZERO PUSH3 0x1078 JUMPI PUSH3 0x1078 PUSH3 0x1D38 JUMP JUMPDEST PUSH1 0x40 MLOAD SWAP1 DUP1 DUP3 MSTORE DUP1 PUSH1 0x20 MUL PUSH1 0x20 ADD DUP3 ADD PUSH1 0x40 MSTORE DUP1 ISZERO PUSH3 0x10A2 JUMPI DUP2 PUSH1 0x20 ADD PUSH1 0x20 DUP3 MUL DUP1 CALLDATASIZE DUP4 CALLDATACOPY ADD SWAP1 POP JUMPDEST POP SWAP6 POP DUP1 PUSH1 0x1 PUSH1 0x1 PUSH1 0x40 SHL SUB DUP2 GT ISZERO PUSH3 0x10C0 JUMPI PUSH3 0x10C0 PUSH3 0x1D38 JUMP JUMPDEST PUSH1 0x40 MLOAD SWAP1 DUP1 DUP3 MSTORE DUP1 PUSH1 0x20 MUL PUSH1 0x20 ADD DUP3 ADD PUSH1 0x40 MSTORE DUP1 ISZERO PUSH3 0x10F5 JUMPI DUP2 PUSH1 0x20 ADD JUMPDEST PUSH1 0x60 DUP2 MSTORE PUSH1 0x20 ADD SWAP1 PUSH1 0x1 SWAP1 SUB SWAP1 DUP2 PUSH3 0x10DF JUMPI SWAP1 POP JUMPDEST POP SWAP5 POP DUP1 PUSH1 0x1 PUSH1 0x1 PUSH1 0x40 SHL SUB DUP2 GT ISZERO PUSH3 0x1113 JUMPI PUSH3 0x1113 PUSH3 0x1D38 JUMP JUMPDEST PUSH1 0x40 MLOAD SWAP1 DUP1 DUP3 MSTORE DUP1 PUSH1 0x20 MUL PUSH1 0x20 ADD DUP3 ADD PUSH1 0x40 MSTORE DUP1 ISZERO PUSH3 0x1148 JUMPI DUP2 PUSH1 0x20 ADD JUMPDEST PUSH1 0x60 DUP2 MSTORE PUSH1 0x20 ADD SWAP1 PUSH1 0x1 SWAP1 SUB SWAP1 DUP2 PUSH3 0x1132 JUMPI SWAP1 POP JUMPDEST POP SWAP4 POP DUP1 PUSH1 0x1 PUSH1 0x1 PUSH1 0x40 SHL SUB DUP2 GT ISZERO PUSH3 0x1166 JUMPI PUSH3 0x1166 PUSH3 0x1D38 JUMP JUMPDEST PUSH1 0x40 MLOAD SWAP1 DUP1 DUP3 MSTORE DUP1 PUSH1 0x20 MUL PUSH1 0x20 ADD DUP3 ADD PUSH1 0x40 MSTORE DUP1 ISZERO PUSH3 0x1190 JUMPI DUP2 PUSH1 0x20 ADD PUSH1 0x20 DUP3 MUL DUP1 CALLDATASIZE DUP4 CALLDATACOPY ADD SWAP1 POP JUMPDEST POP SWAP3 POP DUP1 PUSH1 0x1 PUSH1 0x1 PUSH1 0x40 SHL SUB DUP2 GT ISZERO PUSH3 0x11AE JUMPI PUSH3 0x11AE PUSH3 0x1D38 JUMP JUMPDEST PUSH1 0x40 MLOAD SWAP1 DUP1 DUP3 MSTORE DUP1 PUSH1 0x20 MUL PUSH1 0x20 ADD DUP3 ADD PUSH1 0x40 MSTORE DUP1 ISZERO PUSH3 0x11D8 JUMPI DUP2 PUSH1 0x20 ADD PUSH1 0x20 DUP3 MUL DUP1 CALLDATASIZE DUP4 CALLDATACOPY ADD SWAP1 POP JUMPDEST POP SWAP2 POP PUSH0 JUMPDEST DUP2 DUP2 LT ISZERO PUSH3 0x15E4 JUMPI PUSH0 PUSH1 0x3 DUP3 DUP2 SLOAD DUP2 LT PUSH3 0x11FD JUMPI PUSH3 0x11FD PUSH3 0x2530 JUMP JUMPDEST SWAP1 PUSH0 MSTORE PUSH1 0x20 PUSH0 KECCAK256 ADD DUP1 SLOAD PUSH3 0x1212 SWAP1 PUSH3 0x24C7 JUMP JUMPDEST DUP1 PUSH1 0x1F ADD PUSH1 0x20 DUP1 SWAP2 DIV MUL PUSH1 0x20 ADD PUSH1 0x40 MLOAD SWAP1 DUP2 ADD PUSH1 0x40 MSTORE DUP1 SWAP3 SWAP2 SWAP1 DUP2 DUP2 MSTORE PUSH1 0x20 ADD DUP3 DUP1 SLOAD PUSH3 0x1240 SWAP1 PUSH3 0x24C7 JUMP JUMPDEST DUP1 ISZERO PUSH3 0x128F JUMPI DUP1 PUSH1 0x1F LT PUSH3 0x1265 JUMPI PUSH2 0x100 DUP1 DUP4 SLOAD DIV MUL DUP4 MSTORE SWAP2 PUSH1 0x20 ADD SWAP2 PUSH3 0x128F JUMP JUMPDEST DUP3 ADD SWAP2 SWAP1 PUSH0 MSTORE PUSH1 0x20 PUSH0 KECCAK256 SWAP1 JUMPDEST DUP2 SLOAD DUP2 MSTORE SWAP1 PUSH1 0x1 ADD SWAP1 PUSH1 0x20 ADD DUP1 DUP4 GT PUSH3 0x1271 JUMPI DUP3 SWAP1 SUB PUSH1 0x1F AND DUP3 ADD SWAP2 JUMPDEST POP POP POP POP POP SWAP1 POP PUSH0 PUSH1 0x1 DUP3 PUSH1 0x40 MLOAD PUSH3 0x12A9 SWAP2 SWAP1 PUSH3 0x2544 JUMP JUMPDEST SWAP1 DUP2 MSTORE PUSH1 0x40 DUP1 MLOAD SWAP2 DUP3 SWAP1 SUB PUSH1 0x20 SWAP1 DUP2 ADD DUP4 KECCAK256 PUSH2 0x120 DUP5 ADD SWAP1 SWAP3 MSTORE DUP2 SLOAD PUSH1 0x1 PUSH1 0x1 PUSH1 0xA0 SHL SUB AND DUP4 MSTORE PUSH1 0x1 DUP3 ADD DUP1 SLOAD SWAP2 DUP5 ADD SWAP2 PUSH3 0x12E5 SWAP1 PUSH3 0x24C7 JUMP JUMPDEST DUP1 PUSH1 0x1F ADD PUSH1 0x20 DUP1 SWAP2 DIV MUL PUSH1 0x20 ADD PUSH1 0x40 MLOAD SWAP1 DUP2 ADD PUSH1 0x40 MSTORE DUP1 SWAP3 SWAP2 SWAP1 DUP2 DUP2 MSTORE PUSH1 0x20 ADD DUP3 DUP1 SLOAD PUSH3 0x1313 SWAP1 PUSH3 0x24C7 JUMP JUMPDEST DUP1 ISZERO PUSH3 0x1362 JUMPI DUP1 PUSH1 0x1F LT PUSH3 0x1338 JUMPI PUSH2 0x100 DUP1 DUP4 SLOAD DIV MUL DUP4 MSTORE SWAP2 PUSH1 0x20 ADD SWAP2 PUSH3 0x1362 JUMP JUMPDEST DUP3 ADD SWAP2 SWAP1 PUSH0 MSTORE PUSH1 0x20 PUSH0 KECCAK256 SWAP1 JUMPDEST DUP2 SLOAD DUP2 MSTORE SWAP1 PUSH1 0x1 ADD SWAP1 PUSH1 0x20 ADD DUP1 DUP4 GT PUSH3 0x1344 JUMPI DUP3 SWAP1 SUB PUSH1 0x1F AND DUP3 ADD SWAP2 JUMPDEST POP POP POP POP POP DUP2 MSTORE PUSH1 0x20 ADD PUSH1 0x2 DUP3 ADD DUP1 SLOAD PUSH3 0x137D SWAP1 PUSH3 0x24C7 JUMP JUMPDEST DUP1 PUSH1 0x1F ADD PUSH1 0x20 DUP1 SWAP2 DIV MUL PUSH1 0x20 ADD PUSH1 0x40 MLOAD SWAP1 DUP2 ADD PUSH1 0x40 MSTORE DUP1 SWAP3 SWAP2 SWAP1 DUP2 DUP2 MSTORE PUSH1 0x20 ADD DUP3 DUP1 SLOAD PUSH3 0x13AB SWAP1 PUSH3 0x24C7 JUMP JUMPDEST DUP1 ISZERO PUSH3 0x13FA JUMPI DUP1 PUSH1 0x1F LT PUSH3 0x13D0 JUMPI PUSH2 0x100 DUP1 DUP4 SLOAD DIV MUL DUP4 MSTORE SWAP2 PUSH1 0x20 ADD SWAP2 PUSH3 0x13FA JUMP JUMPDEST DUP3 ADD SWAP2 SWAP1 PUSH0 MSTORE PUSH1 0x20 PUSH0 KECCAK256 SWAP1 JUMPDEST DUP2 SLOAD DUP2 MSTORE SWAP1 PUSH1 0x1 ADD SWAP1 PUSH1 0x20 ADD DUP1 DUP4 GT PUSH3 0x13DC JUMPI DUP3 SWAP1 SUB PUSH1 0x1F AND DUP3 ADD SWAP2 JUMPDEST POP POP POP POP POP DUP2 MSTORE PUSH1 0x20 ADD PUSH1 0x3 DUP3 ADD DUP1 SLOAD PUSH3 0x1415 SWAP1 PUSH3 0x24C7 JUMP JUMPDEST DUP1 PUSH1 0x1F ADD PUSH1 0x20 DUP1 SWAP2 DIV MUL PUSH1 0x20 ADD PUSH1 0x40 MLOAD SWAP1 DUP2 ADD PUSH1 0x40 MSTORE DUP1 SWAP3 SWAP2 SWAP1 DUP2 DUP2 MSTORE PUSH1 0x20 ADD DUP3 DUP1 SLOAD PUSH3 0x1443 SWAP1 PUSH3 0x24C7 JUMP JUMPDEST DUP1 ISZERO PUSH3 0x1492 JUMPI DUP1 PUSH1 0x1F LT PUSH3 0x1468 JUMPI PUSH2 0x100 DUP1 DUP4 SLOAD DIV MUL DUP4 MSTORE SWAP2 PUSH1 0x20 ADD SWAP2 PUSH3 0x1492 JUMP JUMPDEST DUP3 ADD SWAP2 SWAP1 PUSH0 MSTORE PUSH1 0x20 PUSH0 KECCAK256 SWAP1 JUMPDEST DUP2 SLOAD DUP2 MSTORE SWAP1 PUSH1 0x1 ADD SWAP1 PUSH1 0x20 ADD DUP1 DUP4 GT PUSH3 0x1474 JUMPI DUP3 SWAP1 SUB PUSH1 0x1F AND DUP3 ADD SWAP2 JUMPDEST POP POP POP SWAP2 DUP4 MSTORE POP POP PUSH1 0x4 DUP3 ADD SLOAD PUSH1 0x20 DUP3 ADD MSTORE PUSH1 0x5 DUP3 ADD SLOAD PUSH1 0x1 PUSH1 0x1 PUSH1 0xA0 SHL SUB DUP2 AND PUSH1 0x40 DUP4 ADD MSTORE PUSH1 0x1 PUSH1 0xA0 SHL SWAP1 DIV PUSH1 0xFF AND ISZERO ISZERO PUSH1 0x60 DUP3 ADD MSTORE PUSH1 0x6 DUP3 ADD SLOAD PUSH1 0x80 DUP3 ADD MSTORE PUSH1 0x7 SWAP1 SWAP2 ADD SLOAD PUSH1 0xA0 SWAP1 SWAP2 ADD MSTORE DUP11 MLOAD SWAP1 SWAP2 POP DUP3 SWAP1 DUP12 SWAP1 DUP6 SWAP1 DUP2 LT PUSH3 0x14FB JUMPI PUSH3 0x14FB PUSH3 0x2530 JUMP JUMPDEST PUSH1 0x20 MUL PUSH1 0x20 ADD ADD DUP2 SWAP1 MSTORE POP DUP1 PUSH0 ADD MLOAD DUP10 DUP5 DUP2 MLOAD DUP2 LT PUSH3 0x151F JUMPI PUSH3 0x151F PUSH3 0x2530 JUMP JUMPDEST PUSH1 0x20 MUL PUSH1 0x20 ADD ADD SWAP1 PUSH1 0x1 PUSH1 0x1 PUSH1 0xA0 SHL SUB AND SWAP1 DUP2 PUSH1 0x1 PUSH1 0x1 PUSH1 0xA0 SHL SUB AND DUP2 MSTORE POP POP DUP1 PUSH1 0x20 ADD MLOAD DUP9 DUP5 DUP2 MLOAD DUP2 LT PUSH3 0x1559 JUMPI PUSH3 0x1559 PUSH3 0x2530 JUMP JUMPDEST PUSH1 0x20 MUL PUSH1 0x20 ADD ADD DUP2 SWAP1 MSTORE POP DUP1 PUSH1 0x60 ADD MLOAD DUP8 DUP5 DUP2 MLOAD DUP2 LT PUSH3 0x157E JUMPI PUSH3 0x157E PUSH3 0x2530 JUMP JUMPDEST PUSH1 0x20 MUL PUSH1 0x20 ADD ADD DUP2 SWAP1 MSTORE POP DUP1 PUSH1 0x80 ADD MLOAD DUP7 DUP5 DUP2 MLOAD DUP2 LT PUSH3 0x15A3 JUMPI PUSH3 0x15A3 PUSH3 0x2530 JUMP JUMPDEST PUSH1 0x20 MUL PUSH1 0x20 ADD ADD DUP2 DUP2 MSTORE POP POP DUP1 PUSH1 0xC0 ADD MLOAD DUP6 DUP5 DUP2 MLOAD DUP2 LT PUSH3 0x15C9 JUMPI PUSH3 0x15C9 PUSH3 0x2530 JUMP JUMPDEST SWAP2 ISZERO ISZERO PUSH1 0x20 SWAP3 DUP4 MUL SWAP2 SWAP1 SWAP2 ADD SWAP1 SWAP2 ADD MSTORE POP POP PUSH1 0x1 ADD PUSH3 0x11DD JUMP JUMPDEST POP POP SWAP1 SWAP2 SWAP3 SWAP4 SWAP5 SWAP6 JUMP JUMPDEST PUSH1 0x3 DUP2 DUP2 SLOAD DUP2 LT PUSH3 0x15FE JUMPI PUSH0 DUP1 REVERT JUMPDEST SWAP1 PUSH0 MSTORE PUSH1 0x20 PUSH0 KECCAK256 ADD PUSH0 SWAP2 POP SWAP1 POP DUP1 SLOAD PUSH3 0x2E3 SWAP1 PUSH3 0x24C7 JUMP JUMPDEST PUSH0 PUSH1 0x1 PUSH1 0x1 PUSH1 0xA0 SHL SUB AND PUSH1 0x1 DUP4 PUSH1 0x40 MLOAD PUSH3 0x1634 SWAP2 SWAP1 PUSH3 0x2544 JUMP JUMPDEST SWAP1 DUP2 MSTORE PUSH1 0x40 MLOAD SWAP1 DUP2 SWAP1 SUB PUSH1 0x20 ADD SWAP1 KECCAK256 SLOAD PUSH1 0x1 PUSH1 0x1 PUSH1 0xA0 SHL SUB AND SUB PUSH3 0x166D JUMPI PUSH1 0x40 MLOAD PUSH3 0x461BCD PUSH1 0xE5 SHL DUP2 MSTORE PUSH1 0x4 ADD PUSH3 0x5B1 SWAP1 PUSH3 0x2561 JUMP JUMPDEST PUSH0 DUP2 GT PUSH3 0x16BE JUMPI PUSH1 0x40 MLOAD PUSH3 0x461BCD PUSH1 0xE5 SHL DUP2 MSTORE PUSH1 0x20 PUSH1 0x4 DUP3 ADD MSTORE PUSH1 0x1B PUSH1 0x24 DUP3 ADD MSTORE PUSH32 0x436F7374206D7573742062652067726561746572207468616E20300000000000 PUSH1 0x44 DUP3 ADD MSTORE PUSH1 0x64 ADD PUSH3 0x5B1 JUMP JUMPDEST PUSH0 PUSH1 0x1 DUP4 PUSH1 0x40 MLOAD PUSH3 0x16D1 SWAP2 SWAP1 PUSH3 0x2544 JUMP JUMPDEST SWAP1 DUP2 MSTORE PUSH1 0x40 MLOAD SWAP1 DUP2 SWAP1 SUB PUSH1 0x20 ADD SWAP1 KECCAK256 PUSH1 0x5 DUP2 ADD SLOAD SWAP1 SWAP2 POP CALLER PUSH1 0x1 PUSH1 0x1 PUSH1 0xA0 SHL SUB SWAP1 SWAP2 AND EQ DUP1 PUSH3 0x170A JUMPI POP PUSH0 SLOAD PUSH1 0x1 PUSH1 0x1 PUSH1 0xA0 SHL SUB AND CALLER EQ JUMPDEST PUSH3 0x1764 JUMPI PUSH1 0x40 MLOAD PUSH3 0x461BCD PUSH1 0xE5 SHL DUP2 MSTORE PUSH1 0x20 PUSH1 0x4 DUP3 ADD MSTORE PUSH1 0x24 DUP1 DUP3 ADD MSTORE PUSH32 0x4F6E6C7920657870657274206F72206F776E65722063616E2075706461746520 PUSH1 0x44 DUP3 ADD MSTORE PUSH4 0x18DBDCDD PUSH1 0xE2 SHL PUSH1 0x64 DUP3 ADD MSTORE PUSH1 0x84 ADD PUSH3 0x5B1 JUMP JUMPDEST PUSH1 0x4 DUP2 DUP2 ADD DUP4 SWAP1 SSTORE DUP2 SLOAD PUSH1 0x40 MLOAD PUSH4 0x3227CF13 PUSH1 0xE2 SHL DUP2 MSTORE SWAP2 DUP3 ADD DUP5 SWAP1 MSTORE PUSH1 0x1 PUSH1 0x1 PUSH1 0xA0 SHL SUB AND SWAP1 PUSH4 0xC89F3C4C SWAP1 PUSH1 0x24 ADD PUSH0 PUSH1 0x40 MLOAD DUP1 DUP4 SUB DUP2 PUSH0 DUP8 DUP1 EXTCODESIZE ISZERO DUP1 ISZERO PUSH3 0x17AC JUMPI PUSH0 DUP1 REVERT JUMPDEST POP GAS CALL ISZERO DUP1 ISZERO PUSH3 0x17BF JUMPI RETURNDATASIZE PUSH0 DUP1 RETURNDATACOPY RETURNDATASIZE PUSH0 REVERT JUMPDEST POP POP POP POP DUP3 PUSH1 0x40 MLOAD PUSH3 0x17D3 SWAP2 SWAP1 PUSH3 0x2544 JUMP JUMPDEST PUSH1 0x40 MLOAD SWAP1 DUP2 SWAP1 SUB DUP2 KECCAK256 DUP4 DUP3 MSTORE SWAP1 PUSH32 0x6F119563BBC031CAB83FCAECD1AAEB5B8FDD107B1885F37E7AC49A63D3236401 SWAP1 PUSH1 0x20 ADD PUSH1 0x40 MLOAD DUP1 SWAP2 SUB SWAP1 LOG2 POP POP POP JUMP JUMPDEST PUSH3 0x181C PUSH3 0x1C3A JUMP JUMPDEST PUSH1 0x1 PUSH1 0x1 PUSH1 0xA0 SHL SUB DUP3 AND PUSH0 SWAP1 DUP2 MSTORE PUSH1 0x2 PUSH1 0x20 MSTORE PUSH1 0x40 DUP2 KECCAK256 DUP1 SLOAD PUSH3 0x1840 SWAP1 PUSH3 0x24C7 JUMP JUMPDEST DUP1 PUSH1 0x1F ADD PUSH1 0x20 DUP1 SWAP2 DIV MUL PUSH1 0x20 ADD PUSH1 0x40 MLOAD SWAP1 DUP2 ADD PUSH1 0x40 MSTORE DUP1 SWAP3 SWAP2 SWAP1 DUP2 DUP2 MSTORE PUSH1 0x20 ADD DUP3 DUP1 SLOAD PUSH3 0x186E SWAP1 PUSH3 0x24C7 JUMP JUMPDEST DUP1 ISZERO PUSH3 0x18BD JUMPI DUP1 PUSH1 0x1F LT PUSH3 0x1893 JUMPI PUSH2 0x100 DUP1 DUP4 SLOAD DIV MUL DUP4 MSTORE SWAP2 PUSH1 0x20 ADD SWAP2 PUSH3 0x18BD JUMP JUMPDEST DUP3 ADD SWAP2 SWAP1 PUSH0 MSTORE PUSH1 0x20 PUSH0 KECCAK256 SWAP1 JUMPDEST DUP2 SLOAD DUP2 MSTORE SWAP1 PUSH1 0x1 ADD SWAP1 PUSH1 0x20 ADD DUP1 DUP4 GT PUSH3 0x189F JUMPI DUP3 SWAP1 SUB PUSH1 0x1F AND DUP3 ADD SWAP2 JUMPDEST POP POP POP POP POP SWAP1 POP PUSH0 DUP2 MLOAD GT PUSH3 0x1908 JUMPI PUSH1 0x40 MLOAD PUSH3 0x461BCD PUSH1 0xE5 SHL DUP2 MSTORE PUSH1 0x20 PUSH1 0x4 DUP3 ADD MSTORE PUSH1 0xF PUSH1 0x24 DUP3 ADD MSTORE PUSH15 0x151BDAD95B881B9BDD08199BDD5B99 PUSH1 0x8A SHL PUSH1 0x44 DUP3 ADD MSTORE PUSH1 0x64 ADD PUSH3 0x5B1 JUMP JUMPDEST PUSH1 0x1 DUP2 PUSH1 0x40 MLOAD PUSH3 0x191A SWAP2 SWAP1 PUSH3 0x2544 JUMP JUMPDEST SWAP1 DUP2 MSTORE PUSH1 0x40 DUP1 MLOAD SWAP2 DUP3 SWAP1 SUB PUSH1 0x20 SWAP1 DUP2 ADD DUP4 KECCAK256 PUSH2 0x120 DUP5 ADD SWAP1 SWAP3 MSTORE DUP2 SLOAD PUSH1 0x1 PUSH1 0x1 PUSH1 0xA0 SHL SUB AND DUP4 MSTORE PUSH1 0x1 DUP3 ADD DUP1 SLOAD SWAP2 DUP5 ADD SWAP2 PUSH3 0x1956 SWAP1 PUSH3 0x24C7 JUMP JUMPDEST DUP1 PUSH1 0x1F ADD PUSH1 0x20 DUP1 SWAP2 DIV MUL PUSH1 0x20 ADD PUSH1 0x40 MLOAD SWAP1 DUP2 ADD PUSH1 0x40 MSTORE DUP1 SWAP3 SWAP2 SWAP1 DUP2 DUP2 MSTORE PUSH1 0x20 ADD DUP3 DUP1 SLOAD PUSH3 0x1984 SWAP1 PUSH3 0x24C7 JUMP JUMPDEST DUP1 ISZERO PUSH3 0x19D3 JUMPI DUP1 PUSH1 0x1F LT PUSH3 0x19A9 JUMPI PUSH2 0x100 DUP1 DUP4 SLOAD DIV MUL DUP4 MSTORE SWAP2 PUSH1 0x20 ADD SWAP2 PUSH3 0x19D3 JUMP JUMPDEST DUP3 ADD SWAP2 SWAP1 PUSH0 MSTORE PUSH1 0x20 PUSH0 KECCAK256 SWAP1 JUMPDEST DUP2 SLOAD DUP2 MSTORE SWAP1 PUSH1 0x1 ADD SWAP1 PUSH1 0x20 ADD DUP1 DUP4 GT PUSH3 0x19B5 JUMPI DUP3 SWAP1 SUB PUSH1 0x1F AND DUP3 ADD SWAP2 JUMPDEST POP POP POP POP POP DUP2 MSTORE PUSH1 0x20 ADD PUSH1 0x2 DUP3 ADD DUP1 SLOAD PUSH3 0x19EE SWAP1 PUSH3 0x24C7 JUMP JUMPDEST DUP1 PUSH1 0x1F ADD PUSH1 0x20 DUP1 SWAP2 DIV MUL PUSH1 0x20 ADD PUSH1 0x40 MLOAD SWAP1 DUP2 ADD PUSH1 0x40 MSTORE DUP1 SWAP3 SWAP2 SWAP1 DUP2 DUP2 MSTORE PUSH1 0x20 ADD DUP3 DUP1 SLOAD PUSH3 0x1A1C SWAP1 PUSH3 0x24C7 JUMP JUMPDEST DUP1 ISZERO PUSH3 0x1A6B JUMPI DUP1 PUSH1 0x1F LT PUSH3 0x1A41 JUMPI PUSH2 0x100 DUP1 DUP4 SLOAD DIV MUL DUP4 MSTORE SWAP2 PUSH1 0x20 ADD SWAP2 PUSH3 0x1A6B JUMP JUMPDEST DUP3 ADD SWAP2 SWAP1 PUSH0 MSTORE PUSH1 0x20 PUSH0 KECCAK256 SWAP1 JUMPDEST DUP2 SLOAD DUP2 MSTORE SWAP1 PUSH1 0x1 ADD SWAP1 PUSH1 0x20 ADD DUP1 DUP4 GT PUSH3 0x1A4D JUMPI DUP3 SWAP1 SUB PUSH1 0x1F AND DUP3 ADD SWAP2 JUMPDEST POP POP POP POP POP DUP2 MSTORE PUSH1 0x20 ADD PUSH1 0x3 DUP3 ADD DUP1 SLOAD PUSH3 0x1A86 SWAP1 PUSH3 0x24C7 JUMP JUMPDEST DUP1 PUSH1 0x1F ADD PUSH1 0x20 DUP1 SWAP2 DIV MUL PUSH1 0x20 ADD PUSH1 0x40 MLOAD SWAP1 DUP2 ADD PUSH1 0x40 MSTORE DUP1 SWAP3 SWAP2 SWAP1 DUP2 DUP2 MSTORE PUSH1 0x20 ADD DUP3 DUP1 SLOAD PUSH3 0x1AB4 SWAP1 PUSH3 0x24C7 JUMP JUMPDEST DUP1 ISZERO PUSH3 0x1B03 JUMPI DUP1 PUSH1 0x1F LT PUSH3 0x1AD9 JUMPI PUSH2 0x100 DUP1 DUP4 SLOAD DIV MUL DUP4 MSTORE SWAP2 PUSH1 0x20 ADD SWAP2 PUSH3 0x1B03 JUMP JUMPDEST DUP3 ADD SWAP2 SWAP1 PUSH0 MSTORE PUSH1 0x20 PUSH0 KECCAK256 SWAP1 JUMPDEST DUP2 SLOAD DUP2 MSTORE SWAP1 PUSH1 0x1 ADD SWAP1 PUSH1 0x20 ADD DUP1 DUP4 GT PUSH3 0x1AE5 JUMPI DUP3 SWAP1 SUB PUSH1 0x1F AND DUP3 ADD SWAP2 JUMPDEST POP POP POP SWAP2 DUP4 MSTORE POP POP PUSH1 0x4 DUP3 ADD SLOAD PUSH1 0x20 DUP3 ADD MSTORE PUSH1 0x5 DUP3 ADD SLOAD PUSH1 0x1 PUSH1 0x1 PUSH1 0xA0 SHL SUB DUP2 AND PUSH1 0x40 DUP4 ADD MSTORE PUSH1 0x1 PUSH1 0xA0 SHL SWAP1 DIV PUSH1 0xFF AND ISZERO ISZERO PUSH1 0x60 DUP3 ADD MSTORE PUSH1 0x6 DUP3 ADD SLOAD PUSH1 0x80 DUP3 ADD MSTORE PUSH1 0x7 SWAP1 SWAP2 ADD SLOAD PUSH1 0xA0 SWAP1 SWAP2 ADD MSTORE SWAP4 SWAP3 POP POP POP JUMP JUMPDEST PUSH3 0x1B61 PUSH3 0x1B9A JUMP JUMPDEST PUSH1 0x1 PUSH1 0x1 PUSH1 0xA0 SHL SUB DUP2 AND PUSH3 0x1B8C JUMPI PUSH1 0x40 MLOAD PUSH4 0x1E4FBDF7 PUSH1 0xE0 SHL DUP2 MSTORE PUSH0 PUSH1 0x4 DUP3 ADD MSTORE PUSH1 0x24 ADD PUSH3 0x5B1 JUMP JUMPDEST PUSH3 0x1B97 DUP2 PUSH3 0x1BDD JUMP JUMPDEST POP JUMP JUMPDEST PUSH0 SLOAD PUSH1 0x1 PUSH1 0x1 PUSH1 0xA0 SHL SUB AND CALLER EQ PUSH3 0x74C JUMPI PUSH1 0x40 MLOAD PUSH4 0x118CDAA7 PUSH1 0xE0 SHL DUP2 MSTORE CALLER PUSH1 0x4 DUP3 ADD MSTORE PUSH1 0x24 ADD PUSH3 0x5B1 JUMP JUMPDEST PUSH0 DUP1 DUP7 PUSH1 0x40 MLOAD PUSH1 0x20 ADD PUSH3 0xA61 SWAP2 SWAP1 PUSH3 0x2590 JUMP JUMPDEST PUSH0 DUP1 SLOAD PUSH1 0x1 PUSH1 0x1 PUSH1 0xA0 SHL SUB DUP4 DUP2 AND PUSH1 0x1 PUSH1 0x1 PUSH1 0xA0 SHL SUB NOT DUP4 AND DUP2 OR DUP5 SSTORE PUSH1 0x40 MLOAD SWAP2 SWAP1 SWAP3 AND SWAP3 DUP4 SWAP2 PUSH32 0x8BE0079C531659141344CD1FD0A4F28419497F9722A3DAAFE3B4186F6B6457E0 SWAP2 SWAP1 LOG3 POP POP JUMP JUMPDEST PUSH2 0x189B DUP1 PUSH3 0x278E DUP4 CODECOPY ADD SWAP1 JUMP JUMPDEST PUSH1 0x40 MLOAD DUP1 PUSH2 0x120 ADD PUSH1 0x40 MSTORE DUP1 PUSH0 PUSH1 0x1 PUSH1 0x1 PUSH1 0xA0 SHL SUB AND DUP2 MSTORE PUSH1 0x20 ADD PUSH1 0x60 DUP2 MSTORE PUSH1 0x20 ADD PUSH1 0x60 DUP2 MSTORE PUSH1 0x20 ADD PUSH1 0x60 DUP2 MSTORE PUSH1 0x20 ADD PUSH0 DUP2 MSTORE PUSH1 0x20 ADD PUSH0 PUSH1 0x1 PUSH1 0x1 PUSH1 0xA0 SHL SUB AND DUP2 MSTORE PUSH1 0x20 ADD PUSH0 ISZERO ISZERO DUP2 MSTORE PUSH1 0x20 ADD PUSH0 DUP2 MSTORE PUSH1 0x20 ADD PUSH0 DUP2 MSTORE POP SWAP1 JUMP JUMPDEST DUP1 CALLDATALOAD PUSH1 0x1 PUSH1 0x1 PUSH1 0xA0 SHL SUB DUP2 AND DUP2 EQ PUSH3 0x1CAB JUMPI PUSH0 DUP1 REVERT JUMPDEST SWAP2 SWAP1 POP JUMP JUMPDEST PUSH0 PUSH1 0x20 DUP3 DUP5 SUB SLT ISZERO PUSH3 0x1CC1 JUMPI PUSH0 DUP1 REVERT JUMPDEST PUSH3 0x1CCC DUP3 PUSH3 0x1C94 JUMP JUMPDEST SWAP4 SWAP3 POP POP POP JUMP JUMPDEST PUSH0 JUMPDEST DUP4 DUP2 LT ISZERO PUSH3 0x1CEF JUMPI DUP2 DUP2 ADD MLOAD DUP4 DUP3 ADD MSTORE PUSH1 0x20 ADD PUSH3 0x1CD5 JUMP JUMPDEST POP POP PUSH0 SWAP2 ADD MSTORE JUMP JUMPDEST PUSH0 DUP2 MLOAD DUP1 DUP5 MSTORE PUSH3 0x1D10 DUP2 PUSH1 0x20 DUP7 ADD PUSH1 0x20 DUP7 ADD PUSH3 0x1CD3 JUMP JUMPDEST PUSH1 0x1F ADD PUSH1 0x1F NOT AND SWAP3 SWAP1 SWAP3 ADD PUSH1 0x20 ADD SWAP3 SWAP2 POP POP JUMP JUMPDEST PUSH1 0x20 DUP2 MSTORE PUSH0 PUSH3 0x1CCC PUSH1 0x20 DUP4 ADD DUP5 PUSH3 0x1CF7 JUMP JUMPDEST PUSH4 0x4E487B71 PUSH1 0xE0 SHL PUSH0 MSTORE PUSH1 0x41 PUSH1 0x4 MSTORE PUSH1 0x24 PUSH0 REVERT JUMPDEST PUSH1 0x40 MLOAD PUSH1 0x1F DUP3 ADD PUSH1 0x1F NOT AND DUP2 ADD PUSH1 0x1 PUSH1 0x1 PUSH1 0x40 SHL SUB DUP2 GT DUP3 DUP3 LT OR ISZERO PUSH3 0x1D77 JUMPI PUSH3 0x1D77 PUSH3 0x1D38 JUMP JUMPDEST PUSH1 0x40 MSTORE SWAP2 SWAP1 POP JUMP JUMPDEST PUSH0 DUP3 PUSH1 0x1F DUP4 ADD SLT PUSH3 0x1D8F JUMPI PUSH0 DUP1 REVERT JUMPDEST DUP2 CALLDATALOAD PUSH1 0x1 PUSH1 0x1 PUSH1 0x40 SHL SUB DUP2 GT ISZERO PUSH3 0x1DAB JUMPI PUSH3 0x1DAB PUSH3 0x1D38 JUMP JUMPDEST PUSH3 0x1DC0 PUSH1 0x1F DUP3 ADD PUSH1 0x1F NOT AND PUSH1 0x20 ADD PUSH3 0x1D4C JUMP JUMPDEST DUP2 DUP2 MSTORE DUP5 PUSH1 0x20 DUP4 DUP7 ADD ADD GT ISZERO PUSH3 0x1DD5 JUMPI PUSH0 DUP1 REVERT JUMPDEST DUP2 PUSH1 0x20 DUP6 ADD PUSH1 0x20 DUP4 ADD CALLDATACOPY PUSH0 SWAP2 DUP2 ADD PUSH1 0x20 ADD SWAP2 SWAP1 SWAP2 MSTORE SWAP4 SWAP3 POP POP POP JUMP JUMPDEST PUSH0 PUSH1 0x20 DUP3 DUP5 SUB SLT ISZERO PUSH3 0x1E02 JUMPI PUSH0 DUP1 REVERT JUMPDEST DUP2 CALLDATALOAD PUSH1 0x1 PUSH1 0x1 PUSH1 0x40 SHL SUB DUP2 GT ISZERO PUSH3 0x1E18 JUMPI PUSH0 DUP1 REVERT JUMPDEST PUSH3 0x1E26 DUP5 DUP3 DUP6 ADD PUSH3 0x1D7F JUMP JUMPDEST SWAP5 SWAP4 POP POP POP POP JUMP JUMPDEST PUSH1 0x1 PUSH1 0x1 PUSH1 0xA0 SHL SUB DUP11 DUP2 AND DUP3 MSTORE PUSH2 0x120 PUSH1 0x20 DUP4 ADD DUP2 SWAP1 MSTORE PUSH0 SWAP2 PUSH3 0x1E55 DUP5 DUP4 ADD DUP14 PUSH3 0x1CF7 JUMP JUMPDEST SWAP2 POP DUP4 DUP3 SUB PUSH1 0x40 DUP6 ADD MSTORE PUSH3 0x1E6B DUP3 DUP13 PUSH3 0x1CF7 JUMP JUMPDEST SWAP2 POP DUP4 DUP3 SUB PUSH1 0x60 DUP6 ADD MSTORE PUSH3 0x1E81 DUP3 DUP12 PUSH3 0x1CF7 JUMP JUMPDEST PUSH1 0x80 DUP6 ADD SWAP10 SWAP1 SWAP10 MSTORE SWAP7 SWAP1 SWAP7 AND PUSH1 0xA0 DUP4 ADD MSTORE POP SWAP3 ISZERO ISZERO PUSH1 0xC0 DUP5 ADD MSTORE PUSH1 0xE0 DUP4 ADD SWAP2 SWAP1 SWAP2 MSTORE PUSH2 0x100 SWAP1 SWAP2 ADD MSTORE POP SWAP5 SWAP4 POP POP POP POP JUMP JUMPDEST PUSH0 PUSH1 0x1 PUSH1 0x1 PUSH1 0x40 SHL SUB DUP3 GT ISZERO PUSH3 0x1ECE JUMPI PUSH3 0x1ECE PUSH3 0x1D38 JUMP JUMPDEST POP PUSH1 0x5 SHL PUSH1 0x20 ADD SWAP1 JUMP JUMPDEST PUSH0 DUP3 PUSH1 0x1F DUP4 ADD SLT PUSH3 0x1EE8 JUMPI PUSH0 DUP1 REVERT JUMPDEST DUP2 CALLDATALOAD PUSH1 0x20 PUSH3 0x1F01 PUSH3 0x1EFB DUP4 PUSH3 0x1EB3 JUMP JUMPDEST PUSH3 0x1D4C JUMP JUMPDEST DUP3 DUP2 MSTORE PUSH1 0x5 SWAP3 SWAP1 SWAP3 SHL DUP5 ADD DUP2 ADD SWAP2 DUP2 DUP2 ADD SWAP1 DUP7 DUP5 GT ISZERO PUSH3 0x1F20 JUMPI PUSH0 DUP1 REVERT JUMPDEST DUP3 DUP7 ADD JUMPDEST DUP5 DUP2 LT ISZERO PUSH3 0x1F62 JUMPI DUP1 CALLDATALOAD PUSH1 0x1 PUSH1 0x1 PUSH1 0x40 SHL SUB DUP2 GT ISZERO PUSH3 0x1F43 JUMPI PUSH0 DUP1 REVERT JUMPDEST PUSH3 0x1F53 DUP10 DUP7 DUP4 DUP12 ADD ADD PUSH3 0x1D7F JUMP JUMPDEST DUP5 MSTORE POP SWAP2 DUP4 ADD SWAP2 DUP4 ADD PUSH3 0x1F24 JUMP JUMPDEST POP SWAP7 SWAP6 POP POP POP POP POP POP JUMP JUMPDEST PUSH0 DUP3 PUSH1 0x1F DUP4 ADD SLT PUSH3 0x1F7D JUMPI PUSH0 DUP1 REVERT JUMPDEST DUP2 CALLDATALOAD PUSH1 0x20 PUSH3 0x1F90 PUSH3 0x1EFB DUP4 PUSH3 0x1EB3 JUMP JUMPDEST DUP1 DUP4 DUP3 MSTORE PUSH1 0x20 DUP3 ADD SWAP2 POP PUSH1 0x20 DUP5 PUSH1 0x5 SHL DUP8 ADD ADD SWAP4 POP DUP7 DUP5 GT ISZERO PUSH3 0x1FB2 JUMPI PUSH0 DUP1 REVERT JUMPDEST PUSH1 0x20 DUP7 ADD JUMPDEST DUP5 DUP2 LT ISZERO PUSH3 0x1F62 JUMPI DUP1 CALLDATALOAD DUP4 MSTORE SWAP2 DUP4 ADD SWAP2 DUP4 ADD PUSH3 0x1FB7 JUMP JUMPDEST PUSH0 DUP3 PUSH1 0x1F DUP4 ADD SLT PUSH3 0x1FE0 JUMPI PUSH0 DUP1 REVERT JUMPDEST DUP2 CALLDATALOAD PUSH1 0x20 PUSH3 0x1FF3 PUSH3 0x1EFB DUP4 PUSH3 0x1EB3 JUMP JUMPDEST DUP1 DUP4 DUP3 MSTORE PUSH1 0x20 DUP3 ADD SWAP2 POP PUSH1 0x20 DUP5 PUSH1 0x5 SHL DUP8 ADD ADD SWAP4 POP DUP7 DUP5 GT ISZERO PUSH3 0x2015 JUMPI PUSH0 DUP1 REVERT JUMPDEST PUSH1 0x20 DUP7 ADD JUMPDEST DUP5 DUP2 LT ISZERO PUSH3 0x1F62 JUMPI PUSH3 0x202E DUP2 PUSH3 0x1C94 JUMP JUMPDEST DUP4 MSTORE SWAP2 DUP4 ADD SWAP2 DUP4 ADD PUSH3 0x201A JUMP JUMPDEST PUSH0 DUP1 PUSH0 DUP1 PUSH0 PUSH1 0xA0 DUP7 DUP9 SUB SLT ISZERO PUSH3 0x2051 JUMPI PUSH0 DUP1 REVERT JUMPDEST DUP6 CALLDATALOAD PUSH1 0x1 PUSH1 0x1 PUSH1 0x40 SHL SUB DUP1 DUP3 GT ISZERO PUSH3 0x2068 JUMPI PUSH0 DUP1 REVERT JUMPDEST PUSH3 0x2076 DUP10 DUP4 DUP11 ADD PUSH3 0x1ED8 JUMP JUMPDEST SWAP7 POP PUSH1 0x20 DUP9 ADD CALLDATALOAD SWAP2 POP DUP1 DUP3 GT ISZERO PUSH3 0x208C JUMPI PUSH0 DUP1 REVERT JUMPDEST PUSH3 0x209A DUP10 DUP4 DUP11 ADD PUSH3 0x1ED8 JUMP JUMPDEST SWAP6 POP PUSH1 0x40 DUP9 ADD CALLDATALOAD SWAP2 POP DUP1 DUP3 GT ISZERO PUSH3 0x20B0 JUMPI PUSH0 DUP1 REVERT JUMPDEST PUSH3 0x20BE DUP10 DUP4 DUP11 ADD PUSH3 0x1ED8 JUMP JUMPDEST SWAP5 POP PUSH1 0x60 DUP9 ADD CALLDATALOAD SWAP2 POP DUP1 DUP3 GT ISZERO PUSH3 0x20D4 JUMPI PUSH0 DUP1 REVERT JUMPDEST PUSH3 0x20E2 DUP10 DUP4 DUP11 ADD PUSH3 0x1F6D JUMP JUMPDEST SWAP4 POP PUSH1 0x80 DUP9 ADD CALLDATALOAD SWAP2 POP DUP1 DUP3 GT ISZERO PUSH3 0x20F8 JUMPI PUSH0 DUP1 REVERT JUMPDEST POP PUSH3 0x2107 DUP9 DUP3 DUP10 ADD PUSH3 0x1FD0 JUMP JUMPDEST SWAP2 POP POP SWAP3 SWAP6 POP SWAP3 SWAP6 SWAP1 SWAP4 POP JUMP JUMPDEST PUSH0 DUP1 PUSH1 0x40 DUP4 DUP6 SUB SLT ISZERO PUSH3 0x2126 JUMPI PUSH0 DUP1 REVERT JUMPDEST DUP3 CALLDATALOAD PUSH1 0x1 PUSH1 0x1 PUSH1 0x40 SHL SUB DUP2 GT ISZERO PUSH3 0x213C JUMPI PUSH0 DUP1 REVERT JUMPDEST PUSH3 0x214A DUP6 DUP3 DUP7 ADD PUSH3 0x1D7F JUMP JUMPDEST SWAP3 POP POP PUSH1 0x20 DUP4 ADD CALLDATALOAD DUP1 ISZERO ISZERO DUP2 EQ PUSH3 0x2160 JUMPI PUSH0 DUP1 REVERT JUMPDEST DUP1 SWAP2 POP POP SWAP3 POP SWAP3 SWAP1 POP JUMP JUMPDEST PUSH0 DUP1 PUSH0 DUP1 PUSH0 PUSH1 0xA0 DUP7 DUP9 SUB SLT ISZERO PUSH3 0x2180 JUMPI PUSH0 DUP1 REVERT JUMPDEST DUP6 CALLDATALOAD PUSH1 0x1 PUSH1 0x1 PUSH1 0x40 SHL SUB DUP1 DUP3 GT ISZERO PUSH3 0x2197 JUMPI PUSH0 DUP1 REVERT JUMPDEST PUSH3 0x21A5 DUP10 DUP4 DUP11 ADD PUSH3 0x1D7F JUMP JUMPDEST SWAP7 POP PUSH1 0x20 DUP9 ADD CALLDATALOAD SWAP2 POP DUP1 DUP3 GT ISZERO PUSH3 0x21BB JUMPI PUSH0 DUP1 REVERT JUMPDEST PUSH3 0x21C9 DUP10 DUP4 DUP11 ADD PUSH3 0x1D7F JUMP JUMPDEST SWAP6 POP PUSH1 0x40 DUP9 ADD CALLDATALOAD SWAP2 POP DUP1 DUP3 GT ISZERO PUSH3 0x21DF JUMPI PUSH0 DUP1 REVERT JUMPDEST POP PUSH3 0x21EE DUP9 DUP3 DUP10 ADD PUSH3 0x1D7F JUMP JUMPDEST SWAP4 POP POP PUSH1 0x60 DUP7 ADD CALLDATALOAD SWAP2 POP PUSH3 0x2206 PUSH1 0x80 DUP8 ADD PUSH3 0x1C94 JUMP JUMPDEST SWAP1 POP SWAP3 SWAP6 POP SWAP3 SWAP6 SWAP1 SWAP4 POP JUMP JUMPDEST PUSH1 0x20 DUP2 MSTORE PUSH3 0x222D PUSH1 0x20 DUP3 ADD DUP4 MLOAD PUSH1 0x1 PUSH1 0x1 PUSH1 0xA0 SHL SUB AND SWAP1 MSTORE JUMP JUMPDEST PUSH0 PUSH1 0x20 DUP4 ADD MLOAD PUSH2 0x120 DUP1 PUSH1 0x40 DUP6 ADD MSTORE PUSH3 0x224C PUSH2 0x140 DUP6 ADD DUP4 PUSH3 0x1CF7 JUMP JUMPDEST SWAP2 POP PUSH1 0x40 DUP6 ADD MLOAD PUSH1 0x1F NOT DUP1 DUP7 DUP6 SUB ADD PUSH1 0x60 DUP8 ADD MSTORE PUSH3 0x226C DUP5 DUP4 PUSH3 0x1CF7 JUMP JUMPDEST SWAP4 POP PUSH1 0x60 DUP8 ADD MLOAD SWAP2 POP DUP1 DUP7 DUP6 SUB ADD PUSH1 0x80 DUP8 ADD MSTORE POP PUSH3 0x228C DUP4 DUP3 PUSH3 0x1CF7 JUMP JUMPDEST SWAP3 POP POP PUSH1 0x80 DUP6 ADD MLOAD PUSH1 0xA0 DUP6 ADD MSTORE PUSH1 0xA0 DUP6 ADD MLOAD PUSH3 0x22B4 PUSH1 0xC0 DUP7 ADD DUP3 PUSH1 0x1 PUSH1 0x1 PUSH1 0xA0 SHL SUB AND SWAP1 MSTORE JUMP JUMPDEST POP PUSH1 0xC0 DUP6 ADD MLOAD DUP1 ISZERO ISZERO PUSH1 0xE0 DUP7 ADD MSTORE POP PUSH1 0xE0 DUP6 ADD MLOAD PUSH2 0x100 DUP6 DUP2 ADD SWAP2 SWAP1 SWAP2 MSTORE SWAP1 SWAP5 ADD MLOAD SWAP4 SWAP1 SWAP3 ADD SWAP3 SWAP1 SWAP3 MSTORE SWAP2 SWAP1 POP JUMP JUMPDEST PUSH0 DUP3 DUP3 MLOAD DUP1 DUP6 MSTORE PUSH1 0x20 DUP1 DUP7 ADD SWAP6 POP PUSH1 0x20 DUP3 PUSH1 0x5 SHL DUP5 ADD ADD PUSH1 0x20 DUP7 ADD PUSH0 JUMPDEST DUP5 DUP2 LT ISZERO PUSH3 0x2332 JUMPI PUSH1 0x1F NOT DUP7 DUP5 SUB ADD DUP10 MSTORE PUSH3 0x231F DUP4 DUP4 MLOAD PUSH3 0x1CF7 JUMP JUMPDEST SWAP9 DUP5 ADD SWAP9 SWAP3 POP SWAP1 DUP4 ADD SWAP1 PUSH1 0x1 ADD PUSH3 0x2300 JUMP JUMPDEST POP SWAP1 SWAP8 SWAP7 POP POP POP POP POP POP POP JUMP JUMPDEST PUSH0 DUP2 MLOAD DUP1 DUP5 MSTORE PUSH1 0x20 DUP1 DUP6 ADD SWAP5 POP PUSH1 0x20 DUP5 ADD PUSH0 JUMPDEST DUP4 DUP2 LT ISZERO PUSH3 0x2370 JUMPI DUP2 MLOAD DUP8 MSTORE SWAP6 DUP3 ADD SWAP6 SWAP1 DUP3 ADD SWAP1 PUSH1 0x1 ADD PUSH3 0x2352 JUMP JUMPDEST POP SWAP5 SWAP6 SWAP5 POP POP POP POP POP JUMP JUMPDEST PUSH0 DUP2 MLOAD DUP1 DUP5 MSTORE PUSH1 0x20 DUP1 DUP6 ADD SWAP5 POP PUSH1 0x20 DUP5 ADD PUSH0 JUMPDEST DUP4 DUP2 LT ISZERO PUSH3 0x2370 JUMPI DUP2 MLOAD ISZERO ISZERO DUP8 MSTORE SWAP6 DUP3 ADD SWAP6 SWAP1 DUP3 ADD SWAP1 PUSH1 0x1 ADD PUSH3 0x238E JUMP JUMPDEST PUSH1 0xC0 DUP2 MSTORE PUSH0 PUSH3 0x23C2 PUSH1 0xC0 DUP4 ADD DUP10 PUSH3 0x22E3 JUMP JUMPDEST DUP3 DUP2 SUB PUSH1 0x20 DUP5 DUP2 ADD SWAP2 SWAP1 SWAP2 MSTORE DUP9 MLOAD DUP1 DUP4 MSTORE DUP10 DUP3 ADD SWAP3 DUP3 ADD SWAP1 PUSH0 JUMPDEST DUP2 DUP2 LT ISZERO PUSH3 0x2403 JUMPI DUP5 MLOAD PUSH1 0x1 PUSH1 0x1 PUSH1 0xA0 SHL SUB AND DUP4 MSTORE SWAP4 DUP4 ADD SWAP4 SWAP2 DUP4 ADD SWAP2 PUSH1 0x1 ADD PUSH3 0x23DC JUMP JUMPDEST POP POP DUP5 DUP2 SUB PUSH1 0x40 DUP7 ADD MSTORE PUSH3 0x2419 DUP2 DUP11 PUSH3 0x22E3 JUMP JUMPDEST SWAP3 POP POP POP DUP3 DUP2 SUB PUSH1 0x60 DUP5 ADD MSTORE PUSH3 0x2431 DUP2 DUP8 PUSH3 0x22E3 JUMP JUMPDEST SWAP1 POP DUP3 DUP2 SUB PUSH1 0x80 DUP5 ADD MSTORE PUSH3 0x2447 DUP2 DUP7 PUSH3 0x233F JUMP JUMPDEST SWAP1 POP DUP3 DUP2 SUB PUSH1 0xA0 DUP5 ADD MSTORE PUSH3 0x245D DUP2 DUP6 PUSH3 0x237B JUMP JUMPDEST SWAP10 SWAP9 POP POP POP POP POP POP POP POP POP JUMP JUMPDEST PUSH0 PUSH1 0x20 DUP3 DUP5 SUB SLT ISZERO PUSH3 0x247B JUMPI PUSH0 DUP1 REVERT JUMPDEST POP CALLDATALOAD SWAP2 SWAP1 POP JUMP JUMPDEST PUSH0 DUP1 PUSH1 0x40 DUP4 DUP6 SUB SLT ISZERO PUSH3 0x2494 JUMPI PUSH0 DUP1 REVERT JUMPDEST DUP3 CALLDATALOAD PUSH1 0x1 PUSH1 0x1 PUSH1 0x40 SHL SUB DUP2 GT ISZERO PUSH3 0x24AA JUMPI PUSH0 DUP1 REVERT JUMPDEST PUSH3 0x24B8 DUP6 DUP3 DUP7 ADD PUSH3 0x1D7F JUMP JUMPDEST SWAP6 PUSH1 0x20 SWAP5 SWAP1 SWAP5 ADD CALLDATALOAD SWAP5 POP POP POP POP JUMP JUMPDEST PUSH1 0x1 DUP2 DUP2 SHR SWAP1 DUP3 AND DUP1 PUSH3 0x24DC JUMPI PUSH1 0x7F DUP3 AND SWAP2 POP JUMPDEST PUSH1 0x20 DUP3 LT DUP2 SUB PUSH3 0x24FB JUMPI PUSH4 0x4E487B71 PUSH1 0xE0 SHL PUSH0 MSTORE PUSH1 0x22 PUSH1 0x4 MSTORE PUSH1 0x24 PUSH0 REVERT JUMPDEST POP SWAP2 SWAP1 POP JUMP JUMPDEST PUSH1 0x20 DUP1 DUP3 MSTORE PUSH1 0x15 SWAP1 DUP3 ADD MSTORE PUSH21 0x82E4E4C2F240D8CADCCEE8D040DAD2E6DAC2E8C6D PUSH1 0x5B SHL PUSH1 0x40 DUP3 ADD MSTORE PUSH1 0x60 ADD SWAP1 JUMP JUMPDEST PUSH4 0x4E487B71 PUSH1 0xE0 SHL PUSH0 MSTORE PUSH1 0x32 PUSH1 0x4 MSTORE PUSH1 0x24 PUSH0 REVERT JUMPDEST PUSH0 DUP3 MLOAD PUSH3 0x2557 DUP2 DUP5 PUSH1 0x20 DUP8 ADD PUSH3 0x1CD3 JUMP JUMPDEST SWAP2 SWAP1 SWAP2 ADD SWAP3 SWAP2 POP POP JUMP JUMPDEST PUSH1 0x20 DUP1 DUP3 MSTORE PUSH1 0x15 SWAP1 DUP3 ADD MSTORE PUSH21 0x115E1C195C9D08191BD95CC81B9BDD08195E1A5CDD PUSH1 0x5A SHL PUSH1 0x40 DUP3 ADD MSTORE PUSH1 0x60 ADD SWAP1 JUMP JUMPDEST PUSH11 0x213930B4B72A3930B2329 PUSH1 0xAD SHL DUP2 MSTORE PUSH0 DUP3 MLOAD PUSH3 0x25B7 DUP2 PUSH1 0xB DUP6 ADD PUSH1 0x20 DUP8 ADD PUSH3 0x1CD3 JUMP JUMPDEST PUSH6 0x102A37B5B2B7 PUSH1 0xD1 SHL PUSH1 0xB SWAP4 SWAP1 SWAP2 ADD SWAP3 DUP4 ADD MSTORE POP PUSH1 0x11 ADD SWAP2 SWAP1 POP JUMP JUMPDEST PUSH1 0xE0 DUP2 MSTORE PUSH0 PUSH3 0x25E8 PUSH1 0xE0 DUP4 ADD DUP11 PUSH3 0x1CF7 JUMP JUMPDEST DUP3 DUP2 SUB PUSH1 0x20 DUP5 ADD MSTORE PUSH3 0x25FC DUP2 DUP11 PUSH3 0x1CF7 JUMP JUMPDEST SWAP1 POP DUP3 DUP2 SUB PUSH1 0x40 DUP5 ADD MSTORE PUSH3 0x2612 DUP2 DUP10 PUSH3 0x1CF7 JUMP JUMPDEST SWAP1 POP DUP3 DUP2 SUB PUSH1 0x60 DUP5 ADD MSTORE PUSH3 0x2628 DUP2 DUP9 PUSH3 0x1CF7 JUMP JUMPDEST PUSH1 0x80 DUP5 ADD SWAP7 SWAP1 SWAP7 MSTORE POP POP PUSH1 0x1 PUSH1 0x1 PUSH1 0xA0 SHL SUB SWAP3 DUP4 AND PUSH1 0xA0 DUP3 ADD MSTORE SWAP2 AND PUSH1 0xC0 SWAP1 SWAP2 ADD MSTORE SWAP5 SWAP4 POP POP POP POP JUMP JUMPDEST PUSH1 0x1F DUP3 GT ISZERO PUSH3 0x269D JUMPI DUP1 PUSH0 MSTORE PUSH1 0x20 PUSH0 KECCAK256 PUSH1 0x1F DUP5 ADD PUSH1 0x5 SHR DUP2 ADD PUSH1 0x20 DUP6 LT ISZERO PUSH3 0x2679 JUMPI POP DUP1 JUMPDEST PUSH1 0x1F DUP5 ADD PUSH1 0x5 SHR DUP3 ADD SWAP2 POP JUMPDEST DUP2 DUP2 LT ISZERO PUSH3 0x269A JUMPI PUSH0 DUP2 SSTORE PUSH1 0x1 ADD PUSH3 0x2685 JUMP JUMPDEST POP POP JUMPDEST POP POP POP JUMP JUMPDEST DUP2 MLOAD PUSH1 0x1 PUSH1 0x1 PUSH1 0x40 SHL SUB DUP2 GT ISZERO PUSH3 0x26BE JUMPI PUSH3 0x26BE PUSH3 0x1D38 JUMP JUMPDEST PUSH3 0x26D6 DUP2 PUSH3 0x26CF DUP5 SLOAD PUSH3 0x24C7 JUMP JUMPDEST DUP5 PUSH3 0x2652 JUMP JUMPDEST PUSH1 0x20 DUP1 PUSH1 0x1F DUP4 GT PUSH1 0x1 DUP2 EQ PUSH3 0x270C JUMPI PUSH0 DUP5 ISZERO PUSH3 0x26F4 JUMPI POP DUP6 DUP4 ADD MLOAD JUMPDEST PUSH0 NOT PUSH1 0x3 DUP7 SWAP1 SHL SHR NOT AND PUSH1 0x1 DUP6 SWAP1 SHL OR DUP6 SSTORE PUSH3 0x72F JUMP JUMPDEST PUSH0 DUP6 DUP2 MSTORE PUSH1 0x20 DUP2 KECCAK256 PUSH1 0x1F NOT DUP7 AND SWAP2 JUMPDEST DUP3 DUP2 LT ISZERO PUSH3 0x273C JUMPI DUP9 DUP7 ADD MLOAD DUP3 SSTORE SWAP5 DUP5 ADD SWAP5 PUSH1 0x1 SWAP1 SWAP2 ADD SWAP1 DUP5 ADD PUSH3 0x271B JUMP JUMPDEST POP DUP6 DUP3 LT ISZERO PUSH3 0x275A JUMPI DUP8 DUP6 ADD MLOAD PUSH0 NOT PUSH1 0x3 DUP9 SWAP1 SHL PUSH1 0xF8 AND SHR NOT AND DUP2 SSTORE JUMPDEST POP POP POP POP POP PUSH1 0x1 SWAP1 DUP2 SHL ADD SWAP1 SSTORE POP JUMP JUMPDEST PUSH1 0x40 DUP2 MSTORE PUSH0 PUSH3 0x277E PUSH1 0x40 DUP4 ADD DUP6 PUSH3 0x1CF7 JUMP JUMPDEST SWAP1 POP DUP3 PUSH1 0x20 DUP4 ADD MSTORE SWAP4 SWAP3 POP POP POP JUMP INVALID PUSH1 0x80 PUSH1 0x40 MSTORE PUSH1 0xA PUSH1 0xB SSTORE CALLVALUE DUP1 ISZERO PUSH3 0x15 JUMPI PUSH0 DUP1 REVERT JUMPDEST POP PUSH1 0x40 MLOAD PUSH3 0x189B CODESIZE SUB DUP1 PUSH3 0x189B DUP4 CODECOPY DUP2 ADD PUSH1 0x40 DUP2 SWAP1 MSTORE PUSH3 0x38 SWAP2 PUSH3 0x3BF JUMP JUMPDEST CALLER DUP8 DUP8 PUSH1 0x3 PUSH3 0x49 DUP4 DUP3 PUSH3 0x528 JUMP JUMPDEST POP PUSH1 0x4 PUSH3 0x58 DUP3 DUP3 PUSH3 0x528 JUMP JUMPDEST POP POP POP PUSH1 0x1 PUSH1 0x1 PUSH1 0xA0 SHL SUB DUP2 AND PUSH3 0x8A JUMPI PUSH1 0x40 MLOAD PUSH4 0x1E4FBDF7 PUSH1 0xE0 SHL DUP2 MSTORE PUSH0 PUSH1 0x4 DUP3 ADD MSTORE PUSH1 0x24 ADD JUMPDEST PUSH1 0x40 MLOAD DUP1 SWAP2 SUB SWAP1 REVERT JUMPDEST PUSH3 0x95 DUP2 PUSH3 0x126 JUMP JUMPDEST POP PUSH1 0x6 PUSH3 0xA4 DUP7 DUP3 PUSH3 0x528 JUMP JUMPDEST POP PUSH1 0x7 PUSH3 0xB3 DUP6 DUP3 PUSH3 0x528 JUMP JUMPDEST POP PUSH1 0x8 DUP4 SWAP1 SSTORE PUSH1 0x9 DUP1 SLOAD PUSH1 0x1 PUSH1 0x1 PUSH1 0xA0 SHL SUB DUP1 DUP6 AND PUSH1 0x1 PUSH1 0x1 PUSH1 0xA0 SHL SUB NOT SWAP3 DUP4 AND OR SWAP1 SWAP3 SSTORE PUSH1 0xA DUP1 SLOAD SWAP3 DUP5 AND SWAP3 SWAP1 SWAP2 AND SWAP2 SWAP1 SWAP2 OR SWAP1 SSTORE PUSH3 0x119 ADDRESS PUSH3 0xF7 PUSH1 0x12 SWAP1 JUMP JUMPDEST PUSH3 0x104 SWAP1 PUSH1 0xA PUSH3 0x703 JUMP JUMPDEST PUSH3 0x113 SWAP1 PUSH3 0xF4240 PUSH3 0x71A JUMP JUMPDEST PUSH3 0x177 JUMP JUMPDEST POP POP POP POP POP POP POP PUSH3 0x74A JUMP JUMPDEST PUSH1 0x5 DUP1 SLOAD PUSH1 0x1 PUSH1 0x1 PUSH1 0xA0 SHL SUB DUP4 DUP2 AND PUSH1 0x1 PUSH1 0x1 PUSH1 0xA0 SHL SUB NOT DUP4 AND DUP2 OR SWAP1 SWAP4 SSTORE PUSH1 0x40 MLOAD SWAP2 AND SWAP2 SWAP1 DUP3 SWAP1 PUSH32 0x8BE0079C531659141344CD1FD0A4F28419497F9722A3DAAFE3B4186F6B6457E0 SWAP1 PUSH0 SWAP1 LOG3 POP POP JUMP JUMPDEST PUSH1 0x1 PUSH1 0x1 PUSH1 0xA0 SHL SUB DUP3 AND PUSH3 0x1A2 JUMPI PUSH1 0x40 MLOAD PUSH4 0xEC442F05 PUSH1 0xE0 SHL DUP2 MSTORE PUSH0 PUSH1 0x4 DUP3 ADD MSTORE PUSH1 0x24 ADD PUSH3 0x81 JUMP JUMPDEST PUSH3 0x1AF PUSH0 DUP4 DUP4 PUSH3 0x1B3 JUMP JUMPDEST POP POP JUMP JUMPDEST PUSH1 0x1 PUSH1 0x1 PUSH1 0xA0 SHL SUB DUP4 AND PUSH3 0x1E1 JUMPI DUP1 PUSH1 0x2 PUSH0 DUP3 DUP3 SLOAD PUSH3 0x1D5 SWAP2 SWAP1 PUSH3 0x734 JUMP JUMPDEST SWAP1 SWAP2 SSTORE POP PUSH3 0x253 SWAP1 POP JUMP JUMPDEST PUSH1 0x1 PUSH1 0x1 PUSH1 0xA0 SHL SUB DUP4 AND PUSH0 SWAP1 DUP2 MSTORE PUSH1 0x20 DUP2 SWAP1 MSTORE PUSH1 0x40 SWAP1 KECCAK256 SLOAD DUP2 DUP2 LT ISZERO PUSH3 0x235 JUMPI PUSH1 0x40 MLOAD PUSH4 0x391434E3 PUSH1 0xE2 SHL DUP2 MSTORE PUSH1 0x1 PUSH1 0x1 PUSH1 0xA0 SHL SUB DUP6 AND PUSH1 0x4 DUP3 ADD MSTORE PUSH1 0x24 DUP2 ADD DUP3 SWAP1 MSTORE PUSH1 0x44 DUP2 ADD DUP4 SWAP1 MSTORE PUSH1 0x64 ADD PUSH3 0x81 JUMP JUMPDEST PUSH1 0x1 PUSH1 0x1 PUSH1 0xA0 SHL SUB DUP5 AND PUSH0 SWAP1 DUP2 MSTORE PUSH1 0x20 DUP2 SWAP1 MSTORE PUSH1 0x40 SWAP1 KECCAK256 SWAP1 DUP3 SWAP1 SUB SWAP1 SSTORE JUMPDEST PUSH1 0x1 PUSH1 0x1 PUSH1 0xA0 SHL SUB DUP3 AND PUSH3 0x271 JUMPI PUSH1 0x2 DUP1 SLOAD DUP3 SWAP1 SUB SWAP1 SSTORE PUSH3 0x28F JUMP JUMPDEST PUSH1 0x1 PUSH1 0x1 PUSH1 0xA0 SHL SUB DUP3 AND PUSH0 SWAP1 DUP2 MSTORE PUSH1 0x20 DUP2 SWAP1 MSTORE PUSH1 0x40 SWAP1 KECCAK256 DUP1 SLOAD DUP3 ADD SWAP1 SSTORE JUMPDEST DUP2 PUSH1 0x1 PUSH1 0x1 PUSH1 0xA0 SHL SUB AND DUP4 PUSH1 0x1 PUSH1 0x1 PUSH1 0xA0 SHL SUB AND PUSH32 0xDDF252AD1BE2C89B69C2B068FC378DAA952BA7F163C4A11628F55A4DF523B3EF DUP4 PUSH1 0x40 MLOAD PUSH3 0x2D5 SWAP2 DUP2 MSTORE PUSH1 0x20 ADD SWAP1 JUMP JUMPDEST PUSH1 0x40 MLOAD DUP1 SWAP2 SUB SWAP1 LOG3 POP POP POP JUMP JUMPDEST PUSH4 0x4E487B71 PUSH1 0xE0 SHL PUSH0 MSTORE PUSH1 0x41 PUSH1 0x4 MSTORE PUSH1 0x24 PUSH0 REVERT JUMPDEST PUSH0 DUP3 PUSH1 0x1F DUP4 ADD SLT PUSH3 0x306 JUMPI PUSH0 DUP1 REVERT JUMPDEST DUP2 MLOAD PUSH1 0x1 PUSH1 0x1 PUSH1 0x40 SHL SUB DUP1 DUP3 GT ISZERO PUSH3 0x323 JUMPI PUSH3 0x323 PUSH3 0x2E2 JUMP JUMPDEST PUSH1 0x40 MLOAD PUSH1 0x1F DUP4 ADD PUSH1 0x1F NOT SWAP1 DUP2 AND PUSH1 0x3F ADD AND DUP2 ADD SWAP1 DUP3 DUP3 GT DUP2 DUP4 LT OR ISZERO PUSH3 0x34E JUMPI PUSH3 0x34E PUSH3 0x2E2 JUMP JUMPDEST DUP2 PUSH1 0x40 MSTORE DUP4 DUP2 MSTORE PUSH1 0x20 SWAP3 POP DUP7 PUSH1 0x20 DUP6 DUP9 ADD ADD GT ISZERO PUSH3 0x36B JUMPI PUSH0 DUP1 REVERT JUMPDEST PUSH0 SWAP2 POP JUMPDEST DUP4 DUP3 LT ISZERO PUSH3 0x38E JUMPI DUP6 DUP3 ADD DUP4 ADD MLOAD DUP2 DUP4 ADD DUP5 ADD MSTORE SWAP1 DUP3 ADD SWAP1 PUSH3 0x36F JUMP JUMPDEST PUSH0 PUSH1 0x20 DUP6 DUP4 ADD ADD MSTORE DUP1 SWAP5 POP POP POP POP POP SWAP3 SWAP2 POP POP JUMP JUMPDEST DUP1 MLOAD PUSH1 0x1 PUSH1 0x1 PUSH1 0xA0 SHL SUB DUP2 AND DUP2 EQ PUSH3 0x3BA JUMPI PUSH0 DUP1 REVERT JUMPDEST SWAP2 SWAP1 POP JUMP JUMPDEST PUSH0 DUP1 PUSH0 DUP1 PUSH0 DUP1 PUSH0 PUSH1 0xE0 DUP9 DUP11 SUB SLT ISZERO PUSH3 0x3D6 JUMPI PUSH0 DUP1 REVERT JUMPDEST DUP8 MLOAD PUSH1 0x1 PUSH1 0x1 PUSH1 0x40 SHL SUB DUP1 DUP3 GT ISZERO PUSH3 0x3ED JUMPI PUSH0 DUP1 REVERT JUMPDEST PUSH3 0x3FB DUP12 DUP4 DUP13 ADD PUSH3 0x2F6 JUMP JUMPDEST SWAP9 POP PUSH1 0x20 DUP11 ADD MLOAD SWAP2 POP DUP1 DUP3 GT ISZERO PUSH3 0x411 JUMPI PUSH0 DUP1 REVERT JUMPDEST PUSH3 0x41F DUP12 DUP4 DUP13 ADD PUSH3 0x2F6 JUMP JUMPDEST SWAP8 POP PUSH1 0x40 DUP11 ADD MLOAD SWAP2 POP DUP1 DUP3 GT ISZERO PUSH3 0x435 JUMPI PUSH0 DUP1 REVERT JUMPDEST PUSH3 0x443 DUP12 DUP4 DUP13 ADD PUSH3 0x2F6 JUMP JUMPDEST SWAP7 POP PUSH1 0x60 DUP11 ADD MLOAD SWAP2 POP DUP1 DUP3 GT ISZERO PUSH3 0x459 JUMPI PUSH0 DUP1 REVERT JUMPDEST POP PUSH3 0x468 DUP11 DUP3 DUP12 ADD PUSH3 0x2F6 JUMP JUMPDEST SWAP5 POP POP PUSH1 0x80 DUP9 ADD MLOAD SWAP3 POP PUSH3 0x480 PUSH1 0xA0 DUP10 ADD PUSH3 0x3A3 JUMP JUMPDEST SWAP2 POP PUSH3 0x490 PUSH1 0xC0 DUP10 ADD PUSH3 0x3A3 JUMP JUMPDEST SWAP1 POP SWAP3 SWAP6 SWAP9 SWAP2 SWAP5 SWAP8 POP SWAP3 SWAP6 POP JUMP JUMPDEST PUSH1 0x1 DUP2 DUP2 SHR SWAP1 DUP3 AND DUP1 PUSH3 0x4B3 JUMPI PUSH1 0x7F DUP3 AND SWAP2 POP JUMPDEST PUSH1 0x20 DUP3 LT DUP2 SUB PUSH3 0x4D2 JUMPI PUSH4 0x4E487B71 PUSH1 0xE0 SHL PUSH0 MSTORE PUSH1 0x22 PUSH1 0x4 MSTORE PUSH1 0x24 PUSH0 REVERT JUMPDEST POP SWAP2 SWAP1 POP JUMP JUMPDEST PUSH1 0x1F DUP3 GT ISZERO PUSH3 0x523 JUMPI DUP1 PUSH0 MSTORE PUSH1 0x20 PUSH0 KECCAK256 PUSH1 0x1F DUP5 ADD PUSH1 0x5 SHR DUP2 ADD PUSH1 0x20 DUP6 LT ISZERO PUSH3 0x4FF JUMPI POP DUP1 JUMPDEST PUSH1 0x1F DUP5 ADD PUSH1 0x5 SHR DUP3 ADD SWAP2 POP JUMPDEST DUP2 DUP2 LT ISZERO PUSH3 0x520 JUMPI PUSH0 DUP2 SSTORE PUSH1 0x1 ADD PUSH3 0x50B JUMP JUMPDEST POP POP JUMPDEST POP POP POP JUMP JUMPDEST DUP2 MLOAD PUSH1 0x1 PUSH1 0x1 PUSH1 0x40 SHL SUB DUP2 GT ISZERO PUSH3 0x544 JUMPI PUSH3 0x544 PUSH3 0x2E2 JUMP JUMPDEST PUSH3 0x55C DUP2 PUSH3 0x555 DUP5 SLOAD PUSH3 0x49E JUMP JUMPDEST DUP5 PUSH3 0x4D8 JUMP JUMPDEST PUSH1 0x20 DUP1 PUSH1 0x1F DUP4 GT PUSH1 0x1 DUP2 EQ PUSH3 0x592 JUMPI PUSH0 DUP5 ISZERO PUSH3 0x57A JUMPI POP DUP6 DUP4 ADD MLOAD JUMPDEST PUSH0 NOT PUSH1 0x3 DUP7 SWAP1 SHL SHR NOT AND PUSH1 0x1 DUP6 SWAP1 SHL OR DUP6 SSTORE PUSH3 0x5EC JUMP JUMPDEST PUSH0 DUP6 DUP2 MSTORE PUSH1 0x20 DUP2 KECCAK256 PUSH1 0x1F NOT DUP7 AND SWAP2 JUMPDEST DUP3 DUP2 LT ISZERO PUSH3 0x5C2 JUMPI DUP9 DUP7 ADD MLOAD DUP3 SSTORE SWAP5 DUP5 ADD SWAP5 PUSH1 0x1 SWAP1 SWAP2 ADD SWAP1 DUP5 ADD PUSH3 0x5A1 JUMP JUMPDEST POP DUP6 DUP3 LT ISZERO PUSH3 0x5E0 JUMPI DUP8 DUP6 ADD MLOAD PUSH0 NOT PUSH1 0x3 DUP9 SWAP1 SHL PUSH1 0xF8 AND SHR NOT AND DUP2 SSTORE JUMPDEST POP POP PUSH1 0x1 DUP5 PUSH1 0x1 SHL ADD DUP6 SSTORE JUMPDEST POP POP POP POP POP POP JUMP JUMPDEST PUSH4 0x4E487B71 PUSH1 0xE0 SHL PUSH0 MSTORE PUSH1 0x11 PUSH1 0x4 MSTORE PUSH1 0x24 PUSH0 REVERT JUMPDEST PUSH1 0x1 DUP2 DUP2 JUMPDEST DUP1 DUP6 GT ISZERO PUSH3 0x648 JUMPI DUP2 PUSH0 NOT DIV DUP3 GT ISZERO PUSH3 0x62C JUMPI PUSH3 0x62C PUSH3 0x5F4 JUMP JUMPDEST DUP1 DUP6 AND ISZERO PUSH3 0x63A JUMPI SWAP2 DUP2 MUL SWAP2 JUMPDEST SWAP4 DUP5 SHR SWAP4 SWAP1 DUP1 MUL SWAP1 PUSH3 0x60D JUMP JUMPDEST POP SWAP3 POP SWAP3 SWAP1 POP JUMP JUMPDEST PUSH0 DUP3 PUSH3 0x660 JUMPI POP PUSH1 0x1 PUSH3 0x6FD JUMP JUMPDEST DUP2 PUSH3 0x66E JUMPI POP PUSH0 PUSH3 0x6FD JUMP JUMPDEST DUP2 PUSH1 0x1 DUP2 EQ PUSH3 0x687 JUMPI PUSH1 0x2 DUP2 EQ PUSH3 0x692 JUMPI PUSH3 0x6B2 JUMP JUMPDEST PUSH1 0x1 SWAP2 POP POP PUSH3 0x6FD JUMP JUMPDEST PUSH1 0xFF DUP5 GT ISZERO PUSH3 0x6A6 JUMPI PUSH3 0x6A6 PUSH3 0x5F4 JUMP JUMPDEST POP POP PUSH1 0x1 DUP3 SHL PUSH3 0x6FD JUMP JUMPDEST POP PUSH1 0x20 DUP4 LT PUSH2 0x133 DUP4 LT AND PUSH1 0x4E DUP5 LT PUSH1 0xB DUP5 LT AND OR ISZERO PUSH3 0x6D7 JUMPI POP DUP2 DUP2 EXP PUSH3 0x6FD JUMP JUMPDEST PUSH3 0x6E3 DUP4 DUP4 PUSH3 0x608 JUMP JUMPDEST DUP1 PUSH0 NOT DIV DUP3 GT ISZERO PUSH3 0x6F9 JUMPI PUSH3 0x6F9 PUSH3 0x5F4 JUMP JUMPDEST MUL SWAP1 POP JUMPDEST SWAP3 SWAP2 POP POP JUMP JUMPDEST PUSH0 PUSH3 0x713 PUSH1 0xFF DUP5 AND DUP4 PUSH3 0x650 JUMP JUMPDEST SWAP4 SWAP3 POP POP POP JUMP JUMPDEST DUP1 DUP3 MUL DUP2 ISZERO DUP3 DUP3 DIV DUP5 EQ OR PUSH3 0x6FD JUMPI PUSH3 0x6FD PUSH3 0x5F4 JUMP JUMPDEST DUP1 DUP3 ADD DUP1 DUP3 GT ISZERO PUSH3 0x6FD JUMPI PUSH3 0x6FD PUSH3 0x5F4 JUMP JUMPDEST PUSH2 0x1143 DUP1 PUSH3 0x758 PUSH0 CODECOPY PUSH0 RETURN INVALID PUSH1 0x80 PUSH1 0x40 MSTORE PUSH1 0x4 CALLDATASIZE LT PUSH2 0x195 JUMPI PUSH0 CALLDATALOAD PUSH1 0xE0 SHR DUP1 PUSH4 0x7B97008D GT PUSH2 0xE7 JUMPI DUP1 PUSH4 0xBF2D9E0B GT PUSH2 0x87 JUMPI DUP1 PUSH4 0xDBE55E56 GT PUSH2 0x62 JUMPI DUP1 PUSH4 0xDBE55E56 EQ PUSH2 0x445 JUMPI DUP1 PUSH4 0xDD62ED3E EQ PUSH2 0x464 JUMPI DUP1 PUSH4 0xE548B2F4 EQ PUSH2 0x4A8 JUMPI DUP1 PUSH4 0xF2FDE38B EQ PUSH2 0x4C7 JUMPI PUSH0 DUP1 REVERT JUMPDEST DUP1 PUSH4 0xBF2D9E0B EQ PUSH2 0x3FD JUMPI DUP1 PUSH4 0xC735B839 EQ PUSH2 0x412 JUMPI DUP1 PUSH4 0xC89F3C4C EQ PUSH2 0x426 JUMPI PUSH0 DUP1 REVERT JUMPDEST DUP1 PUSH4 0x8DA5CB5B GT PUSH2 0xC2 JUMPI DUP1 PUSH4 0x8DA5CB5B EQ PUSH2 0x38E JUMPI DUP1 PUSH4 0x95D89B41 EQ PUSH2 0x3AB JUMPI DUP1 PUSH4 0xA90383F2 EQ PUSH2 0x3BF JUMPI DUP1 PUSH4 0xA9059CBB EQ PUSH2 0x3DE JUMPI PUSH0 DUP1 REVERT JUMPDEST DUP1 PUSH4 0x7B97008D EQ PUSH2 0x351 JUMPI DUP1 PUSH4 0x7C5E2795 EQ PUSH2 0x364 JUMPI DUP1 PUSH4 0x8C639A85 EQ PUSH2 0x379 JUMPI PUSH0 DUP1 REVERT JUMPDEST DUP1 PUSH4 0x4D8077DB GT PUSH2 0x152 JUMPI DUP1 PUSH4 0x5FE97E9F GT PUSH2 0x12D JUMPI DUP1 PUSH4 0x5FE97E9F EQ PUSH2 0x2BC JUMPI DUP1 PUSH4 0x68B441DD EQ PUSH2 0x2D0 JUMPI DUP1 PUSH4 0x70A08231 EQ PUSH2 0x307 JUMPI DUP1 PUSH4 0x715018A6 EQ PUSH2 0x33B JUMPI PUSH0 DUP1 REVERT JUMPDEST DUP1 PUSH4 0x4D8077DB EQ PUSH2 0x263 JUMPI DUP1 PUSH4 0x5ADDB188 EQ PUSH2 0x282 JUMPI DUP1 PUSH4 0x5F0A4811 EQ PUSH2 0x297 JUMPI PUSH0 DUP1 REVERT JUMPDEST DUP1 PUSH4 0x6FDDE03 EQ PUSH2 0x199 JUMPI DUP1 PUSH4 0x95EA7B3 EQ PUSH2 0x1C3 JUMPI DUP1 PUSH4 0xEEBF70C EQ PUSH2 0x1F2 JUMPI DUP1 PUSH4 0x18160DDD EQ PUSH2 0x215 JUMPI DUP1 PUSH4 0x23B872DD EQ PUSH2 0x229 JUMPI DUP1 PUSH4 0x313CE567 EQ PUSH2 0x248 JUMPI JUMPDEST PUSH0 DUP1 REVERT JUMPDEST CALLVALUE DUP1 ISZERO PUSH2 0x1A4 JUMPI PUSH0 DUP1 REVERT JUMPDEST POP PUSH2 0x1AD PUSH2 0x4E6 JUMP JUMPDEST PUSH1 0x40 MLOAD PUSH2 0x1BA SWAP2 SWAP1 PUSH2 0xF15 JUMP JUMPDEST PUSH1 0x40 MLOAD DUP1 SWAP2 SUB SWAP1 RETURN JUMPDEST CALLVALUE DUP1 ISZERO PUSH2 0x1CE JUMPI PUSH0 DUP1 REVERT JUMPDEST POP PUSH2 0x1E2 PUSH2 0x1DD CALLDATASIZE PUSH1 0x4 PUSH2 0xF49 JUMP JUMPDEST PUSH2 0x576 JUMP JUMPDEST PUSH1 0x40 MLOAD SWAP1 ISZERO ISZERO DUP2 MSTORE PUSH1 0x20 ADD PUSH2 0x1BA JUMP JUMPDEST CALLVALUE DUP1 ISZERO PUSH2 0x1FD JUMPI PUSH0 DUP1 REVERT JUMPDEST POP PUSH2 0x207 PUSH1 0x8 SLOAD DUP2 JUMP JUMPDEST PUSH1 0x40 MLOAD SWAP1 DUP2 MSTORE PUSH1 0x20 ADD PUSH2 0x1BA JUMP JUMPDEST CALLVALUE DUP1 ISZERO PUSH2 0x220 JUMPI PUSH0 DUP1 REVERT JUMPDEST POP PUSH1 0x2 SLOAD PUSH2 0x207 JUMP JUMPDEST CALLVALUE DUP1 ISZERO PUSH2 0x234 JUMPI PUSH0 DUP1 REVERT JUMPDEST POP PUSH2 0x1E2 PUSH2 0x243 CALLDATASIZE PUSH1 0x4 PUSH2 0xF71 JUMP JUMPDEST PUSH2 0x58F JUMP JUMPDEST CALLVALUE DUP1 ISZERO PUSH2 0x253 JUMPI PUSH0 DUP1 REVERT JUMPDEST POP PUSH1 0x40 MLOAD PUSH1 0x12 DUP2 MSTORE PUSH1 0x20 ADD PUSH2 0x1BA JUMP JUMPDEST CALLVALUE DUP1 ISZERO PUSH2 0x26E JUMPI PUSH0 DUP1 REVERT JUMPDEST POP PUSH2 0x1E2 PUSH2 0x27D CALLDATASIZE PUSH1 0x4 PUSH2 0xFAA JUMP JUMPDEST PUSH2 0x5B2 JUMP JUMPDEST CALLVALUE DUP1 ISZERO PUSH2 0x28D JUMPI PUSH0 DUP1 REVERT JUMPDEST POP PUSH2 0x207 PUSH1 0xC SLOAD DUP2 JUMP JUMPDEST CALLVALUE DUP1 ISZERO PUSH2 0x2A2 JUMPI PUSH0 DUP1 REVERT JUMPDEST POP PUSH2 0x2AB PUSH2 0x680 JUMP JUMPDEST PUSH1 0x40 MLOAD PUSH2 0x1BA SWAP6 SWAP5 SWAP4 SWAP3 SWAP2 SWAP1 PUSH2 0xFC1 JUMP JUMPDEST CALLVALUE DUP1 ISZERO PUSH2 0x2C7 JUMPI PUSH0 DUP1 REVERT JUMPDEST POP PUSH2 0x1AD PUSH2 0x7B8 JUMP JUMPDEST CALLVALUE DUP1 ISZERO PUSH2 0x2DB JUMPI PUSH0 DUP1 REVERT JUMPDEST POP PUSH1 0x9 SLOAD PUSH2 0x2EF SWAP1 PUSH1 0x1 PUSH1 0x1 PUSH1 0xA0 SHL SUB AND DUP2 JUMP JUMPDEST PUSH1 0x40 MLOAD PUSH1 0x1 PUSH1 0x1 PUSH1 0xA0 SHL SUB SWAP1 SWAP2 AND DUP2 MSTORE PUSH1 0x20 ADD PUSH2 0x1BA JUMP JUMPDEST CALLVALUE DUP1 ISZERO PUSH2 0x312 JUMPI PUSH0 DUP1 REVERT JUMPDEST POP PUSH2 0x207 PUSH2 0x321 CALLDATASIZE PUSH1 0x4 PUSH2 0x1003 JUMP JUMPDEST PUSH1 0x1 PUSH1 0x1 PUSH1 0xA0 SHL SUB AND PUSH0 SWAP1 DUP2 MSTORE PUSH1 0x20 DUP2 SWAP1 MSTORE PUSH1 0x40 SWAP1 KECCAK256 SLOAD SWAP1 JUMP JUMPDEST CALLVALUE DUP1 ISZERO PUSH2 0x346 JUMPI PUSH0 DUP1 REVERT JUMPDEST POP PUSH2 0x34F PUSH2 0x844 JUMP JUMPDEST STOP JUMPDEST PUSH2 0x34F PUSH2 0x35F CALLDATASIZE PUSH1 0x4 PUSH2 0xFAA JUMP JUMPDEST PUSH2 0x857 JUMP JUMPDEST CALLVALUE DUP1 ISZERO PUSH2 0x36F JUMPI PUSH0 DUP1 REVERT JUMPDEST POP PUSH2 0x207 PUSH2 0x3E8 DUP2 JUMP JUMPDEST CALLVALUE DUP1 ISZERO PUSH2 0x384 JUMPI PUSH0 DUP1 REVERT JUMPDEST POP PUSH2 0x207 PUSH1 0xB SLOAD DUP2 JUMP JUMPDEST CALLVALUE DUP1 ISZERO PUSH2 0x399 JUMPI PUSH0 DUP1 REVERT JUMPDEST POP PUSH1 0x5 SLOAD PUSH1 0x1 PUSH1 0x1 PUSH1 0xA0 SHL SUB AND PUSH2 0x2EF JUMP JUMPDEST CALLVALUE DUP1 ISZERO PUSH2 0x3B6 JUMPI PUSH0 DUP1 REVERT JUMPDEST POP PUSH2 0x1AD PUSH2 0x912 JUMP JUMPDEST CALLVALUE DUP1 ISZERO PUSH2 0x3CA JUMPI PUSH0 DUP1 REVERT JUMPDEST POP PUSH2 0x34F PUSH2 0x3D9 CALLDATASIZE PUSH1 0x4 PUSH2 0xF49 JUMP JUMPDEST PUSH2 0x921 JUMP JUMPDEST CALLVALUE DUP1 ISZERO PUSH2 0x3E9 JUMPI PUSH0 DUP1 REVERT JUMPDEST POP PUSH2 0x1E2 PUSH2 0x3F8 CALLDATASIZE PUSH1 0x4 PUSH2 0xF49 JUMP JUMPDEST PUSH2 0xA39 JUMP JUMPDEST CALLVALUE DUP1 ISZERO PUSH2 0x408 JUMPI PUSH0 DUP1 REVERT JUMPDEST POP PUSH2 0x207 PUSH1 0xD SLOAD DUP2 JUMP JUMPDEST CALLVALUE DUP1 ISZERO PUSH2 0x41D JUMPI PUSH0 DUP1 REVERT JUMPDEST POP PUSH2 0x1AD PUSH2 0xA46 JUMP JUMPDEST CALLVALUE DUP1 ISZERO PUSH2 0x431 JUMPI PUSH0 DUP1 REVERT JUMPDEST POP PUSH2 0x34F PUSH2 0x440 CALLDATASIZE PUSH1 0x4 PUSH2 0xFAA JUMP JUMPDEST PUSH2 0xA53 JUMP JUMPDEST CALLVALUE DUP1 ISZERO PUSH2 0x450 JUMPI PUSH0 DUP1 REVERT JUMPDEST POP PUSH1 0xA SLOAD PUSH2 0x2EF SWAP1 PUSH1 0x1 PUSH1 0x1 PUSH1 0xA0 SHL SUB AND DUP2 JUMP JUMPDEST CALLVALUE DUP1 ISZERO PUSH2 0x46F JUMPI PUSH0 DUP1 REVERT JUMPDEST POP PUSH2 0x207 PUSH2 0x47E CALLDATASIZE PUSH1 0x4 PUSH2 0x101C JUMP JUMPDEST PUSH1 0x1 PUSH1 0x1 PUSH1 0xA0 SHL SUB SWAP2 DUP3 AND PUSH0 SWAP1 DUP2 MSTORE PUSH1 0x1 PUSH1 0x20 SWAP1 DUP2 MSTORE PUSH1 0x40 DUP1 DUP4 KECCAK256 SWAP4 SWAP1 SWAP5 AND DUP3 MSTORE SWAP2 SWAP1 SWAP2 MSTORE KECCAK256 SLOAD SWAP1 JUMP JUMPDEST CALLVALUE DUP1 ISZERO PUSH2 0x4B3 JUMPI PUSH0 DUP1 REVERT JUMPDEST POP PUSH2 0x1E2 PUSH2 0x4C2 CALLDATASIZE PUSH1 0x4 PUSH2 0x1003 JUMP JUMPDEST PUSH2 0xB0D JUMP JUMPDEST CALLVALUE DUP1 ISZERO PUSH2 0x4D2 JUMPI PUSH0 DUP1 REVERT JUMPDEST POP PUSH2 0x34F PUSH2 0x4E1 CALLDATASIZE PUSH1 0x4 PUSH2 0x1003 JUMP JUMPDEST PUSH2 0xB37 JUMP JUMPDEST PUSH1 0x60 PUSH1 0x3 DUP1 SLOAD PUSH2 0x4F5 SWAP1 PUSH2 0x104D JUMP JUMPDEST DUP1 PUSH1 0x1F ADD PUSH1 0x20 DUP1 SWAP2 DIV MUL PUSH1 0x20 ADD PUSH1 0x40 MLOAD SWAP1 DUP2 ADD PUSH1 0x40 MSTORE DUP1 SWAP3 SWAP2 SWAP1 DUP2 DUP2 MSTORE PUSH1 0x20 ADD DUP3 DUP1 SLOAD PUSH2 0x521 SWAP1 PUSH2 0x104D JUMP JUMPDEST DUP1 ISZERO PUSH2 0x56C JUMPI DUP1 PUSH1 0x1F LT PUSH2 0x543 JUMPI PUSH2 0x100 DUP1 DUP4 SLOAD DIV MUL DUP4 MSTORE SWAP2 PUSH1 0x20 ADD SWAP2 PUSH2 0x56C JUMP JUMPDEST DUP3 ADD SWAP2 SWAP1 PUSH0 MSTORE PUSH1 0x20 PUSH0 KECCAK256 SWAP1 JUMPDEST DUP2 SLOAD DUP2 MSTORE SWAP1 PUSH1 0x1 ADD SWAP1 PUSH1 0x20 ADD DUP1 DUP4 GT PUSH2 0x54F JUMPI DUP3 SWAP1 SUB PUSH1 0x1F AND DUP3 ADD SWAP2 JUMPDEST POP POP POP POP POP SWAP1 POP SWAP1 JUMP JUMPDEST PUSH0 CALLER PUSH2 0x583 DUP2 DUP6 DUP6 PUSH2 0xB71 JUMP JUMPDEST PUSH1 0x1 SWAP2 POP POP JUMPDEST SWAP3 SWAP2 POP POP JUMP JUMPDEST PUSH0 CALLER PUSH2 0x59C DUP6 DUP3 DUP6 PUSH2 0xB83 JUMP JUMPDEST PUSH2 0x5A7 DUP6 DUP6 DUP6 PUSH2 0xBFF JUMP JUMPDEST POP PUSH1 0x1 SWAP5 SWAP4 POP POP POP POP JUMP JUMPDEST PUSH1 0x8 SLOAD CALLER PUSH0 SWAP1 DUP2 MSTORE PUSH1 0x20 DUP2 SWAP1 MSTORE PUSH1 0x40 DUP2 KECCAK256 SLOAD SWAP1 SWAP2 GT ISZERO PUSH2 0x619 JUMPI PUSH1 0x40 MLOAD PUSH3 0x461BCD PUSH1 0xE5 SHL DUP2 MSTORE PUSH1 0x20 PUSH1 0x4 DUP3 ADD MSTORE PUSH1 0x1A PUSH1 0x24 DUP3 ADD MSTORE PUSH32 0x496E73756666696369656E7420746F6B656E2062616C616E6365000000000000 PUSH1 0x44 DUP3 ADD MSTORE PUSH1 0x64 ADD JUMPDEST PUSH1 0x40 MLOAD DUP1 SWAP2 SUB SWAP1 REVERT JUMPDEST PUSH2 0x626 CALLER ADDRESS PUSH1 0x8 SLOAD PUSH2 0xBFF JUMP JUMPDEST PUSH1 0xC DUP1 SLOAD SWAP1 PUSH0 PUSH2 0x635 DUP4 PUSH2 0x1099 JUMP JUMPDEST SWAP1 SWAP2 SSTORE POP POP PUSH1 0x8 SLOAD PUSH1 0x40 DUP1 MLOAD SWAP2 DUP3 MSTORE PUSH1 0x20 DUP3 ADD DUP5 SWAP1 MSTORE CALLER SWAP2 PUSH32 0x9632C3BF697C32E051B2E203826012FD7A04FD38CC3166F6349DB96FF7EB06FC SWAP2 ADD PUSH1 0x40 MLOAD DUP1 SWAP2 SUB SWAP1 LOG2 POP PUSH1 0x1 SWAP2 SWAP1 POP JUMP JUMPDEST PUSH1 0x60 DUP1 PUSH0 DUP1 PUSH0 PUSH1 0x6 PUSH1 0x7 PUSH1 0x8 SLOAD PUSH1 0xC SLOAD PUSH1 0xD SLOAD DUP5 DUP1 SLOAD PUSH2 0x69F SWAP1 PUSH2 0x104D JUMP JUMPDEST DUP1 PUSH1 0x1F ADD PUSH1 0x20 DUP1 SWAP2 DIV MUL PUSH1 0x20 ADD PUSH1 0x40 MLOAD SWAP1 DUP2 ADD PUSH1 0x40 MSTORE DUP1 SWAP3 SWAP2 SWAP1 DUP2 DUP2 MSTORE PUSH1 0x20 ADD DUP3 DUP1 SLOAD PUSH2 0x6CB SWAP1 PUSH2 0x104D JUMP JUMPDEST DUP1 ISZERO PUSH2 0x716 JUMPI DUP1 PUSH1 0x1F LT PUSH2 0x6ED JUMPI PUSH2 0x100 DUP1 DUP4 SLOAD DIV MUL DUP4 MSTORE SWAP2 PUSH1 0x20 ADD SWAP2 PUSH2 0x716 JUMP JUMPDEST DUP3 ADD SWAP2 SWAP1 PUSH0 MSTORE PUSH1 0x20 PUSH0 KECCAK256 SWAP1 JUMPDEST DUP2 SLOAD DUP2 MSTORE SWAP1 PUSH1 0x1 ADD SWAP1 PUSH1 0x20 ADD DUP1 DUP4 GT PUSH2 0x6F9 JUMPI DUP3 SWAP1 SUB PUSH1 0x1F AND DUP3 ADD SWAP2 JUMPDEST POP POP POP POP POP SWAP5 POP DUP4 DUP1 SLOAD PUSH2 0x729 SWAP1 PUSH2 0x104D JUMP JUMPDEST DUP1 PUSH1 0x1F ADD PUSH1 0x20 DUP1 SWAP2 DIV MUL PUSH1 0x20 ADD PUSH1 0x40 MLOAD SWAP1 DUP2 ADD PUSH1 0x40 MSTORE DUP1 SWAP3 SWAP2 SWAP1 DUP2 DUP2 MSTORE PUSH1 0x20 ADD DUP3 DUP1 SLOAD PUSH2 0x755 SWAP1 PUSH2 0x104D JUMP JUMPDEST DUP1 ISZERO PUSH2 0x7A0 JUMPI DUP1 PUSH1 0x1F LT PUSH2 0x777 JUMPI PUSH2 0x100 DUP1 DUP4 SLOAD DIV MUL DUP4 MSTORE SWAP2 PUSH1 0x20 ADD SWAP2 PUSH2 0x7A0 JUMP JUMPDEST DUP3 ADD SWAP2 SWAP1 PUSH0 MSTORE PUSH1 0x20 PUSH0 KECCAK256 SWAP1 JUMPDEST DUP2 SLOAD DUP2 MSTORE SWAP1 PUSH1 0x1 ADD SWAP1 PUSH1 0x20 ADD DUP1 DUP4 GT PUSH2 0x783 JUMPI DUP3 SWAP1 SUB PUSH1 0x1F AND DUP3 ADD SWAP2 JUMPDEST POP POP POP POP POP SWAP4 POP SWAP5 POP SWAP5 POP SWAP5 POP SWAP5 POP SWAP5 POP SWAP1 SWAP2 SWAP3 SWAP4 SWAP5 JUMP JUMPDEST PUSH1 0x7 DUP1 SLOAD PUSH2 0x7C5 SWAP1 PUSH2 0x104D JUMP JUMPDEST DUP1 PUSH1 0x1F ADD PUSH1 0x20 DUP1 SWAP2 DIV MUL PUSH1 0x20 ADD PUSH1 0x40 MLOAD SWAP1 DUP2 ADD PUSH1 0x40 MSTORE DUP1 SWAP3 SWAP2 SWAP1 DUP2 DUP2 MSTORE PUSH1 0x20 ADD DUP3 DUP1 SLOAD PUSH2 0x7F1 SWAP1 PUSH2 0x104D JUMP JUMPDEST DUP1 ISZERO PUSH2 0x83C JUMPI DUP1 PUSH1 0x1F LT PUSH2 0x813 JUMPI PUSH2 0x100 DUP1 DUP4 SLOAD DIV MUL DUP4 MSTORE SWAP2 PUSH1 0x20 ADD SWAP2 PUSH2 0x83C JUMP JUMPDEST DUP3 ADD SWAP2 SWAP1 PUSH0 MSTORE PUSH1 0x20 PUSH0 KECCAK256 SWAP1 JUMPDEST DUP2 SLOAD DUP2 MSTORE SWAP1 PUSH1 0x1 ADD SWAP1 PUSH1 0x20 ADD DUP1 DUP4 GT PUSH2 0x81F JUMPI DUP3 SWAP1 SUB PUSH1 0x1F AND DUP3 ADD SWAP2 JUMPDEST POP POP POP POP POP DUP2 JUMP JUMPDEST PUSH2 0x84C PUSH2 0xC5C JUMP JUMPDEST PUSH2 0x855 PUSH0 PUSH2 0xC89 JUMP JUMPDEST JUMP JUMPDEST PUSH0 DUP2 GT PUSH2 0x8A6 JUMPI PUSH1 0x40 MLOAD PUSH3 0x461BCD PUSH1 0xE5 SHL DUP2 MSTORE PUSH1 0x20 PUSH1 0x4 DUP3 ADD MSTORE PUSH1 0x1D PUSH1 0x24 DUP3 ADD MSTORE PUSH32 0x416D6F756E74206D7573742062652067726561746572207468616E2030000000 PUSH1 0x44 DUP3 ADD MSTORE PUSH1 0x64 ADD PUSH2 0x610 JUMP JUMPDEST ADDRESS PUSH0 SWAP1 DUP2 MSTORE PUSH1 0x20 DUP2 SWAP1 MSTORE PUSH1 0x40 SWAP1 KECCAK256 SLOAD DUP2 GT ISZERO PUSH2 0x904 JUMPI PUSH1 0x40 MLOAD PUSH3 0x461BCD PUSH1 0xE5 SHL DUP2 MSTORE PUSH1 0x20 PUSH1 0x4 DUP3 ADD MSTORE PUSH1 0x1B PUSH1 0x24 DUP3 ADD MSTORE PUSH32 0x4E6F7420656E6F75676820746F6B656E7320617661696C61626C650000000000 PUSH1 0x44 DUP3 ADD MSTORE PUSH1 0x64 ADD PUSH2 0x610 JUMP JUMPDEST PUSH2 0x90F ADDRESS CALLER DUP4 PUSH2 0xBFF JUMP JUMPDEST POP JUMP JUMPDEST PUSH1 0x60 PUSH1 0x4 DUP1 SLOAD PUSH2 0x4F5 SWAP1 PUSH2 0x104D JUMP JUMPDEST PUSH2 0x929 PUSH2 0xC5C JUMP JUMPDEST PUSH0 PUSH1 0x64 PUSH1 0xB SLOAD PUSH1 0x8 SLOAD PUSH2 0x93C SWAP2 SWAP1 PUSH2 0x10B1 JUMP JUMPDEST PUSH2 0x946 SWAP2 SWAP1 PUSH2 0x10C8 JUMP JUMPDEST SWAP1 POP PUSH0 DUP2 PUSH1 0x8 SLOAD PUSH2 0x957 SWAP2 SWAP1 PUSH2 0x10E7 JUMP JUMPDEST SWAP1 POP DUP1 ISZERO PUSH2 0x977 JUMPI PUSH1 0x9 SLOAD PUSH2 0x977 SWAP1 ADDRESS SWAP1 PUSH1 0x1 PUSH1 0x1 PUSH1 0xA0 SHL SUB AND DUP4 PUSH2 0xBFF JUMP JUMPDEST DUP2 ISZERO PUSH2 0x995 JUMPI PUSH1 0xA SLOAD PUSH2 0x995 SWAP1 ADDRESS SWAP1 PUSH1 0x1 PUSH1 0x1 PUSH1 0xA0 SHL SUB AND DUP5 PUSH2 0xBFF JUMP JUMPDEST PUSH1 0x8 SLOAD PUSH1 0xD PUSH0 DUP3 DUP3 SLOAD PUSH2 0x9A8 SWAP2 SWAP1 PUSH2 0x10FA JUMP JUMPDEST SWAP1 SWAP2 SSTORE POP POP PUSH1 0x40 MLOAD DUP4 DUP2 MSTORE PUSH1 0x1 PUSH1 0x1 PUSH1 0xA0 SHL SUB DUP6 AND SWAP1 PUSH32 0xE6E1218ED77A67A1FFE384349D426686653073B477F81B238B44612FD34860DE SWAP1 PUSH1 0x20 ADD PUSH1 0x40 MLOAD DUP1 SWAP2 SUB SWAP1 LOG2 PUSH1 0x9 SLOAD PUSH1 0x40 DUP1 MLOAD DUP4 DUP2 MSTORE PUSH1 0x20 DUP2 ADD DUP6 SWAP1 MSTORE PUSH1 0x1 PUSH1 0x1 PUSH1 0xA0 SHL SUB SWAP1 SWAP3 AND SWAP2 PUSH32 0x23C66D89E0135AAEA90EAE0A65F26E5CE7B564834613AD71F4C7FF723354F13E SWAP2 ADD PUSH1 0x40 MLOAD DUP1 SWAP2 SUB SWAP1 LOG2 POP POP POP POP JUMP JUMPDEST PUSH0 CALLER PUSH2 0x583 DUP2 DUP6 DUP6 PUSH2 0xBFF JUMP JUMPDEST PUSH1 0x6 DUP1 SLOAD PUSH2 0x7C5 SWAP1 PUSH2 0x104D JUMP JUMPDEST PUSH1 0x9 SLOAD PUSH1 0x1 PUSH1 0x1 PUSH1 0xA0 SHL SUB AND CALLER EQ DUP1 PUSH2 0xA76 JUMPI POP PUSH1 0x5 SLOAD PUSH1 0x1 PUSH1 0x1 PUSH1 0xA0 SHL SUB AND CALLER EQ JUMPDEST PUSH2 0xAB9 JUMPI PUSH1 0x40 MLOAD PUSH3 0x461BCD PUSH1 0xE5 SHL DUP2 MSTORE PUSH1 0x20 PUSH1 0x4 DUP3 ADD MSTORE PUSH1 0x14 PUSH1 0x24 DUP3 ADD MSTORE PUSH20 0x27B7363C9032BC3832B93A1037B91037BBB732B9 PUSH1 0x61 SHL PUSH1 0x44 DUP3 ADD MSTORE PUSH1 0x64 ADD PUSH2 0x610 JUMP JUMPDEST PUSH0 DUP2 GT PUSH2 0xB08 JUMPI PUSH1 0x40 MLOAD PUSH3 0x461BCD PUSH1 0xE5 SHL DUP2 MSTORE PUSH1 0x20 PUSH1 0x4 DUP3 ADD MSTORE PUSH1 0x1B PUSH1 0x24 DUP3 ADD MSTORE PUSH32 0x436F7374206D7573742062652067726561746572207468616E20300000000000 PUSH1 0x44 DUP3 ADD MSTORE PUSH1 0x64 ADD PUSH2 0x610 JUMP JUMPDEST PUSH1 0x8 SSTORE JUMP JUMPDEST PUSH0 PUSH1 0x8 SLOAD PUSH2 0xB2F DUP4 PUSH1 0x1 PUSH1 0x1 PUSH1 0xA0 SHL SUB AND PUSH0 SWAP1 DUP2 MSTORE PUSH1 0x20 DUP2 SWAP1 MSTORE PUSH1 0x40 SWAP1 KECCAK256 SLOAD SWAP1 JUMP JUMPDEST LT ISZERO SWAP3 SWAP2 POP POP JUMP JUMPDEST PUSH2 0xB3F PUSH2 0xC5C JUMP JUMPDEST PUSH1 0x1 PUSH1 0x1 PUSH1 0xA0 SHL SUB DUP2 AND PUSH2 0xB68 JUMPI PUSH1 0x40 MLOAD PUSH4 0x1E4FBDF7 PUSH1 0xE0 SHL DUP2 MSTORE PUSH0 PUSH1 0x4 DUP3 ADD MSTORE PUSH1 0x24 ADD PUSH2 0x610 JUMP JUMPDEST PUSH2 0x90F DUP2 PUSH2 0xC89 JUMP JUMPDEST PUSH2 0xB7E DUP4 DUP4 DUP4 PUSH1 0x1 PUSH2 0xCDA JUMP JUMPDEST POP POP POP JUMP JUMPDEST PUSH1 0x1 PUSH1 0x1 PUSH1 0xA0 SHL SUB DUP4 DUP2 AND PUSH0 SWAP1 DUP2 MSTORE PUSH1 0x1 PUSH1 0x20 SWAP1 DUP2 MSTORE PUSH1 0x40 DUP1 DUP4 KECCAK256 SWAP4 DUP7 AND DUP4 MSTORE SWAP3 SWAP1 MSTORE KECCAK256 SLOAD PUSH0 NOT DUP2 LT ISZERO PUSH2 0xBF9 JUMPI DUP2 DUP2 LT ISZERO PUSH2 0xBEB JUMPI PUSH1 0x40 MLOAD PUSH4 0x7DC7A0D9 PUSH1 0xE1 SHL DUP2 MSTORE PUSH1 0x1 PUSH1 0x1 PUSH1 0xA0 SHL SUB DUP5 AND PUSH1 0x4 DUP3 ADD MSTORE PUSH1 0x24 DUP2 ADD DUP3 SWAP1 MSTORE PUSH1 0x44 DUP2 ADD DUP4 SWAP1 MSTORE PUSH1 0x64 ADD PUSH2 0x610 JUMP JUMPDEST PUSH2 0xBF9 DUP5 DUP5 DUP5 DUP5 SUB PUSH0 PUSH2 0xCDA JUMP JUMPDEST POP POP POP POP JUMP JUMPDEST PUSH1 0x1 PUSH1 0x1 PUSH1 0xA0 SHL SUB DUP4 AND PUSH2 0xC28 JUMPI PUSH1 0x40 MLOAD PUSH4 0x4B637E8F PUSH1 0xE1 SHL DUP2 MSTORE PUSH0 PUSH1 0x4 DUP3 ADD MSTORE PUSH1 0x24 ADD PUSH2 0x610 JUMP JUMPDEST PUSH1 0x1 PUSH1 0x1 PUSH1 0xA0 SHL SUB DUP3 AND PUSH2 0xC51 JUMPI PUSH1 0x40 MLOAD PUSH4 0xEC442F05 PUSH1 0xE0 SHL DUP2 MSTORE PUSH0 PUSH1 0x4 DUP3 ADD MSTORE PUSH1 0x24 ADD PUSH2 0x610 JUMP JUMPDEST PUSH2 0xB7E DUP4 DUP4 DUP4 PUSH2 0xDAC JUMP JUMPDEST PUSH1 0x5 SLOAD PUSH1 0x1 PUSH1 0x1 PUSH1 0xA0 SHL SUB AND CALLER EQ PUSH2 0x855 JUMPI PUSH1 0x40 MLOAD PUSH4 0x118CDAA7 PUSH1 0xE0 SHL DUP2 MSTORE CALLER PUSH1 0x4 DUP3 ADD MSTORE PUSH1 0x24 ADD PUSH2 0x610 JUMP JUMPDEST PUSH1 0x5 DUP1 SLOAD PUSH1 0x1 PUSH1 0x1 PUSH1 0xA0 SHL SUB DUP4 DUP2 AND PUSH1 0x1 PUSH1 0x1 PUSH1 0xA0 SHL SUB NOT DUP4 AND DUP2 OR SWAP1 SWAP4 SSTORE PUSH1 0x40 MLOAD SWAP2 AND SWAP2 SWAP1 DUP3 SWAP1 PUSH32 0x8BE0079C531659141344CD1FD0A4F28419497F9722A3DAAFE3B4186F6B6457E0 SWAP1 PUSH0 SWAP1 LOG3 POP POP JUMP JUMPDEST PUSH1 0x1 PUSH1 0x1 PUSH1 0xA0 SHL SUB DUP5 AND PUSH2 0xD03 JUMPI PUSH1 0x40 MLOAD PUSH4 0xE602DF05 PUSH1 0xE0 SHL DUP2 MSTORE PUSH0 PUSH1 0x4 DUP3 ADD MSTORE PUSH1 0x24 ADD PUSH2 0x610 JUMP JUMPDEST PUSH1 0x1 PUSH1 0x1 PUSH1 0xA0 SHL SUB DUP4 AND PUSH2 0xD2C JUMPI PUSH1 0x40 MLOAD PUSH4 0x4A1406B1 PUSH1 0xE1 SHL DUP2 MSTORE PUSH0 PUSH1 0x4 DUP3 ADD MSTORE PUSH1 0x24 ADD PUSH2 0x610 JUMP JUMPDEST PUSH1 0x1 PUSH1 0x1 PUSH1 0xA0 SHL SUB DUP1 DUP6 AND PUSH0 SWAP1 DUP2 MSTORE PUSH1 0x1 PUSH1 0x20 SWAP1 DUP2 MSTORE PUSH1 0x40 DUP1 DUP4 KECCAK256 SWAP4 DUP8 AND DUP4 MSTORE SWAP3 SWAP1 MSTORE KECCAK256 DUP3 SWAP1 SSTORE DUP1 ISZERO PUSH2 0xBF9 JUMPI DUP3 PUSH1 0x1 PUSH1 0x1 PUSH1 0xA0 SHL SUB AND DUP5 PUSH1 0x1 PUSH1 0x1 PUSH1 0xA0 SHL SUB AND PUSH32 0x8C5BE1E5EBEC7D5BD14F71427D1E84F3DD0314C0F7B2291E5B200AC8C7C3B925 DUP5 PUSH1 0x40 MLOAD PUSH2 0xD9E SWAP2 DUP2 MSTORE PUSH1 0x20 ADD SWAP1 JUMP JUMPDEST PUSH1 0x40 MLOAD DUP1 SWAP2 SUB SWAP1 LOG3 POP POP POP POP JUMP JUMPDEST PUSH1 0x1 PUSH1 0x1 PUSH1 0xA0 SHL SUB DUP4 AND PUSH2 0xDD6 JUMPI DUP1 PUSH1 0x2 PUSH0 DUP3 DUP3 SLOAD PUSH2 0xDCB SWAP2 SWAP1 PUSH2 0x10FA JUMP JUMPDEST SWAP1 SWAP2 SSTORE POP PUSH2 0xE46 SWAP1 POP JUMP JUMPDEST PUSH1 0x1 PUSH1 0x1 PUSH1 0xA0 SHL SUB DUP4 AND PUSH0 SWAP1 DUP2 MSTORE PUSH1 0x20 DUP2 SWAP1 MSTORE PUSH1 0x40 SWAP1 KECCAK256 SLOAD DUP2 DUP2 LT ISZERO PUSH2 0xE28 JUMPI PUSH1 0x40 MLOAD PUSH4 0x391434E3 PUSH1 0xE2 SHL DUP2 MSTORE PUSH1 0x1 PUSH1 0x1 PUSH1 0xA0 SHL SUB DUP6 AND PUSH1 0x4 DUP3 ADD MSTORE PUSH1 0x24 DUP2 ADD DUP3 SWAP1 MSTORE PUSH1 0x44 DUP2 ADD DUP4 SWAP1 MSTORE PUSH1 0x64 ADD PUSH2 0x610 JUMP JUMPDEST PUSH1 0x1 PUSH1 0x1 PUSH1 0xA0 SHL SUB DUP5 AND PUSH0 SWAP1 DUP2 MSTORE PUSH1 0x20 DUP2 SWAP1 MSTORE PUSH1 0x40 SWAP1 KECCAK256 SWAP1 DUP3 SWAP1 SUB SWAP1 SSTORE JUMPDEST PUSH1 0x1 PUSH1 0x1 PUSH1 0xA0 SHL SUB DUP3 AND PUSH2 0xE62 JUMPI PUSH1 0x2 DUP1 SLOAD DUP3 SWAP1 SUB SWAP1 SSTORE PUSH2 0xE80 JUMP JUMPDEST PUSH1 0x1 PUSH1 0x1 PUSH1 0xA0 SHL SUB DUP3 AND PUSH0 SWAP1 DUP2 MSTORE PUSH1 0x20 DUP2 SWAP1 MSTORE PUSH1 0x40 SWAP1 KECCAK256 DUP1 SLOAD DUP3 ADD SWAP1 SSTORE JUMPDEST DUP2 PUSH1 0x1 PUSH1 0x1 PUSH1 0xA0 SHL SUB AND DUP4 PUSH1 0x1 PUSH1 0x1 PUSH1 0xA0 SHL SUB AND PUSH32 0xDDF252AD1BE2C89B69C2B068FC378DAA952BA7F163C4A11628F55A4DF523B3EF DUP4 PUSH1 0x40 MLOAD PUSH2 0xEC5 SWAP2 DUP2 MSTORE PUSH1 0x20 ADD SWAP1 JUMP JUMPDEST PUSH1 0x40 MLOAD DUP1 SWAP2 SUB SWAP1 LOG3 POP POP POP JUMP JUMPDEST PUSH0 DUP2 MLOAD DUP1 DUP5 MSTORE PUSH0 JUMPDEST DUP2 DUP2 LT ISZERO PUSH2 0xEF6 JUMPI PUSH1 0x20 DUP2 DUP6 ADD DUP2 ADD MLOAD DUP7 DUP4 ADD DUP3 ADD MSTORE ADD PUSH2 0xEDA JUMP JUMPDEST POP PUSH0 PUSH1 0x20 DUP3 DUP7 ADD ADD MSTORE PUSH1 0x20 PUSH1 0x1F NOT PUSH1 0x1F DUP4 ADD AND DUP6 ADD ADD SWAP2 POP POP SWAP3 SWAP2 POP POP JUMP JUMPDEST PUSH1 0x20 DUP2 MSTORE PUSH0 PUSH2 0xF27 PUSH1 0x20 DUP4 ADD DUP5 PUSH2 0xED2 JUMP JUMPDEST SWAP4 SWAP3 POP POP POP JUMP JUMPDEST DUP1 CALLDATALOAD PUSH1 0x1 PUSH1 0x1 PUSH1 0xA0 SHL SUB DUP2 AND DUP2 EQ PUSH2 0xF44 JUMPI PUSH0 DUP1 REVERT JUMPDEST SWAP2 SWAP1 POP JUMP JUMPDEST PUSH0 DUP1 PUSH1 0x40 DUP4 DUP6 SUB SLT ISZERO PUSH2 0xF5A JUMPI PUSH0 DUP1 REVERT JUMPDEST PUSH2 0xF63 DUP4 PUSH2 0xF2E JUMP JUMPDEST SWAP5 PUSH1 0x20 SWAP4 SWAP1 SWAP4 ADD CALLDATALOAD SWAP4 POP POP POP JUMP JUMPDEST PUSH0 DUP1 PUSH0 PUSH1 0x60 DUP5 DUP7 SUB SLT ISZERO PUSH2 0xF83 JUMPI PUSH0 DUP1 REVERT JUMPDEST PUSH2 0xF8C DUP5 PUSH2 0xF2E JUMP JUMPDEST SWAP3 POP PUSH2 0xF9A PUSH1 0x20 DUP6 ADD PUSH2 0xF2E JUMP JUMPDEST SWAP2 POP PUSH1 0x40 DUP5 ADD CALLDATALOAD SWAP1 POP SWAP3 POP SWAP3 POP SWAP3 JUMP JUMPDEST PUSH0 PUSH1 0x20 DUP3 DUP5 SUB SLT ISZERO PUSH2 0xFBA JUMPI PUSH0 DUP1 REVERT JUMPDEST POP CALLDATALOAD SWAP2 SWAP1 POP JUMP JUMPDEST PUSH1 0xA0 DUP2 MSTORE PUSH0 PUSH2 0xFD3 PUSH1 0xA0 DUP4 ADD DUP9 PUSH2 0xED2 JUMP JUMPDEST DUP3 DUP2 SUB PUSH1 0x20 DUP5 ADD MSTORE PUSH2 0xFE5 DUP2 DUP9 PUSH2 0xED2 JUMP JUMPDEST PUSH1 0x40 DUP5 ADD SWAP7 SWAP1 SWAP7 MSTORE POP POP PUSH1 0x60 DUP2 ADD SWAP3 SWAP1 SWAP3 MSTORE PUSH1 0x80 SWAP1 SWAP2 ADD MSTORE SWAP3 SWAP2 POP POP JUMP JUMPDEST PUSH0 PUSH1 0x20 DUP3 DUP5 SUB SLT ISZERO PUSH2 0x1013 JUMPI PUSH0 DUP1 REVERT JUMPDEST PUSH2 0xF27 DUP3 PUSH2 0xF2E JUMP JUMPDEST PUSH0 DUP1 PUSH1 0x40 DUP4 DUP6 SUB SLT ISZERO PUSH2 0x102D JUMPI PUSH0 DUP1 REVERT JUMPDEST PUSH2 0x1036 DUP4 PUSH2 0xF2E JUMP JUMPDEST SWAP2 POP PUSH2 0x1044 PUSH1 0x20 DUP5 ADD PUSH2 0xF2E JUMP JUMPDEST SWAP1 POP SWAP3 POP SWAP3 SWAP1 POP JUMP JUMPDEST PUSH1 0x1 DUP2 DUP2 SHR SWAP1 DUP3 AND DUP1 PUSH2 0x1061 JUMPI PUSH1 0x7F DUP3 AND SWAP2 POP JUMPDEST PUSH1 0x20 DUP3 LT DUP2 SUB PUSH2 0x107F JUMPI PUSH4 0x4E487B71 PUSH1 0xE0 SHL PUSH0 MSTORE PUSH1 0x22 PUSH1 0x4 MSTORE PUSH1 0x24 PUSH0 REVERT JUMPDEST POP SWAP2 SWAP1 POP JUMP JUMPDEST PUSH4 0x4E487B71 PUSH1 0xE0 SHL PUSH0 MSTORE PUSH1 0x11 PUSH1 0x4 MSTORE PUSH1 0x24 PUSH0 REVERT JUMPDEST PUSH0 PUSH1 0x1 DUP3 ADD PUSH2 0x10AA JUMPI PUSH2 0x10AA PUSH2 0x1085 JUMP JUMPDEST POP PUSH1 0x1 ADD SWAP1 JUMP JUMPDEST DUP1 DUP3 MUL DUP2 ISZERO DUP3 DUP3 DIV DUP5 EQ OR PUSH2 0x589 JUMPI PUSH2 0x589 PUSH2 0x1085 JUMP JUMPDEST PUSH0 DUP3 PUSH2 0x10E2 JUMPI PUSH4 0x4E487B71 PUSH1 0xE0 SHL PUSH0 MSTORE PUSH1 0x12 PUSH1 0x4 MSTORE PUSH1 0x24 PUSH0 REVERT JUMPDEST POP DIV SWAP1 JUMP JUMPDEST DUP2 DUP2 SUB DUP2 DUP2 GT ISZERO PUSH2 0x589 JUMPI PUSH2 0x589 PUSH2 0x1085 JUMP JUMPDEST DUP1 DUP3 ADD DUP1 DUP3 GT ISZERO PUSH2 0x589 JUMPI PUSH2 0x589 PUSH2 0x1085 JUMP INVALID LOG2 PUSH5 0x6970667358 0x22 SLT KECCAK256 0xB2 0xB4 0xE0 SWAP4 DUP5 0xAF JUMPDEST POP DIV CALLDATASIZE PUSH23 0x94672105B5B4A21A2864E458750E7C2D12514B52306473 PUSH16 0x6C63430008180033A264697066735822 SLT KECCAK256 DUP11 0xD4 BASEFEE DUP9 STATICCALL CODECOPY DUP11 GASPRICE SWAP4 0xB0 PUSH8 0x7CB01D35CE2BCF6D 0xAE DUP2 PUSH30 0xE28494B1BA305B97485F64736F6C63430008180033000000000000000000 "},"methodIdentifiers":{"batchCreateExperts(string[],string[],string[],uint256[],address[])":"2e7e2156","createExpert(string,string,string,uint256,address)":"831480fb","expertSymbols(uint256)":"b7366ee9","experts(string)":"1dd5f760","getAllExperts()":"b733b94d","getExpert(string)":"b6211dbf","getExpertByToken(address)":"d4a7737f","getExpertCount()":"0f405af4","owner()":"8da5cb5b","platformAddress()":"dbe55e56","renounceOwnership()":"715018a6","setExpertActive(string,bool)":"79050a01","tokenToSymbol(address)":"0ba36121","transferOwnership(address)":"f2fde38b","updateExpertCost(string,uint256)":"ca0b2c89","updatePlatformAddress(address)":"8f9f193f"}}}}}