{
  "_format": "hh3-artifact-1",
  "contractName": "ExpertFactory",
  "sourceName": "contracts/ExpertFactory.sol",
  "abi": [
    {
      "inputs": [
        {
          "internalType": "address",
          "name": "_platformAddress",
          "type": "address"
        }
      ],
      "stateMutability": "nonpayable",
      "type": "constructor"
    },
    {
      "inputs": [
        {
          "internalType": "address",
          "name": "owner",
          "type": "address"
        }
      ],
      "name": "OwnableInvalidOwner",
      "type": "error"
    },
    {
      "inputs": [
        {
          "internalType": "address",
          "name": "account",
          "type": "address"
        }
      ],
      "name": "OwnableUnauthorizedAccount",
      "type": "error"
    },
    {
      "anonymous": false,
      "inputs": [
        {
          "indexed": true,
          "internalType": "string",
          "name": "symbol",
          "type": "string"
        }
      ],
      "name": "ExpertActivated",
      "type": "event"
    },
    {
      "anonymous": false,
      "inputs": [
        {
          "indexed": true,
          "internalType": "string",
          "name": "symbol",
          "type": "string"
        },
        {
          "indexed": true,
          "internalType": "address",
          "name": "tokenAddress",
          "type": "address"
        },
        {
          "indexed": true,
          "internalType": "address",
          "name": "expertAddress",
          "type": "address"
        },
        {
          "indexed": false,
          "internalType": "string",
          "name": "name",
          "type": "string"
        },
        {
          "indexed": false,
          "internalType": "uint256",
          "name": "tokensPerQuery",
          "type": "uint256"
        }
      ],
      "name": "ExpertCreated",
      "type": "event"
    },
    {
      "anonymous": false,
      "inputs": [
        {
          "indexed": true,
          "internalType": "string",
          "name": "symbol",
          "type": "string"
        }
      ],
      "name": "ExpertDeactivated",
      "type": "event"
    },
    {
      "anonymous": false,
      "inputs": [
        {
          "indexed": true,
          "internalType": "string",
          "name": "symbol",
          "type": "string"
        },
        {
          "indexed": false,
          "internalType": "uint256",
          "name": "newTokensPerQuery",
          "type": "uint256"
        }
      ],
      "name": "ExpertUpdated",
      "type": "event"
    },
    {
      "anonymous": false,
      "inputs": [
        {
          "indexed": true,
          "internalType": "address",
          "name": "previousOwner",
          "type": "address"
        },
        {
          "indexed": true,
          "internalType": "address",
          "name": "newOwner",
          "type": "address"
        }
      ],
      "name": "OwnershipTransferred",
      "type": "event"
    },
    {
      "inputs": [
        {
          "internalType": "string[]",
          "name": "_names",
          "type": "string[]"
        },
        {
          "internalType": "string[]",
          "name": "_symbols",
          "type": "string[]"
        },
        {
          "internalType": "string[]",
          "name": "_categories",
          "type": "string[]"
        },
        {
          "internalType": "uint256[]",
          "name": "_tokensPerQuery",
          "type": "uint256[]"
        },
        {
          "internalType": "address[]",
          "name": "_expertAddresses",
          "type": "address[]"
        }
      ],
      "name": "batchCreateExperts",
      "outputs": [],
      "stateMutability": "nonpayable",
      "type": "function"
    },
    {
      "inputs": [
        {
          "internalType": "string",
          "name": "_name",
          "type": "string"
        },
        {
          "internalType": "string",
          "name": "_symbol",
          "type": "string"
        },
        {
          "internalType": "string",
          "name": "_category",
          "type": "string"
        },
        {
          "internalType": "uint256",
          "name": "_tokensPerQuery",
          "type": "uint256"
        },
        {
          "internalType": "address",
          "name": "_expertAddress",
          "type": "address"
        }
      ],
      "name": "createExpert",
      "outputs": [
        {
          "internalType": "address",
          "name": "",
          "type": "address"
        }
      ],
      "stateMutability": "nonpayable",
      "type": "function"
    },
    {
      "inputs": [
        {
          "internalType": "uint256",
          "name": "",
          "type": "uint256"
        }
      ],
      "name": "expertSymbols",
      "outputs": [
        {
          "internalType": "string",
          "name": "",
          "type": "string"
        }
      ],
      "stateMutability": "view",
      "type": "function"
    },
    {
      "inputs": [
        {
          "internalType": "string",
          "name": "",
          "type": "string"
        }
      ],
      "name": "experts",
      "outputs": [
        {
          "internalType": "address",
          "name": "tokenAddress",
          "type": "address"
        },
        {
          "internalType": "string",
          "name": "name",
          "type": "string"
        },
        {
          "internalType": "string",
          "name": "symbol",
          "type": "string"
        },
        {
          "internalType": "string",
          "name": "category",
          "type": "string"
        },
        {
          "internalType": "uint256",
          "name": "tokensPerQuery",
          "type": "uint256"
        },
        {
          "internalType": "address",
          "name": "expertAddress",
          "type": "address"
        },
        {
          "internalType": "bool",
          "name": "isActive",
          "type": "bool"
        },
        {
          "internalType": "uint256",
          "name": "totalConsultations",
          "type": "uint256"
        },
        {
          "internalType": "uint256",
          "name": "totalRevenue",
          "type": "uint256"
        }
      ],
      "stateMutability": "view",
      "type": "function"
    },
    {
      "inputs": [],
      "name": "getAllExperts",
      "outputs": [
        {
          "internalType": "string[]",
          "name": "symbols_",
          "type": "string[]"
        },
        {
          "internalType": "address[]",
          "name": "tokenAddresses_",
          "type": "address[]"
        },
        {
          "internalType": "string[]",
          "name": "names_",
          "type": "string[]"
        },
        {
          "internalType": "string[]",
          "name": "categories_",
          "type": "string[]"
        },
        {
          "internalType": "uint256[]",
          "name": "tokensPerQuery_",
          "type": "uint256[]"
        },
        {
          "internalType": "bool[]",
          "name": "isActive_",
          "type": "bool[]"
        }
      ],
      "stateMutability": "view",
      "type": "function"
    },
    {
      "inputs": [
        {
          "internalType": "string",
          "name": "_symbol",
          "type": "string"
        }
      ],
      "name": "getExpert",
      "outputs": [
        {
          "components": [
            {
              "internalType": "address",
              "name": "tokenAddress",
              "type": "address"
            },
            {
              "internalType": "string",
              "name": "name",
              "type": "string"
            },
            {
              "internalType": "string",
              "name": "symbol",
              "type": "string"
            },
            {
              "internalType": "string",
              "name": "category",
              "type": "string"
            },
            {
              "internalType": "uint256",
              "name": "tokensPerQuery",
              "type": "uint256"
            },
            {
              "internalType": "address",
              "name": "expertAddress",
              "type": "address"
            },
            {
              "internalType": "bool",
              "name": "isActive",
              "type": "bool"
            },
            {
              "internalType": "uint256",
              "name": "totalConsultations",
              "type": "uint256"
            },
            {
              "internalType": "uint256",
              "name": "totalRevenue",
              "type": "uint256"
            }
          ],
          "internalType": "struct ExpertFactory.ExpertInfo",
          "name": "",
          "type": "tuple"
        }
      ],
      "stateMutability": "view",
      "type": "function"
    },
    {
      "inputs": [
        {
          "internalType": "address",
          "name": "_tokenAddress",
          "type": "address"
        }
      ],
      "name": "getExpertByToken",
      "outputs": [
        {
          "components": [
            {
              "internalType": "address",
              "name": "tokenAddress",
              "type": "address"
            },
            {
              "internalType": "string",
              "name": "name",
              "type": "string"
            },
            {
              "internalType": "string",
              "name": "symbol",
              "type": "string"
            },
            {
              "internalType": "string",
              "name": "category",
              "type": "string"
            },
            {
              "internalType": "uint256",
              "name": "tokensPerQuery",
              "type": "uint256"
            },
            {
              "internalType": "address",
              "name": "expertAddress",
              "type": "address"
            },
            {
              "internalType": "bool",
              "name": "isActive",
              "type": "bool"
            },
            {
              "internalType": "uint256",
              "name": "totalConsultations",
              "type": "uint256"
            },
            {
              "internalType": "uint256",
              "name": "totalRevenue",
              "type": "uint256"
            }
          ],
          "internalType": "struct ExpertFactory.ExpertInfo",
          "name": "",
          "type": "tuple"
        }
      ],
      "stateMutability": "view",
      "type": "function"
    },
    {
      "inputs": [],
      "name": "getExpertCount",
      "outputs": [
        {
          "internalType": "uint256",
          "name": "",
          "type": "uint256"
        }
      ],
      "stateMutability": "view",
      "type": "function"
    },
    {
      "inputs": [],
      "name": "owner",
      "outputs": [
        {
          "internalType": "address",
          "name": "",
          "type": "address"
        }
      ],
      "stateMutability": "view",
      "type": "function"
    },
    {
      "inputs": [],
      "name": "platformAddress",
      "outputs": [
        {
          "internalType": "address",
          "name": "",
          "type": "address"
        }
      ],
      "stateMutability": "view",
      "type": "function"
    },
    {
      "inputs": [],
      "name": "renounceOwnership",
      "outputs": [],
      "stateMutability": "nonpayable",
      "type": "function"
    },
    {
      "inputs": [
        {
          "internalType": "string",
          "name": "_symbol",
          "type": "string"
        },
        {
          "internalType": "bool",
          "name": "_isActive",
          "type": "bool"
        }
      ],
      "name": "setExpertActive",
      "outputs": [],
      "stateMutability": "nonpayable",
      "type": "function"
    },
    {
      "inputs": [
        {
          "internalType": "address",
          "name": "",
          "type": "address"
        }
      ],
      "name": "tokenToSymbol",
      "outputs": [
        {
          "internalType": "string",
          "name": "",
          "type": "string"
        }
      ],
      "stateMutability": "view",
      "type": "function"
    },
    {
      "inputs": [
        {
          "internalType": "address",
          "name": "newOwner",
          "type": "address"
        }
      ],
      "name": "transferOwnership",
      "outputs": [],
      "stateMutability": "nonpayable",
      "type": "function"
    },
    {
      "inputs": [
        {
          "internalType": "string",
          "name": "_symbol",
          "type": "string"
        },
        {
          "internalType": "uint256",
          "name": "_newTokensPerQuery",
          "type": "uint256"
        }
      ],
      "name": "updateExpertCost",
      "outputs": [],
      "stateMutability": "nonpayable",
      "type": "function"
    },
    {
      "inputs": [
        {
          "internalType": "address",
          "name": "_newPlatformAddress",
          "type": "address"
        }
      ],
      "name": "updatePlatformAddress",
      "outputs": [],
      "stateMutability": "nonpayable",
      "type": "function"
    }
  ],
  "bytecode": "0x608060405234801562000010575f80fd5b506040516200431d3803806200431d833981016040819052620000339162000133565b33806200005a57604051631e4fbdf760e01b81525f60048201526024015b60405180910390fd5b6200006581620000e4565b506001600160a01b038116620000be5760405162461bcd60e51b815260206004820152601f60248201527f506c6174666f726d20616464726573732063616e6e6f74206265207a65726f00604482015260640162000051565b600480546001600160a01b0319166001600160a01b039290921691909117905562000162565b5f80546001600160a01b038381166001600160a01b0319831681178455604051919092169283917f8be0079c531659141344cd1fd0a4f28419497f9722a3daafe3b4186f6b6457e09190a35050565b5f6020828403121562000144575f80fd5b81516001600160a01b03811681146200015b575f80fd5b9392505050565b6141ad80620001705f395ff3fe608060405234801562000010575f80fd5b506004361062000110575f3560e01c80638f9f193f116200009f578063ca0b2c89116200006b578063ca0b2c891462000270578063d4a7737f1462000287578063dbe55e56146200029e578063f2fde38b14620002b2575f80fd5b80638f9f193f14620001fe578063b6211dbf1462000215578063b733b94d146200023b578063b7366ee91462000259575f80fd5b8063715018a611620000df578063715018a6146200019c57806379050a0114620001a6578063831480fb14620001bd5780638da5cb5b14620001ed575f80fd5b80630ba3612114620001145780630f405af414620001435780631dd5f76014620001555780632e7e21561462000183575b5f80fd5b6200012b6200012536600462001cb0565b620002c9565b6040516200013a919062001d24565b60405180910390f35b6003546040519081526020016200013a565b6200016c6200016636600462001df1565b62000368565b6040516200013a9998979695949392919062001e2e565b6200019a620001943660046200203c565b62000583565b005b6200019a62000737565b6200019a620001b736600462002114565b6200074e565b620001d4620001ce3660046200216b565b62000879565b6040516001600160a01b0390911681526020016200013a565b5f546001600160a01b0316620001d4565b6200019a6200020f36600462001cb0565b62000cc7565b6200022c6200022636600462001df1565b62000d4b565b6040516200013a919062002212565b6200024562000ff8565b6040516200013a96959493929190620023ae565b6200012b6200026a3660046200246a565b620015ee565b6200019a6200028136600462002482565b62001618565b6200022c6200029836600462001cb0565b62001812565b600454620001d4906001600160a01b031681565b6200019a620002c336600462001cb0565b62001b57565b60026020525f908152604090208054620002e390620024c7565b80601f01602080910402602001604051908101604052809291908181526020018280546200031190620024c7565b8015620003605780601f10620003365761010080835404028352916020019162000360565b820191905f5260205f20905b8154815290600101906020018083116200034257829003601f168201915b505050505081565b805160208183018101805160018083529383019290940191909120929052815490820180546001600160a01b039092169291620003a590620024c7565b80601f0160208091040260200160405190810160405280929190818152602001828054620003d390620024c7565b8015620004225780601f10620003f85761010080835404028352916020019162000422565b820191905f5260205f20905b8154815290600101906020018083116200040457829003601f168201915b5050505050908060020180546200043990620024c7565b80601f01602080910402602001604051908101604052809291908181526020018280546200046790620024c7565b8015620004b65780601f106200048c57610100808354040283529160200191620004b6565b820191905f5260205f20905b8154815290600101906020018083116200049857829003601f168201915b505050505090806003018054620004cd90620024c7565b80601f0160208091040260200160405190810160405280929190818152602001828054620004fb90620024c7565b80156200054a5780601f1062000520576101008083540402835291602001916200054a565b820191905f5260205f20905b8154815290600101906020018083116200052c57829003601f168201915b50505050600483015460058401546006850154600790950154939491936001600160a01b0382169350600160a01b90910460ff16919089565b6200058d62001b9a565b8351855114620005ba5760405162461bcd60e51b8152600401620005b19062002501565b60405180910390fd5b8251855114620005de5760405162461bcd60e51b8152600401620005b19062002501565b8151855114620006025760405162461bcd60e51b8152600401620005b19062002501565b8051855114620006265760405162461bcd60e51b8152600401620005b19062002501565b5f5b85518110156200072f575f6001600160a01b0316600186838151811062000653576200065362002530565b60200260200101516040516200066a919062002544565b908152604051908190036020019020546001600160a01b031603620007265762000724868281518110620006a257620006a262002530565b6020026020010151868381518110620006bf57620006bf62002530565b6020026020010151868481518110620006dc57620006dc62002530565b6020026020010151868581518110620006f957620006f962002530565b602002602001015186868151811062000716576200071662002530565b602002602001015162001bc8565b505b60010162000628565b505050505050565b6200074162001b9a565b6200074c5f62001bdd565b565b6200075862001b9a565b5f6001600160a01b031660018360405162000774919062002544565b908152604051908190036020019020546001600160a01b031603620007ad5760405162461bcd60e51b8152600401620005b19062002561565b80600183604051620007c0919062002544565b9081526040519081900360200190206005018054911515600160a01b0260ff60a01b19909216919091179055801562000836578160405162000803919062002544565b604051908190038120907f3cdb38dd99698f430f7c26a3dea2e7c55d6795f25ed95e4831b242de88d0d8c7905f90a25050565b8160405162000846919062002544565b604051908190038120907f77a4b755b97a67075d9524772f60a4f23171395b2227f0ed454b76428fe8ca90905f90a25050565b5f6200088462001b9a565b5f865111620008cd5760405162461bcd60e51b81526020600482015260146024820152734e616d652063616e6e6f7420626520656d70747960601b6044820152606401620005b1565b5f855111620009185760405162461bcd60e51b815260206004820152601660248201527553796d626f6c2063616e6e6f7420626520656d70747960501b6044820152606401620005b1565b5f8311620009795760405162461bcd60e51b815260206004820152602760248201527f546f6b656e7320706572207175657279206d75737420626520677265617465726044820152660207468616e20360cc1b6064820152608401620005b1565b6001600160a01b038216620009d15760405162461bcd60e51b815260206004820152601d60248201527f45787065727420616464726573732063616e6e6f74206265207a65726f0000006044820152606401620005b1565b5f6001600160a01b0316600186604051620009ed919062002544565b908152604051908190036020019020546001600160a01b03161462000a4d5760405162461bcd60e51b815260206004820152601560248201527445787065727420616c72656164792065786973747360581b6044820152606401620005b1565b5f8660405160200162000a61919062002590565b60405160208183030381529060405290505f81878988888860045f9054906101000a90046001600160a01b031660405162000a9c9062001c2c565b62000aae9796959493929190620025d4565b604051809103905ff08015801562000ac8573d5f803e3d5ffd5b5090505f819050604051806101200160405280826001600160a01b031681526020018a8152602001898152602001888152602001878152602001866001600160a01b031681526020016001151581526020015f81526020015f81525060018960405162000b36919062002544565b90815260405160209181900382019020825181546001600160a01b0319166001600160a01b0390911617815590820151600182019062000b779082620026a2565b506040820151600282019062000b8e9082620026a2565b506060820151600382019062000ba59082620026a2565b506080820151600482015560a082015160058201805460c08501511515600160a01b026001600160a81b03199091166001600160a01b039384161717905560e083015160068301556101009092015160079091015581165f90815260026020526040902062000c158982620026a2565b50600380546001810182555f919091527fc2575a0e9e593c00f959f8c92f12db2869c3395a3b0502d05e2516446f71f85b0162000c538982620026a2565b50846001600160a01b0316816001600160a01b03168960405162000c78919062002544565b60405180910390207f30ed4d9e7c7fbe967fb0f82b79cceb9085f9bb05672899b777f3decc0b5ba9fb8c8a60405162000cb39291906200276a565b60405180910390a498975050505050505050565b62000cd162001b9a565b6001600160a01b03811662000d295760405162461bcd60e51b815260206004820152601f60248201527f506c6174666f726d20616464726573732063616e6e6f74206265207a65726f006044820152606401620005b1565b600480546001600160a01b0319166001600160a01b0392909216919091179055565b62000d5562001c3a565b5f6001600160a01b031660018360405162000d71919062002544565b908152604051908190036020019020546001600160a01b03160362000daa5760405162461bcd60e51b8152600401620005b19062002561565b60018260405162000dbc919062002544565b908152604080519182900360209081018320610120840190925281546001600160a01b031683526001820180549184019162000df890620024c7565b80601f016020809104026020016040519081016040528092919081815260200182805462000e2690620024c7565b801562000e755780601f1062000e4b5761010080835404028352916020019162000e75565b820191905f5260205f20905b81548152906001019060200180831162000e5757829003601f168201915b5050505050815260200160028201805462000e9090620024c7565b80601f016020809104026020016040519081016040528092919081815260200182805462000ebe90620024c7565b801562000f0d5780601f1062000ee35761010080835404028352916020019162000f0d565b820191905f5260205f20905b81548152906001019060200180831162000eef57829003601f168201915b5050505050815260200160038201805462000f2890620024c7565b80601f016020809104026020016040519081016040528092919081815260200182805462000f5690620024c7565b801562000fa55780601f1062000f7b5761010080835404028352916020019162000fa5565b820191905f5260205f20905b81548152906001019060200180831162000f8757829003601f168201915b50505091835250506004820154602082015260058201546001600160a01b0381166040830152600160a01b900460ff16151560608201526006820154608082015260079091015460a09091015292915050565b6060806060806060805f6003805490509050806001600160401b0381111562001025576200102562001d38565b6040519080825280602002602001820160405280156200105a57816020015b6060815260200190600190039081620010445790505b509650806001600160401b0381111562001078576200107862001d38565b604051908082528060200260200182016040528015620010a2578160200160208202803683370190505b509550806001600160401b03811115620010c057620010c062001d38565b604051908082528060200260200182016040528015620010f557816020015b6060815260200190600190039081620010df5790505b509450806001600160401b0381111562001113576200111362001d38565b6040519080825280602002602001820160405280156200114857816020015b6060815260200190600190039081620011325790505b509350806001600160401b0381111562001166576200116662001d38565b60405190808252806020026020018201604052801562001190578160200160208202803683370190505b509250806001600160401b03811115620011ae57620011ae62001d38565b604051908082528060200260200182016040528015620011d8578160200160208202803683370190505b5091505f5b81811015620015e4575f60038281548110620011fd57620011fd62002530565b905f5260205f200180546200121290620024c7565b80601f01602080910402602001604051908101604052809291908181526020018280546200124090620024c7565b80156200128f5780601f1062001265576101008083540402835291602001916200128f565b820191905f5260205f20905b8154815290600101906020018083116200127157829003601f168201915b505050505090505f600182604051620012a9919062002544565b908152604080519182900360209081018320610120840190925281546001600160a01b0316835260018201805491840191620012e590620024c7565b80601f01602080910402602001604051908101604052809291908181526020018280546200131390620024c7565b8015620013625780601f10620013385761010080835404028352916020019162001362565b820191905f5260205f20905b8154815290600101906020018083116200134457829003601f168201915b505050505081526020016002820180546200137d90620024c7565b80601f0160208091040260200160405190810160405280929190818152602001828054620013ab90620024c7565b8015620013fa5780601f10620013d057610100808354040283529160200191620013fa565b820191905f5260205f20905b815481529060010190602001808311620013dc57829003601f168201915b505050505081526020016003820180546200141590620024c7565b80601f01602080910402602001604051908101604052809291908181526020018280546200144390620024c7565b8015620014925780601f10620014685761010080835404028352916020019162001492565b820191905f5260205f20905b8154815290600101906020018083116200147457829003601f168201915b50505091835250506004820154602082015260058201546001600160a01b0381166040830152600160a01b900460ff16151560608201526006820154608082015260079091015460a0909101528a5190915082908b9085908110620014fb57620014fb62002530565b6020026020010181905250805f01518984815181106200151f576200151f62002530565b60200260200101906001600160a01b031690816001600160a01b031681525050806020015188848151811062001559576200155962002530565b602002602001018190525080606001518784815181106200157e576200157e62002530565b60200260200101819052508060800151868481518110620015a357620015a362002530565b6020026020010181815250508060c00151858481518110620015c957620015c962002530565b911515602092830291909101909101525050600101620011dd565b5050909192939495565b60038181548110620015fe575f80fd5b905f5260205f20015f915090508054620002e390620024c7565b5f6001600160a01b031660018360405162001634919062002544565b908152604051908190036020019020546001600160a01b0316036200166d5760405162461bcd60e51b8152600401620005b19062002561565b5f8111620016be5760405162461bcd60e51b815260206004820152601b60248201527f436f7374206d7573742062652067726561746572207468616e203000000000006044820152606401620005b1565b5f600183604051620016d1919062002544565b9081526040519081900360200190206005810154909150336001600160a01b0390911614806200170a57505f546001600160a01b031633145b620017645760405162461bcd60e51b8152602060048201526024808201527f4f6e6c7920657870657274206f72206f776e65722063616e207570646174652060448201526318dbdcdd60e21b6064820152608401620005b1565b60048181018390558154604051633227cf1360e21b81529182018490526001600160a01b03169063c89f3c4c906024015f604051808303815f87803b158015620017ac575f80fd5b505af1158015620017bf573d5f803e3d5ffd5b5050505082604051620017d3919062002544565b604051908190038120838252907f6f119563bbc031cab83fcaecd1aaeb5b8fdd107b1885f37e7ac49a63d32364019060200160405180910390a2505050565b6200181c62001c3a565b6001600160a01b0382165f90815260026020526040812080546200184090620024c7565b80601f01602080910402602001604051908101604052809291908181526020018280546200186e90620024c7565b8015620018bd5780601f106200189357610100808354040283529160200191620018bd565b820191905f5260205f20905b8154815290600101906020018083116200189f57829003601f168201915b505050505090505f815111620019085760405162461bcd60e51b815260206004820152600f60248201526e151bdad95b881b9bdd08199bdd5b99608a1b6044820152606401620005b1565b6001816040516200191a919062002544565b908152604080519182900360209081018320610120840190925281546001600160a01b03168352600182018054918401916200195690620024c7565b80601f01602080910402602001604051908101604052809291908181526020018280546200198490620024c7565b8015620019d35780601f10620019a957610100808354040283529160200191620019d3565b820191905f5260205f20905b815481529060010190602001808311620019b557829003601f168201915b50505050508152602001600282018054620019ee90620024c7565b80601f016020809104026020016040519081016040528092919081815260200182805462001a1c90620024c7565b801562001a6b5780601f1062001a415761010080835404028352916020019162001a6b565b820191905f5260205f20905b81548152906001019060200180831162001a4d57829003601f168201915b5050505050815260200160038201805462001a8690620024c7565b80601f016020809104026020016040519081016040528092919081815260200182805462001ab490620024c7565b801562001b035780601f1062001ad95761010080835404028352916020019162001b03565b820191905f5260205f20905b81548152906001019060200180831162001ae557829003601f168201915b50505091835250506004820154602082015260058201546001600160a01b0381166040830152600160a01b900460ff16151560608201526006820154608082015260079091015460a0909101529392505050565b62001b6162001b9a565b6001600160a01b03811662001b8c57604051631e4fbdf760e01b81525f6004820152602401620005b1565b62001b978162001bdd565b50565b5f546001600160a01b031633146200074c5760405163118cdaa760e01b8152336004820152602401620005b1565b5f808660405160200162000a61919062002590565b5f80546001600160a01b038381166001600160a01b0319831681178455604051919092169283917f8be0079c531659141344cd1fd0a4f28419497f9722a3daafe3b4186f6b6457e09190a35050565b6119ea806200278e83390190565b6040518061012001604052805f6001600160a01b031681526020016060815260200160608152602001606081526020015f81526020015f6001600160a01b031681526020015f151581526020015f81526020015f81525090565b80356001600160a01b038116811462001cab575f80fd5b919050565b5f6020828403121562001cc1575f80fd5b62001ccc8262001c94565b9392505050565b5f5b8381101562001cef57818101518382015260200162001cd5565b50505f910152565b5f815180845262001d1081602086016020860162001cd3565b601f01601f19169290920160200192915050565b602081525f62001ccc602083018462001cf7565b634e487b7160e01b5f52604160045260245ffd5b604051601f8201601f191681016001600160401b038111828210171562001d775762001d7762001d38565b604052919050565b5f82601f83011262001d8f575f80fd5b81356001600160401b0381111562001dab5762001dab62001d38565b62001dc0601f8201601f191660200162001d4c565b81815284602083860101111562001dd5575f80fd5b816020850160208301375f918101602001919091529392505050565b5f6020828403121562001e02575f80fd5b81356001600160401b0381111562001e18575f80fd5b62001e268482850162001d7f565b949350505050565b6001600160a01b038a81168252610120602083018190525f9162001e558483018d62001cf7565b9150838203604085015262001e6b828c62001cf7565b9150838203606085015262001e81828b62001cf7565b60808501999099529690961660a08301525092151560c084015260e08301919091526101009091015250949350505050565b5f6001600160401b0382111562001ece5762001ece62001d38565b5060051b60200190565b5f82601f83011262001ee8575f80fd5b8135602062001f0162001efb8362001eb3565b62001d4c565b82815260059290921b8401810191818101908684111562001f20575f80fd5b8286015b8481101562001f625780356001600160401b0381111562001f43575f80fd5b62001f538986838b010162001d7f565b84525091830191830162001f24565b509695505050505050565b5f82601f83011262001f7d575f80fd5b8135602062001f9062001efb8362001eb3565b8083825260208201915060208460051b87010193508684111562001fb2575f80fd5b602086015b8481101562001f62578035835291830191830162001fb7565b5f82601f83011262001fe0575f80fd5b8135602062001ff362001efb8362001eb3565b8083825260208201915060208460051b87010193508684111562002015575f80fd5b602086015b8481101562001f62576200202e8162001c94565b83529183019183016200201a565b5f805f805f60a0868803121562002051575f80fd5b85356001600160401b038082111562002068575f80fd5b6200207689838a0162001ed8565b965060208801359150808211156200208c575f80fd5b6200209a89838a0162001ed8565b95506040880135915080821115620020b0575f80fd5b620020be89838a0162001ed8565b94506060880135915080821115620020d4575f80fd5b620020e289838a0162001f6d565b93506080880135915080821115620020f8575f80fd5b50620021078882890162001fd0565b9150509295509295909350565b5f806040838503121562002126575f80fd5b82356001600160401b038111156200213c575f80fd5b6200214a8582860162001d7f565b9250506020830135801515811462002160575f80fd5b809150509250929050565b5f805f805f60a0868803121562002180575f80fd5b85356001600160401b038082111562002197575f80fd5b620021a589838a0162001d7f565b96506020880135915080821115620021bb575f80fd5b620021c989838a0162001d7f565b95506040880135915080821115620021df575f80fd5b50620021ee8882890162001d7f565b93505060608601359150620022066080870162001c94565b90509295509295909350565b602081526200222d6020820183516001600160a01b03169052565b5f60208301516101208060408501526200224c61014085018362001cf7565b91506040850151601f19808685030160608701526200226c848362001cf7565b93506060870151915080868503016080870152506200228c838262001cf7565b925050608085015160a085015260a0850151620022b460c08601826001600160a01b03169052565b5060c085015180151560e08601525060e085015161010085810191909152909401519390920192909252919050565b5f8282518085526020808601955060208260051b840101602086015f5b848110156200233257601f198684030189526200231f83835162001cf7565b9884019892509083019060010162002300565b5090979650505050505050565b5f815180845260208085019450602084015f5b83811015620023705781518752958201959082019060010162002352565b509495945050505050565b5f815180845260208085019450602084015f5b83811015620023705781511515875295820195908201906001016200238e565b60c081525f620023c260c0830189620022e3565b8281036020848101919091528851808352898201928201905f5b81811015620024035784516001600160a01b031683529383019391830191600101620023dc565b5050848103604086015262002419818a620022e3565b925050508281036060840152620024318187620022e3565b905082810360808401526200244781866200233f565b905082810360a08401526200245d81856200237b565b9998505050505050505050565b5f602082840312156200247b575f80fd5b5035919050565b5f806040838503121562002494575f80fd5b82356001600160401b03811115620024aa575f80fd5b620024b88582860162001d7f565b95602094909401359450505050565b600181811c90821680620024dc57607f821691505b602082108103620024fb57634e487b7160e01b5f52602260045260245ffd5b50919050565b602080825260159082015274082e4e4c2f240d8cadccee8d040dad2e6dac2e8c6d605b1b604082015260600190565b634e487b7160e01b5f52603260045260245ffd5b5f82516200255781846020870162001cd3565b9190910192915050565b602080825260159082015274115e1c195c9d08191bd95cc81b9bdd08195e1a5cdd605a1b604082015260600190565b6a0213930b4b72a3930b232960ad1b81525f8251620025b781600b85016020870162001cd3565b65102a37b5b2b760d11b600b939091019283015250601101919050565b60e081525f620025e860e083018a62001cf7565b8281036020840152620025fc818a62001cf7565b9050828103604084015262002612818962001cf7565b9050828103606084015262002628818862001cf7565b608084019690965250506001600160a01b0392831660a0820152911660c090910152949350505050565b601f8211156200269d57805f5260205f20601f840160051c81016020851015620026795750805b601f840160051c820191505b818110156200269a575f815560010162002685565b50505b505050565b81516001600160401b03811115620026be57620026be62001d38565b620026d681620026cf8454620024c7565b8462002652565b602080601f8311600181146200270c575f8415620026f45750858301515b5f19600386901b1c1916600185901b1785556200072f565b5f85815260208120601f198616915b828110156200273c578886015182559484019460019091019084016200271b565b50858210156200275a57878501515f19600388901b60f8161c191681555b5050505050600190811b01905550565b604081525f6200277e604083018562001cf7565b9050826020830152939250505056fe6080604052600a600b5534801562000015575f80fd5b50604051620019ea380380620019ea8339810160408190526200003891620003bf565b338787600362000049838262000528565b50600462000058828262000528565b5050506001600160a01b0381166200008a57604051631e4fbdf760e01b81525f60048201526024015b60405180910390fd5b620000958162000126565b506006620000a4868262000528565b506007620000b3858262000528565b506008839055600980546001600160a01b038085166001600160a01b031992831617909255600a8054928416929091169190911790556200011930620000f7601290565b6200010490600a62000703565b6200011390620f42406200071a565b62000177565b505050505050506200074a565b600580546001600160a01b038381166001600160a01b0319831681179093556040519116919082907f8be0079c531659141344cd1fd0a4f28419497f9722a3daafe3b4186f6b6457e0905f90a35050565b6001600160a01b038216620001a25760405163ec442f0560e01b81525f600482015260240162000081565b620001af5f8383620001b3565b5050565b6001600160a01b038316620001e1578060025f828254620001d5919062000734565b90915550620002539050565b6001600160a01b0383165f9081526020819052604090205481811015620002355760405163391434e360e21b81526001600160a01b0385166004820152602481018290526044810183905260640162000081565b6001600160a01b0384165f9081526020819052604090209082900390555b6001600160a01b03821662000271576002805482900390556200028f565b6001600160a01b0382165f9081526020819052604090208054820190555b816001600160a01b0316836001600160a01b03167fddf252ad1be2c89b69c2b068fc378daa952ba7f163c4a11628f55a4df523b3ef83604051620002d591815260200190565b60405180910390a3505050565b634e487b7160e01b5f52604160045260245ffd5b5f82601f83011262000306575f80fd5b81516001600160401b0380821115620003235762000323620002e2565b604051601f8301601f19908116603f011681019082821181831017156200034e576200034e620002e2565b81604052838152602092508660208588010111156200036b575f80fd5b5f91505b838210156200038e57858201830151818301840152908201906200036f565b5f602085830101528094505050505092915050565b80516001600160a01b0381168114620003ba575f80fd5b919050565b5f805f805f805f60e0888a031215620003d6575f80fd5b87516001600160401b0380821115620003ed575f80fd5b620003fb8b838c01620002f6565b985060208a015191508082111562000411575f80fd5b6200041f8b838c01620002f6565b975060408a015191508082111562000435575f80fd5b620004438b838c01620002f6565b965060608a015191508082111562000459575f80fd5b50620004688a828b01620002f6565b945050608088015192506200048060a08901620003a3565b91506200049060c08901620003a3565b905092959891949750929550565b600181811c90821680620004b357607f821691505b602082108103620004d257634e487b7160e01b5f52602260045260245ffd5b50919050565b601f8211156200052357805f5260205f20601f840160051c81016020851015620004ff5750805b601f840160051c820191505b8181101562000520575f81556001016200050b565b50505b505050565b81516001600160401b03811115620005445762000544620002e2565b6200055c816200055584546200049e565b84620004d8565b602080601f83116001811462000592575f84156200057a5750858301515b5f19600386901b1c1916600185901b178555620005ec565b5f85815260208120601f198616915b82811015620005c257888601518255948401946001909101908401620005a1565b5085821015620005e057878501515f19600388901b60f8161c191681555b505060018460011b0185555b505050505050565b634e487b7160e01b5f52601160045260245ffd5b600181815b808511156200064857815f19048211156200062c576200062c620005f4565b808516156200063a57918102915b93841c93908002906200060d565b509250929050565b5f826200066057506001620006fd565b816200066e57505f620006fd565b81600181146200068757600281146200069257620006b2565b6001915050620006fd565b60ff841115620006a657620006a6620005f4565b50506001821b620006fd565b5060208310610133831016604e8410600b8410161715620006d7575081810a620006fd565b620006e3838362000608565b805f1904821115620006f957620006f9620005f4565b0290505b92915050565b5f6200071360ff84168362000650565b9392505050565b8082028115828204841417620006fd57620006fd620005f4565b80820180821115620006fd57620006fd620005f4565b61129280620007585f395ff3fe6080604052600436106101af575f3560e01c80637b97008d116100e7578063bf2d9e0b11610087578063dbe55e5611610062578063dbe55e561461047e578063dd62ed3e1461049d578063e548b2f4146104e1578063f2fde38b14610500575f80fd5b8063bf2d9e0b14610436578063c735b8391461044b578063c89f3c4c1461045f575f80fd5b80638da5cb5b116100c25780638da5cb5b146103c757806395d89b41146103e4578063a90383f2146103f8578063a9059cbb14610417575f80fd5b80637b97008d1461038a5780637c5e27951461039d5780638c639a85146103b2575f80fd5b80634d8077db116101525780635fe97e9f1161012d5780635fe97e9f146102f757806368b441dd1461030b57806370a0823114610342578063715018a614610376575f80fd5b80634d8077db1461029e5780635addb188146102bd5780635f0a4811146102d2575f80fd5b80630eebf70c1161018d5780630eebf70c1461022d57806318160ddd1461025057806323b872dd14610264578063313ce56714610283575f80fd5b806306fdde03146101b3578063095ea7b3146101dd5780630e5e05de1461020c575b5f80fd5b3480156101be575f80fd5b506101c761051f565b6040516101d49190611064565b60405180910390f35b3480156101e8575f80fd5b506101fc6101f7366004611098565b6105af565b60405190151581526020016101d4565b348015610217575f80fd5b5061022b6102263660046110c0565b6105c8565b005b348015610238575f80fd5b5061024260085481565b6040519081526020016101d4565b34801561025b575f80fd5b50600254610242565b34801561026f575f80fd5b506101fc61027e3660046110d7565b6106e3565b34801561028e575f80fd5b50604051601281526020016101d4565b3480156102a9575f80fd5b506101fc6102b83660046110c0565b610706565b3480156102c8575f80fd5b50610242600c5481565b3480156102dd575f80fd5b506102e66107cf565b6040516101d4959493929190611110565b348015610302575f80fd5b506101c7610907565b348015610316575f80fd5b5060095461032a906001600160a01b031681565b6040516001600160a01b0390911681526020016101d4565b34801561034d575f80fd5b5061024261035c366004611152565b6001600160a01b03165f9081526020819052604090205490565b348015610381575f80fd5b5061022b610993565b61022b6103983660046110c0565b6109a6565b3480156103a8575f80fd5b506102426103e881565b3480156103bd575f80fd5b50610242600b5481565b3480156103d2575f80fd5b506005546001600160a01b031661032a565b3480156103ef575f80fd5b506101c7610a61565b348015610403575f80fd5b5061022b610412366004611098565b610a70565b348015610422575f80fd5b506101fc610431366004611098565b610b88565b348015610441575f80fd5b50610242600d5481565b348015610456575f80fd5b506101c7610b95565b34801561046a575f80fd5b5061022b6104793660046110c0565b610ba2565b348015610489575f80fd5b50600a5461032a906001600160a01b031681565b3480156104a8575f80fd5b506102426104b736600461116b565b6001600160a01b039182165f90815260016020908152604080832093909416825291909152205490565b3480156104ec575f80fd5b506101fc6104fb366004611152565b610c5c565b34801561050b575f80fd5b5061022b61051a366004611152565b610c86565b60606003805461052e9061119c565b80601f016020809104026020016040519081016040528092919081815260200182805461055a9061119c565b80156105a55780601f1061057c576101008083540402835291602001916105a5565b820191905f5260205f20905b81548152906001019060200180831161058857829003601f168201915b5050505050905090565b5f336105bc818585610cc0565b60019150505b92915050565b5f81116106265760405162461bcd60e51b815260206004820152602160248201527f54697020616d6f756e74206d7573742062652067726561746572207468616e206044820152600360fc1b60648201526084015b60405180910390fd5b335f908152602081905260409020548111156106845760405162461bcd60e51b815260206004820152601c60248201527f496e73756666696369656e742062616c616e636520666f722074697000000000604482015260640161061d565b60095461069c9033906001600160a01b031683610cd2565b6009546040518281526001600160a01b039091169033907f944676cc66b56faa2e31ce8f94f620789dda8488308d59491fabc492867d4cec9060200160405180910390a350565b5f336106f0858285610d2f565b6106fb858585610cd2565b506001949350505050565b600854335f90815260208190526040812054909111156107685760405162461bcd60e51b815260206004820152601a60248201527f496e73756666696369656e7420746f6b656e2062616c616e6365000000000000604482015260640161061d565b6107753330600854610cd2565b600c8054905f610784836111e8565b9091555050600854604080519182526020820184905233917f9632c3bf697c32e051b2e203826012fd7a04fd38cc3166f6349db96ff7eb06fc910160405180910390a2506001919050565b6060805f805f60066007600854600c54600d548480546107ee9061119c565b80601f016020809104026020016040519081016040528092919081815260200182805461081a9061119c565b80156108655780601f1061083c57610100808354040283529160200191610865565b820191905f5260205f20905b81548152906001019060200180831161084857829003601f168201915b505050505094508380546108789061119c565b80601f01602080910402602001604051908101604052809291908181526020018280546108a49061119c565b80156108ef5780601f106108c6576101008083540402835291602001916108ef565b820191905f5260205f20905b8154815290600101906020018083116108d257829003601f168201915b50505050509350945094509450945094509091929394565b600780546109149061119c565b80601f01602080910402602001604051908101604052809291908181526020018280546109409061119c565b801561098b5780601f106109625761010080835404028352916020019161098b565b820191905f5260205f20905b81548152906001019060200180831161096e57829003601f168201915b505050505081565b61099b610dab565b6109a45f610dd8565b565b5f81116109f55760405162461bcd60e51b815260206004820152601d60248201527f416d6f756e74206d7573742062652067726561746572207468616e2030000000604482015260640161061d565b305f90815260208190526040902054811115610a535760405162461bcd60e51b815260206004820152601b60248201527f4e6f7420656e6f75676820746f6b656e7320617661696c61626c650000000000604482015260640161061d565b610a5e303383610cd2565b50565b60606004805461052e9061119c565b610a78610dab565b5f6064600b54600854610a8b9190611200565b610a959190611217565b90505f81600854610aa69190611236565b90508015610ac657600954610ac69030906001600160a01b031683610cd2565b8115610ae457600a54610ae49030906001600160a01b031684610cd2565b600854600d5f828254610af79190611249565b90915550506040518381526001600160a01b038516907fe6e1218ed77a67a1ffe384349d426686653073b477f81b238b44612fd34860de9060200160405180910390a260095460408051838152602081018590526001600160a01b03909216917f23c66d89e0135aaea90eae0a65f26e5ce7b564834613ad71f4c7ff723354f13e910160405180910390a250505050565b5f336105bc818585610cd2565b600680546109149061119c565b6009546001600160a01b0316331480610bc557506005546001600160a01b031633145b610c085760405162461bcd60e51b815260206004820152601460248201527327b7363c9032bc3832b93a1037b91037bbb732b960611b604482015260640161061d565b5f8111610c575760405162461bcd60e51b815260206004820152601b60248201527f436f7374206d7573742062652067726561746572207468616e20300000000000604482015260640161061d565b600855565b5f600854610c7e836001600160a01b03165f9081526020819052604090205490565b101592915050565b610c8e610dab565b6001600160a01b038116610cb757604051631e4fbdf760e01b81525f600482015260240161061d565b610a5e81610dd8565b610ccd8383836001610e29565b505050565b6001600160a01b038316610cfb57604051634b637e8f60e11b81525f600482015260240161061d565b6001600160a01b038216610d245760405163ec442f0560e01b81525f600482015260240161061d565b610ccd838383610efb565b6001600160a01b038381165f908152600160209081526040808320938616835292905220545f19811015610da55781811015610d9757604051637dc7a0d960e11b81526001600160a01b0384166004820152602481018290526044810183905260640161061d565b610da584848484035f610e29565b50505050565b6005546001600160a01b031633146109a45760405163118cdaa760e01b815233600482015260240161061d565b600580546001600160a01b038381166001600160a01b0319831681179093556040519116919082907f8be0079c531659141344cd1fd0a4f28419497f9722a3daafe3b4186f6b6457e0905f90a35050565b6001600160a01b038416610e525760405163e602df0560e01b81525f600482015260240161061d565b6001600160a01b038316610e7b57604051634a1406b160e11b81525f600482015260240161061d565b6001600160a01b038085165f9081526001602090815260408083209387168352929052208290558015610da557826001600160a01b0316846001600160a01b03167f8c5be1e5ebec7d5bd14f71427d1e84f3dd0314c0f7b2291e5b200ac8c7c3b92584604051610eed91815260200190565b60405180910390a350505050565b6001600160a01b038316610f25578060025f828254610f1a9190611249565b90915550610f959050565b6001600160a01b0383165f9081526020819052604090205481811015610f775760405163391434e360e21b81526001600160a01b0385166004820152602481018290526044810183905260640161061d565b6001600160a01b0384165f9081526020819052604090209082900390555b6001600160a01b038216610fb157600280548290039055610fcf565b6001600160a01b0382165f9081526020819052604090208054820190555b816001600160a01b0316836001600160a01b03167fddf252ad1be2c89b69c2b068fc378daa952ba7f163c4a11628f55a4df523b3ef8360405161101491815260200190565b60405180910390a3505050565b5f81518084525f5b8181101561104557602081850181015186830182015201611029565b505f602082860101526020601f19601f83011685010191505092915050565b602081525f6110766020830184611021565b9392505050565b80356001600160a01b0381168114611093575f80fd5b919050565b5f80604083850312156110a9575f80fd5b6110b28361107d565b946020939093013593505050565b5f602082840312156110d0575f80fd5b5035919050565b5f805f606084860312156110e9575f80fd5b6110f28461107d565b92506111006020850161107d565b9150604084013590509250925092565b60a081525f61112260a0830188611021565b82810360208401526111348188611021565b60408401969096525050606081019290925260809091015292915050565b5f60208284031215611162575f80fd5b6110768261107d565b5f806040838503121561117c575f80fd5b6111858361107d565b91506111936020840161107d565b90509250929050565b600181811c908216806111b057607f821691505b6020821081036111ce57634e487b7160e01b5f52602260045260245ffd5b50919050565b634e487b7160e01b5f52601160045260245ffd5b5f600182016111f9576111f96111d4565b5060010190565b80820281158282048414176105c2576105c26111d4565b5f8261123157634e487b7160e01b5f52601260045260245ffd5b500490565b818103818111156105c2576105c26111d4565b808201808211156105c2576105c26111d456fea264697066735822122018f35bf83df6a715f0e87df94eda743db9d4471231caffde9c644f24314708dc64736f6c63430008180033a2646970667358221220d6d27388ca27ab02702c7135e72766b8c99b713cae849ae4de4b8e30feb7cecb64736f6c63430008180033",
  "linkReferences": {},
  "deployedLinkReferences": {},
  "immutableReferences": {},
  "inputSourceName": "project/contracts/ExpertFactory.sol",
  "buildInfoId": "94144724a3fd99539ea017a6fd4e68649d389c0c"
}