{
  "_format": "hh3-artifact-1",
  "contractName": "ExpertToken",
  "sourceName": "contracts/ExpertToken.sol",
  "abi": [
    {
      "inputs": [
        {
          "internalType": "string",
          "name": "_name",
          "type": "string"
        },
        {
          "internalType": "string",
          "name": "_symbol",
          "type": "string"
        },
        {
          "internalType": "string",
          "name": "_expertName",
          "type": "string"
        },
        {
          "internalType": "string",
          "name": "_expertCategory",
          "type": "string"
        },
        {
          "internalType": "uint256",
          "name": "_tokensPerQuery",
          "type": "uint256"
        },
        {
          "internalType": "address",
          "name": "_expertAddress",
          "type": "address"
        },
        {
          "internalType": "address",
          "name": "_platformAddress",
          "type": "address"
        }
      ],
      "stateMutability": "nonpayable",
      "type": "constructor"
    },
    {
      "inputs": [
        {
          "internalType": "address",
          "name": "spender",
          "type": "address"
        },
        {
          "internalType": "uint256",
          "name": "allowance",
          "type": "uint256"
        },
        {
          "internalType": "uint256",
          "name": "needed",
          "type": "uint256"
        }
      ],
      "name": "ERC20InsufficientAllowance",
      "type": "error"
    },
    {
      "inputs": [
        {
          "internalType": "address",
          "name": "sender",
          "type": "address"
        },
        {
          "internalType": "uint256",
          "name": "balance",
          "type": "uint256"
        },
        {
          "internalType": "uint256",
          "name": "needed",
          "type": "uint256"
        }
      ],
      "name": "ERC20InsufficientBalance",
      "type": "error"
    },
    {
      "inputs": [
        {
          "internalType": "address",
          "name": "approver",
          "type": "address"
        }
      ],
      "name": "ERC20InvalidApprover",
      "type": "error"
    },
    {
      "inputs": [
        {
          "internalType": "address",
          "name": "receiver",
          "type": "address"
        }
      ],
      "name": "ERC20InvalidReceiver",
      "type": "error"
    },
    {
      "inputs": [
        {
          "internalType": "address",
          "name": "sender",
          "type": "address"
        }
      ],
      "name": "ERC20InvalidSender",
      "type": "error"
    },
    {
      "inputs": [
        {
          "internalType": "address",
          "name": "spender",
          "type": "address"
        }
      ],
      "name": "ERC20InvalidSpender",
      "type": "error"
    },
    {
      "inputs": [
        {
          "internalType": "address",
          "name": "owner",
          "type": "address"
        }
      ],
      "name": "OwnableInvalidOwner",
      "type": "error"
    },
    {
      "inputs": [
        {
          "internalType": "address",
          "name": "account",
          "type": "address"
        }
      ],
      "name": "OwnableUnauthorizedAccount",
      "type": "error"
    },
    {
      "anonymous": false,
      "inputs": [
        {
          "indexed": true,
          "internalType": "address",
          "name": "owner",
          "type": "address"
        },
        {
          "indexed": true,
          "internalType": "address",
          "name": "spender",
          "type": "address"
        },
        {
          "indexed": false,
          "internalType": "uint256",
          "name": "value",
          "type": "uint256"
        }
      ],
      "name": "Approval",
      "type": "event"
    },
    {
      "anonymous": false,
      "inputs": [
        {
          "indexed": true,
          "internalType": "address",
          "name": "user",
          "type": "address"
        },
        {
          "indexed": false,
          "internalType": "uint256",
          "name": "consultationId",
          "type": "uint256"
        }
      ],
      "name": "ConsultationCompleted",
      "type": "event"
    },
    {
      "anonymous": false,
      "inputs": [
        {
          "indexed": true,
          "internalType": "address",
          "name": "user",
          "type": "address"
        },
        {
          "indexed": false,
          "internalType": "uint256",
          "name": "tokenAmount",
          "type": "uint256"
        },
        {
          "indexed": false,
          "internalType": "uint256",
          "name": "consultationId",
          "type": "uint256"
        }
      ],
      "name": "ConsultationStarted",
      "type": "event"
    },
    {
      "anonymous": false,
      "inputs": [
        {
          "indexed": true,
          "internalType": "address",
          "name": "previousOwner",
          "type": "address"
        },
        {
          "indexed": true,
          "internalType": "address",
          "name": "newOwner",
          "type": "address"
        }
      ],
      "name": "OwnershipTransferred",
      "type": "event"
    },
    {
      "anonymous": false,
      "inputs": [
        {
          "indexed": true,
          "internalType": "address",
          "name": "expert",
          "type": "address"
        },
        {
          "indexed": false,
          "internalType": "uint256",
          "name": "expertAmount",
          "type": "uint256"
        },
        {
          "indexed": false,
          "internalType": "uint256",
          "name": "platformAmount",
          "type": "uint256"
        }
      ],
      "name": "RevenueDistributed",
      "type": "event"
    },
    {
      "anonymous": false,
      "inputs": [
        {
          "indexed": true,
          "internalType": "address",
          "name": "from",
          "type": "address"
        },
        {
          "indexed": true,
          "internalType": "address",
          "name": "to",
          "type": "address"
        },
        {
          "indexed": false,
          "internalType": "uint256",
          "name": "value",
          "type": "uint256"
        }
      ],
      "name": "Transfer",
      "type": "event"
    },
    {
      "inputs": [],
      "name": "INITIAL_PRICE",
      "outputs": [
        {
          "internalType": "uint256",
          "name": "",
          "type": "uint256"
        }
      ],
      "stateMutability": "view",
      "type": "function"
    },
    {
      "inputs": [
        {
          "internalType": "address",
          "name": "owner",
          "type": "address"
        },
        {
          "internalType": "address",
          "name": "spender",
          "type": "address"
        }
      ],
      "name": "allowance",
      "outputs": [
        {
          "internalType": "uint256",
          "name": "",
          "type": "uint256"
        }
      ],
      "stateMutability": "view",
      "type": "function"
    },
    {
      "inputs": [
        {
          "internalType": "address",
          "name": "spender",
          "type": "address"
        },
        {
          "internalType": "uint256",
          "name": "value",
          "type": "uint256"
        }
      ],
      "name": "approve",
      "outputs": [
        {
          "internalType": "bool",
          "name": "",
          "type": "bool"
        }
      ],
      "stateMutability": "nonpayable",
      "type": "function"
    },
    {
      "inputs": [
        {
          "internalType": "address",
          "name": "account",
          "type": "address"
        }
      ],
      "name": "balanceOf",
      "outputs": [
        {
          "internalType": "uint256",
          "name": "",
          "type": "uint256"
        }
      ],
      "stateMutability": "view",
      "type": "function"
    },
    {
      "inputs": [
        {
          "internalType": "address",
          "name": "_user",
          "type": "address"
        }
      ],
      "name": "canAffordConsultation",
      "outputs": [
        {
          "internalType": "bool",
          "name": "",
          "type": "bool"
        }
      ],
      "stateMutability": "view",
      "type": "function"
    },
    {
      "inputs": [
        {
          "internalType": "address",
          "name": "_user",
          "type": "address"
        },
        {
          "internalType": "uint256",
          "name": "_consultationId",
          "type": "uint256"
        }
      ],
      "name": "completeConsultation",
      "outputs": [],
      "stateMutability": "nonpayable",
      "type": "function"
    },
    {
      "inputs": [],
      "name": "consultationCost",
      "outputs": [
        {
          "internalType": "uint256",
          "name": "",
          "type": "uint256"
        }
      ],
      "stateMutability": "view",
      "type": "function"
    },
    {
      "inputs": [],
      "name": "decimals",
      "outputs": [
        {
          "internalType": "uint8",
          "name": "",
          "type": "uint8"
        }
      ],
      "stateMutability": "view",
      "type": "function"
    },
    {
      "inputs": [],
      "name": "expertAddress",
      "outputs": [
        {
          "internalType": "address",
          "name": "",
          "type": "address"
        }
      ],
      "stateMutability": "view",
      "type": "function"
    },
    {
      "inputs": [],
      "name": "expertCategory",
      "outputs": [
        {
          "internalType": "string",
          "name": "",
          "type": "string"
        }
      ],
      "stateMutability": "view",
      "type": "function"
    },
    {
      "inputs": [],
      "name": "expertName",
      "outputs": [
        {
          "internalType": "string",
          "name": "",
          "type": "string"
        }
      ],
      "stateMutability": "view",
      "type": "function"
    },
    {
      "inputs": [],
      "name": "getExpertInfo",
      "outputs": [
        {
          "internalType": "string",
          "name": "name_",
          "type": "string"
        },
        {
          "internalType": "string",
          "name": "category_",
          "type": "string"
        },
        {
          "internalType": "uint256",
          "name": "cost_",
          "type": "uint256"
        },
        {
          "internalType": "uint256",
          "name": "consultations_",
          "type": "uint256"
        },
        {
          "internalType": "uint256",
          "name": "revenue_",
          "type": "uint256"
        }
      ],
      "stateMutability": "view",
      "type": "function"
    },
    {
      "inputs": [],
      "name": "name",
      "outputs": [
        {
          "internalType": "string",
          "name": "",
          "type": "string"
        }
      ],
      "stateMutability": "view",
      "type": "function"
    },
    {
      "inputs": [],
      "name": "owner",
      "outputs": [
        {
          "internalType": "address",
          "name": "",
          "type": "address"
        }
      ],
      "stateMutability": "view",
      "type": "function"
    },
    {
      "inputs": [],
      "name": "platformAddress",
      "outputs": [
        {
          "internalType": "address",
          "name": "",
          "type": "address"
        }
      ],
      "stateMutability": "view",
      "type": "function"
    },
    {
      "inputs": [],
      "name": "platformFeePercent",
      "outputs": [
        {
          "internalType": "uint256",
          "name": "",
          "type": "uint256"
        }
      ],
      "stateMutability": "view",
      "type": "function"
    },
    {
      "inputs": [
        {
          "internalType": "uint256",
          "name": "_amount",
          "type": "uint256"
        }
      ],
      "name": "purchaseTokens",
      "outputs": [],
      "stateMutability": "payable",
      "type": "function"
    },
    {
      "inputs": [],
      "name": "renounceOwnership",
      "outputs": [],
      "stateMutability": "nonpayable",
      "type": "function"
    },
    {
      "inputs": [
        {
          "internalType": "uint256",
          "name": "_consultationId",
          "type": "uint256"
        }
      ],
      "name": "startConsultation",
      "outputs": [
        {
          "internalType": "bool",
          "name": "",
          "type": "bool"
        }
      ],
      "stateMutability": "nonpayable",
      "type": "function"
    },
    {
      "inputs": [],
      "name": "symbol",
      "outputs": [
        {
          "internalType": "string",
          "name": "",
          "type": "string"
        }
      ],
      "stateMutability": "view",
      "type": "function"
    },
    {
      "inputs": [],
      "name": "totalConsultations",
      "outputs": [
        {
          "internalType": "uint256",
          "name": "",
          "type": "uint256"
        }
      ],
      "stateMutability": "view",
      "type": "function"
    },
    {
      "inputs": [],
      "name": "totalRevenue",
      "outputs": [
        {
          "internalType": "uint256",
          "name": "",
          "type": "uint256"
        }
      ],
      "stateMutability": "view",
      "type": "function"
    },
    {
      "inputs": [],
      "name": "totalSupply",
      "outputs": [
        {
          "internalType": "uint256",
          "name": "",
          "type": "uint256"
        }
      ],
      "stateMutability": "view",
      "type": "function"
    },
    {
      "inputs": [
        {
          "internalType": "address",
          "name": "to",
          "type": "address"
        },
        {
          "internalType": "uint256",
          "name": "value",
          "type": "uint256"
        }
      ],
      "name": "transfer",
      "outputs": [
        {
          "internalType": "bool",
          "name": "",
          "type": "bool"
        }
      ],
      "stateMutability": "nonpayable",
      "type": "function"
    },
    {
      "inputs": [
        {
          "internalType": "address",
          "name": "from",
          "type": "address"
        },
        {
          "internalType": "address",
          "name": "to",
          "type": "address"
        },
        {
          "internalType": "uint256",
          "name": "value",
          "type": "uint256"
        }
      ],
      "name": "transferFrom",
      "outputs": [
        {
          "internalType": "bool",
          "name": "",
          "type": "bool"
        }
      ],
      "stateMutability": "nonpayable",
      "type": "function"
    },
    {
      "inputs": [
        {
          "internalType": "address",
          "name": "newOwner",
          "type": "address"
        }
      ],
      "name": "transferOwnership",
      "outputs": [],
      "stateMutability": "nonpayable",
      "type": "function"
    },
    {
      "inputs": [
        {
          "internalType": "uint256",
          "name": "_newCost",
          "type": "uint256"
        }
      ],
      "name": "updateConsultationCost",
      "outputs": [],
      "stateMutability": "nonpayable",
      "type": "function"
    }
  ],
  "bytecode": "0x6080604052600a600b5534801562000015575f80fd5b506040516200189b3803806200189b8339810160408190526200003891620003bf565b338787600362000049838262000528565b50600462000058828262000528565b5050506001600160a01b0381166200008a57604051631e4fbdf760e01b81525f60048201526024015b60405180910390fd5b620000958162000126565b506006620000a4868262000528565b506007620000b3858262000528565b506008839055600980546001600160a01b038085166001600160a01b031992831617909255600a8054928416929091169190911790556200011930620000f7601290565b6200010490600a62000703565b6200011390620f42406200071a565b62000177565b505050505050506200074a565b600580546001600160a01b038381166001600160a01b0319831681179093556040519116919082907f8be0079c531659141344cd1fd0a4f28419497f9722a3daafe3b4186f6b6457e0905f90a35050565b6001600160a01b038216620001a25760405163ec442f0560e01b81525f600482015260240162000081565b620001af5f8383620001b3565b5050565b6001600160a01b038316620001e1578060025f828254620001d5919062000734565b90915550620002539050565b6001600160a01b0383165f9081526020819052604090205481811015620002355760405163391434e360e21b81526001600160a01b0385166004820152602481018290526044810183905260640162000081565b6001600160a01b0384165f9081526020819052604090209082900390555b6001600160a01b03821662000271576002805482900390556200028f565b6001600160a01b0382165f9081526020819052604090208054820190555b816001600160a01b0316836001600160a01b03167fddf252ad1be2c89b69c2b068fc378daa952ba7f163c4a11628f55a4df523b3ef83604051620002d591815260200190565b60405180910390a3505050565b634e487b7160e01b5f52604160045260245ffd5b5f82601f83011262000306575f80fd5b81516001600160401b0380821115620003235762000323620002e2565b604051601f8301601f19908116603f011681019082821181831017156200034e576200034e620002e2565b81604052838152602092508660208588010111156200036b575f80fd5b5f91505b838210156200038e57858201830151818301840152908201906200036f565b5f602085830101528094505050505092915050565b80516001600160a01b0381168114620003ba575f80fd5b919050565b5f805f805f805f60e0888a031215620003d6575f80fd5b87516001600160401b0380821115620003ed575f80fd5b620003fb8b838c01620002f6565b985060208a015191508082111562000411575f80fd5b6200041f8b838c01620002f6565b975060408a015191508082111562000435575f80fd5b620004438b838c01620002f6565b965060608a015191508082111562000459575f80fd5b50620004688a828b01620002f6565b945050608088015192506200048060a08901620003a3565b91506200049060c08901620003a3565b905092959891949750929550565b600181811c90821680620004b357607f821691505b602082108103620004d257634e487b7160e01b5f52602260045260245ffd5b50919050565b601f8211156200052357805f5260205f20601f840160051c81016020851015620004ff5750805b601f840160051c820191505b8181101562000520575f81556001016200050b565b50505b505050565b81516001600160401b03811115620005445762000544620002e2565b6200055c816200055584546200049e565b84620004d8565b602080601f83116001811462000592575f84156200057a5750858301515b5f19600386901b1c1916600185901b178555620005ec565b5f85815260208120601f198616915b82811015620005c257888601518255948401946001909101908401620005a1565b5085821015620005e057878501515f19600388901b60f8161c191681555b505060018460011b0185555b505050505050565b634e487b7160e01b5f52601160045260245ffd5b600181815b808511156200064857815f19048211156200062c576200062c620005f4565b808516156200063a57918102915b93841c93908002906200060d565b509250929050565b5f826200066057506001620006fd565b816200066e57505f620006fd565b81600181146200068757600281146200069257620006b2565b6001915050620006fd565b60ff841115620006a657620006a6620005f4565b50506001821b620006fd565b5060208310610133831016604e8410600b8410161715620006d7575081810a620006fd565b620006e3838362000608565b805f1904821115620006f957620006f9620005f4565b0290505b92915050565b5f6200071360ff84168362000650565b9392505050565b8082028115828204841417620006fd57620006fd620005f4565b80820180821115620006fd57620006fd620005f4565b61114380620007585f395ff3fe608060405260043610610195575f3560e01c80637b97008d116100e7578063bf2d9e0b11610087578063dbe55e5611610062578063dbe55e5614610445578063dd62ed3e14610464578063e548b2f4146104a8578063f2fde38b146104c7575f80fd5b8063bf2d9e0b146103fd578063c735b83914610412578063c89f3c4c14610426575f80fd5b80638da5cb5b116100c25780638da5cb5b1461038e57806395d89b41146103ab578063a90383f2146103bf578063a9059cbb146103de575f80fd5b80637b97008d146103515780637c5e2795146103645780638c639a8514610379575f80fd5b80634d8077db116101525780635fe97e9f1161012d5780635fe97e9f146102bc57806368b441dd146102d057806370a0823114610307578063715018a61461033b575f80fd5b80634d8077db146102635780635addb188146102825780635f0a481114610297575f80fd5b806306fdde0314610199578063095ea7b3146101c35780630eebf70c146101f257806318160ddd1461021557806323b872dd14610229578063313ce56714610248575b5f80fd5b3480156101a4575f80fd5b506101ad6104e6565b6040516101ba9190610f15565b60405180910390f35b3480156101ce575f80fd5b506101e26101dd366004610f49565b610576565b60405190151581526020016101ba565b3480156101fd575f80fd5b5061020760085481565b6040519081526020016101ba565b348015610220575f80fd5b50600254610207565b348015610234575f80fd5b506101e2610243366004610f71565b61058f565b348015610253575f80fd5b50604051601281526020016101ba565b34801561026e575f80fd5b506101e261027d366004610faa565b6105b2565b34801561028d575f80fd5b50610207600c5481565b3480156102a2575f80fd5b506102ab610680565b6040516101ba959493929190610fc1565b3480156102c7575f80fd5b506101ad6107b8565b3480156102db575f80fd5b506009546102ef906001600160a01b031681565b6040516001600160a01b0390911681526020016101ba565b348015610312575f80fd5b50610207610321366004611003565b6001600160a01b03165f9081526020819052604090205490565b348015610346575f80fd5b5061034f610844565b005b61034f61035f366004610faa565b610857565b34801561036f575f80fd5b506102076103e881565b348015610384575f80fd5b50610207600b5481565b348015610399575f80fd5b506005546001600160a01b03166102ef565b3480156103b6575f80fd5b506101ad610912565b3480156103ca575f80fd5b5061034f6103d9366004610f49565b610921565b3480156103e9575f80fd5b506101e26103f8366004610f49565b610a39565b348015610408575f80fd5b50610207600d5481565b34801561041d575f80fd5b506101ad610a46565b348015610431575f80fd5b5061034f610440366004610faa565b610a53565b348015610450575f80fd5b50600a546102ef906001600160a01b031681565b34801561046f575f80fd5b5061020761047e36600461101c565b6001600160a01b039182165f90815260016020908152604080832093909416825291909152205490565b3480156104b3575f80fd5b506101e26104c2366004611003565b610b0d565b3480156104d2575f80fd5b5061034f6104e1366004611003565b610b37565b6060600380546104f59061104d565b80601f01602080910402602001604051908101604052809291908181526020018280546105219061104d565b801561056c5780601f106105435761010080835404028352916020019161056c565b820191905f5260205f20905b81548152906001019060200180831161054f57829003601f168201915b5050505050905090565b5f33610583818585610b71565b60019150505b92915050565b5f3361059c858285610b83565b6105a7858585610bff565b506001949350505050565b600854335f90815260208190526040812054909111156106195760405162461bcd60e51b815260206004820152601a60248201527f496e73756666696369656e7420746f6b656e2062616c616e636500000000000060448201526064015b60405180910390fd5b6106263330600854610bff565b600c8054905f61063583611099565b9091555050600854604080519182526020820184905233917f9632c3bf697c32e051b2e203826012fd7a04fd38cc3166f6349db96ff7eb06fc910160405180910390a2506001919050565b6060805f805f60066007600854600c54600d5484805461069f9061104d565b80601f01602080910402602001604051908101604052809291908181526020018280546106cb9061104d565b80156107165780601f106106ed57610100808354040283529160200191610716565b820191905f5260205f20905b8154815290600101906020018083116106f957829003601f168201915b505050505094508380546107299061104d565b80601f01602080910402602001604051908101604052809291908181526020018280546107559061104d565b80156107a05780601f10610777576101008083540402835291602001916107a0565b820191905f5260205f20905b81548152906001019060200180831161078357829003601f168201915b50505050509350945094509450945094509091929394565b600780546107c59061104d565b80601f01602080910402602001604051908101604052809291908181526020018280546107f19061104d565b801561083c5780601f106108135761010080835404028352916020019161083c565b820191905f5260205f20905b81548152906001019060200180831161081f57829003601f168201915b505050505081565b61084c610c5c565b6108555f610c89565b565b5f81116108a65760405162461bcd60e51b815260206004820152601d60248201527f416d6f756e74206d7573742062652067726561746572207468616e20300000006044820152606401610610565b305f908152602081905260409020548111156109045760405162461bcd60e51b815260206004820152601b60248201527f4e6f7420656e6f75676820746f6b656e7320617661696c61626c6500000000006044820152606401610610565b61090f303383610bff565b50565b6060600480546104f59061104d565b610929610c5c565b5f6064600b5460085461093c91906110b1565b61094691906110c8565b90505f8160085461095791906110e7565b90508015610977576009546109779030906001600160a01b031683610bff565b811561099557600a546109959030906001600160a01b031684610bff565b600854600d5f8282546109a891906110fa565b90915550506040518381526001600160a01b038516907fe6e1218ed77a67a1ffe384349d426686653073b477f81b238b44612fd34860de9060200160405180910390a260095460408051838152602081018590526001600160a01b03909216917f23c66d89e0135aaea90eae0a65f26e5ce7b564834613ad71f4c7ff723354f13e910160405180910390a250505050565b5f33610583818585610bff565b600680546107c59061104d565b6009546001600160a01b0316331480610a7657506005546001600160a01b031633145b610ab95760405162461bcd60e51b815260206004820152601460248201527327b7363c9032bc3832b93a1037b91037bbb732b960611b6044820152606401610610565b5f8111610b085760405162461bcd60e51b815260206004820152601b60248201527f436f7374206d7573742062652067726561746572207468616e203000000000006044820152606401610610565b600855565b5f600854610b2f836001600160a01b03165f9081526020819052604090205490565b101592915050565b610b3f610c5c565b6001600160a01b038116610b6857604051631e4fbdf760e01b81525f6004820152602401610610565b61090f81610c89565b610b7e8383836001610cda565b505050565b6001600160a01b038381165f908152600160209081526040808320938616835292905220545f19811015610bf95781811015610beb57604051637dc7a0d960e11b81526001600160a01b03841660048201526024810182905260448101839052606401610610565b610bf984848484035f610cda565b50505050565b6001600160a01b038316610c2857604051634b637e8f60e11b81525f6004820152602401610610565b6001600160a01b038216610c515760405163ec442f0560e01b81525f6004820152602401610610565b610b7e838383610dac565b6005546001600160a01b031633146108555760405163118cdaa760e01b8152336004820152602401610610565b600580546001600160a01b038381166001600160a01b0319831681179093556040519116919082907f8be0079c531659141344cd1fd0a4f28419497f9722a3daafe3b4186f6b6457e0905f90a35050565b6001600160a01b038416610d035760405163e602df0560e01b81525f6004820152602401610610565b6001600160a01b038316610d2c57604051634a1406b160e11b81525f6004820152602401610610565b6001600160a01b038085165f9081526001602090815260408083209387168352929052208290558015610bf957826001600160a01b0316846001600160a01b03167f8c5be1e5ebec7d5bd14f71427d1e84f3dd0314c0f7b2291e5b200ac8c7c3b92584604051610d9e91815260200190565b60405180910390a350505050565b6001600160a01b038316610dd6578060025f828254610dcb91906110fa565b90915550610e469050565b6001600160a01b0383165f9081526020819052604090205481811015610e285760405163391434e360e21b81526001600160a01b03851660048201526024810182905260448101839052606401610610565b6001600160a01b0384165f9081526020819052604090209082900390555b6001600160a01b038216610e6257600280548290039055610e80565b6001600160a01b0382165f9081526020819052604090208054820190555b816001600160a01b0316836001600160a01b03167fddf252ad1be2c89b69c2b068fc378daa952ba7f163c4a11628f55a4df523b3ef83604051610ec591815260200190565b60405180910390a3505050565b5f81518084525f5b81811015610ef657602081850181015186830182015201610eda565b505f602082860101526020601f19601f83011685010191505092915050565b602081525f610f276020830184610ed2565b9392505050565b80356001600160a01b0381168114610f44575f80fd5b919050565b5f8060408385031215610f5a575f80fd5b610f6383610f2e565b946020939093013593505050565b5f805f60608486031215610f83575f80fd5b610f8c84610f2e565b9250610f9a60208501610f2e565b9150604084013590509250925092565b5f60208284031215610fba575f80fd5b5035919050565b60a081525f610fd360a0830188610ed2565b8281036020840152610fe58188610ed2565b60408401969096525050606081019290925260809091015292915050565b5f60208284031215611013575f80fd5b610f2782610f2e565b5f806040838503121561102d575f80fd5b61103683610f2e565b915061104460208401610f2e565b90509250929050565b600181811c9082168061106157607f821691505b60208210810361107f57634e487b7160e01b5f52602260045260245ffd5b50919050565b634e487b7160e01b5f52601160045260245ffd5b5f600182016110aa576110aa611085565b5060010190565b808202811582820484141761058957610589611085565b5f826110e257634e487b7160e01b5f52601260045260245ffd5b500490565b8181038181111561058957610589611085565b808201808211156105895761058961108556fea2646970667358221220b2b4e09384af5b5004367694672105b5b4a21a2864e458750e7c2d12514b523064736f6c63430008180033",
  "linkReferences": {},
  "deployedLinkReferences": {},
  "immutableReferences": {},
  "inputSourceName": "project/contracts/ExpertToken.sol",
  "buildInfoId": "7730621748f78c65dd62cc2b2351bdba284ba91e"
}